{
  "address": "0xa7348290de5cf01772479c48D50dec791c3fC212",
  "abi": [
    {
      "inputs": [
        {
          "internalType": "address",
          "name": "_endpoint",
          "type": "address"
        },
        {
          "internalType": "address",
          "name": "_owner",
          "type": "address"
        }
      ],
      "stateMutability": "nonpayable",
      "type": "constructor"
    },
    {
      "inputs": [],
      "name": "CreditMessaging_NotAnAltEndpoint",
      "type": "error"
    },
    {
      "inputs": [],
      "name": "CreditMessaging_OnlyAltToken",
      "type": "error"
    },
    {
      "inputs": [],
      "name": "CreditMsgCodec_InvalidMessage",
      "type": "error"
    },
    {
      "inputs": [],
      "name": "InvalidDelegate",
      "type": "error"
    },
    {
      "inputs": [],
      "name": "InvalidEndpointCall",
      "type": "error"
    },
    {
      "inputs": [
        {
          "internalType": "bytes",
          "name": "options",
          "type": "bytes"
        }
      ],
      "name": "InvalidOptions",
      "type": "error"
    },
    {
      "inputs": [],
      "name": "LzTokenUnavailable",
      "type": "error"
    },
    {
      "inputs": [],
      "name": "MessagingOptions_ZeroGasLimit",
      "type": "error"
    },
    {
      "inputs": [],
      "name": "Messaging_InvalidAssetId",
      "type": "error"
    },
    {
      "inputs": [],
      "name": "Messaging_Unauthorized",
      "type": "error"
    },
    {
      "inputs": [],
      "name": "Messaging_Unavailable",
      "type": "error"
    },
    {
      "inputs": [
        {
          "internalType": "uint32",
          "name": "eid",
          "type": "uint32"
        }
      ],
      "name": "NoPeer",
      "type": "error"
    },
    {
      "inputs": [
        {
          "internalType": "uint256",
          "name": "msgValue",
          "type": "uint256"
        }
      ],
      "name": "NotEnoughNative",
      "type": "error"
    },
    {
      "inputs": [
        {
          "internalType": "address",
          "name": "addr",
          "type": "address"
        }
      ],
      "name": "OnlyEndpoint",
      "type": "error"
    },
    {
      "inputs": [
        {
          "internalType": "uint32",
          "name": "eid",
          "type": "uint32"
        },
        {
          "internalType": "bytes32",
          "name": "sender",
          "type": "bytes32"
        }
      ],
      "name": "OnlyPeer",
      "type": "error"
    },
    {
      "inputs": [],
      "name": "OnlySelf",
      "type": "error"
    },
    {
      "inputs": [
        {
          "internalType": "bytes",
          "name": "result",
          "type": "bytes"
        }
      ],
      "name": "SimulationResult",
      "type": "error"
    },
    {
      "inputs": [],
      "name": "Transfer_ApproveFailed",
      "type": "error"
    },
    {
      "inputs": [],
      "name": "Transfer_TransferFailed",
      "type": "error"
    },
    {
      "anonymous": false,
      "inputs": [
        {
          "indexed": false,
          "internalType": "address",
          "name": "stargateImpl",
          "type": "address"
        },
        {
          "indexed": false,
          "internalType": "uint16",
          "name": "assetId",
          "type": "uint16"
        }
      ],
      "name": "AssetIdSet",
      "type": "event"
    },
    {
      "anonymous": false,
      "inputs": [
        {
          "components": [
            {
              "internalType": "uint32",
              "name": "eid",
              "type": "uint32"
            },
            {
              "internalType": "uint16",
              "name": "msgType",
              "type": "uint16"
            },
            {
              "internalType": "bytes",
              "name": "options",
              "type": "bytes"
            }
          ],
          "indexed": false,
          "internalType": "struct EnforcedOptionParam[]",
          "name": "_enforcedOptions",
          "type": "tuple[]"
        }
      ],
      "name": "EnforcedOptionSet",
      "type": "event"
    },
    {
      "anonymous": false,
      "inputs": [
        {
          "indexed": false,
          "internalType": "uint32",
          "name": "eid",
          "type": "uint32"
        },
        {
          "indexed": false,
          "internalType": "uint128",
          "name": "gasLimit",
          "type": "uint128"
        }
      ],
      "name": "GasLimitSet",
      "type": "event"
    },
    {
      "anonymous": false,
      "inputs": [
        {
          "indexed": false,
          "internalType": "uint16",
          "name": "maxAssetId",
          "type": "uint16"
        }
      ],
      "name": "MaxAssetIdSet",
      "type": "event"
    },
    {
      "anonymous": false,
      "inputs": [
        {
          "indexed": true,
          "internalType": "address",
          "name": "previousOwner",
          "type": "address"
        },
        {
          "indexed": true,
          "internalType": "address",
          "name": "newOwner",
          "type": "address"
        }
      ],
      "name": "OwnershipTransferred",
      "type": "event"
    },
    {
      "anonymous": false,
      "inputs": [
        {
          "indexed": false,
          "internalType": "uint32",
          "name": "eid",
          "type": "uint32"
        },
        {
          "indexed": false,
          "internalType": "bytes32",
          "name": "peer",
          "type": "bytes32"
        }
      ],
      "name": "PeerSet",
      "type": "event"
    },
    {
      "anonymous": false,
      "inputs": [
        {
          "indexed": false,
          "internalType": "address",
          "name": "planner",
          "type": "address"
        }
      ],
      "name": "PlannerSet",
      "type": "event"
    },
    {
      "anonymous": false,
      "inputs": [
        {
          "indexed": false,
          "internalType": "address",
          "name": "preCrimeAddress",
          "type": "address"
        }
      ],
      "name": "PreCrimeSet",
      "type": "event"
    },
    {
      "inputs": [
        {
          "components": [
            {
              "internalType": "uint32",
              "name": "srcEid",
              "type": "uint32"
            },
            {
              "internalType": "bytes32",
              "name": "sender",
              "type": "bytes32"
            },
            {
              "internalType": "uint64",
              "name": "nonce",
              "type": "uint64"
            }
          ],
          "internalType": "struct Origin",
          "name": "origin",
          "type": "tuple"
        }
      ],
      "name": "allowInitializePath",
      "outputs": [
        {
          "internalType": "bool",
          "name": "",
          "type": "bool"
        }
      ],
      "stateMutability": "view",
      "type": "function"
    },
    {
      "inputs": [
        {
          "internalType": "address",
          "name": "stargateImpl",
          "type": "address"
        }
      ],
      "name": "assetIds",
      "outputs": [
        {
          "internalType": "uint16",
          "name": "assetId",
          "type": "uint16"
        }
      ],
      "stateMutability": "view",
      "type": "function"
    },
    {
      "inputs": [
        {
          "internalType": "uint32",
          "name": "_eid",
          "type": "uint32"
        },
        {
          "internalType": "uint16",
          "name": "_msgType",
          "type": "uint16"
        },
        {
          "internalType": "bytes",
          "name": "_extraOptions",
          "type": "bytes"
        }
      ],
      "name": "combineOptions",
      "outputs": [
        {
          "internalType": "bytes",
          "name": "",
          "type": "bytes"
        }
      ],
      "stateMutability": "view",
      "type": "function"
    },
    {
      "inputs": [],
      "name": "endpoint",
      "outputs": [
        {
          "internalType": "contract ILayerZeroEndpointV2",
          "name": "",
          "type": "address"
        }
      ],
      "stateMutability": "view",
      "type": "function"
    },
    {
      "inputs": [
        {
          "internalType": "uint32",
          "name": "eid",
          "type": "uint32"
        },
        {
          "internalType": "uint16",
          "name": "msgType",
          "type": "uint16"
        }
      ],
      "name": "enforcedOptions",
      "outputs": [
        {
          "internalType": "bytes",
          "name": "enforcedOption",
          "type": "bytes"
        }
      ],
      "stateMutability": "view",
      "type": "function"
    },
    {
      "inputs": [],
      "name": "feeToken",
      "outputs": [
        {
          "internalType": "address",
          "name": "",
          "type": "address"
        }
      ],
      "stateMutability": "view",
      "type": "function"
    },
    {
      "inputs": [
        {
          "internalType": "uint32",
          "name": "eid",
          "type": "uint32"
        }
      ],
      "name": "gasLimits",
      "outputs": [
        {
          "internalType": "uint128",
          "name": "gasLimit",
          "type": "uint128"
        }
      ],
      "stateMutability": "view",
      "type": "function"
    },
    {
      "inputs": [],
      "name": "getTransferGasLimit",
      "outputs": [
        {
          "internalType": "uint256",
          "name": "",
          "type": "uint256"
        }
      ],
      "stateMutability": "view",
      "type": "function"
    },
    {
      "inputs": [
        {
          "components": [
            {
              "internalType": "uint32",
              "name": "srcEid",
              "type": "uint32"
            },
            {
              "internalType": "bytes32",
              "name": "sender",
              "type": "bytes32"
            },
            {
              "internalType": "uint64",
              "name": "nonce",
              "type": "uint64"
            }
          ],
          "internalType": "struct Origin",
          "name": "",
          "type": "tuple"
        },
        {
          "internalType": "bytes",
          "name": "",
          "type": "bytes"
        },
        {
          "internalType": "address",
          "name": "_sender",
          "type": "address"
        }
      ],
      "name": "isComposeMsgSender",
      "outputs": [
        {
          "internalType": "bool",
          "name": "",
          "type": "bool"
        }
      ],
      "stateMutability": "view",
      "type": "function"
    },
    {
      "inputs": [
        {
          "internalType": "uint32",
          "name": "_eid",
          "type": "uint32"
        },
        {
          "internalType": "bytes32",
          "name": "_peer",
          "type": "bytes32"
        }
      ],
      "name": "isPeer",
      "outputs": [
        {
          "internalType": "bool",
          "name": "",
          "type": "bool"
        }
      ],
      "stateMutability": "view",
      "type": "function"
    },
    {
      "inputs": [
        {
          "components": [
            {
              "internalType": "uint32",
              "name": "srcEid",
              "type": "uint32"
            },
            {
              "internalType": "bytes32",
              "name": "sender",
              "type": "bytes32"
            },
            {
              "internalType": "uint64",
              "name": "nonce",
              "type": "uint64"
            }
          ],
          "internalType": "struct Origin",
          "name": "_origin",
          "type": "tuple"
        },
        {
          "internalType": "bytes32",
          "name": "_guid",
          "type": "bytes32"
        },
        {
          "internalType": "bytes",
          "name": "_message",
          "type": "bytes"
        },
        {
          "internalType": "address",
          "name": "_executor",
          "type": "address"
        },
        {
          "internalType": "bytes",
          "name": "_extraData",
          "type": "bytes"
        }
      ],
      "name": "lzReceive",
      "outputs": [],
      "stateMutability": "payable",
      "type": "function"
    },
    {
      "inputs": [
        {
          "components": [
            {
              "components": [
                {
                  "internalType": "uint32",
                  "name": "srcEid",
                  "type": "uint32"
                },
                {
                  "internalType": "bytes32",
                  "name": "sender",
                  "type": "bytes32"
                },
                {
                  "internalType": "uint64",
                  "name": "nonce",
                  "type": "uint64"
                }
              ],
              "internalType": "struct Origin",
              "name": "origin",
              "type": "tuple"
            },
            {
              "internalType": "uint32",
              "name": "dstEid",
              "type": "uint32"
            },
            {
              "internalType": "address",
              "name": "receiver",
              "type": "address"
            },
            {
              "internalType": "bytes32",
              "name": "guid",
              "type": "bytes32"
            },
            {
              "internalType": "uint256",
              "name": "value",
              "type": "uint256"
            },
            {
              "internalType": "address",
              "name": "executor",
              "type": "address"
            },
            {
              "internalType": "bytes",
              "name": "message",
              "type": "bytes"
            },
            {
              "internalType": "bytes",
              "name": "extraData",
              "type": "bytes"
            }
          ],
          "internalType": "struct InboundPacket[]",
          "name": "_packets",
          "type": "tuple[]"
        }
      ],
      "name": "lzReceiveAndRevert",
      "outputs": [],
      "stateMutability": "payable",
      "type": "function"
    },
    {
      "inputs": [
        {
          "components": [
            {
              "internalType": "uint32",
              "name": "srcEid",
              "type": "uint32"
            },
            {
              "internalType": "bytes32",
              "name": "sender",
              "type": "bytes32"
            },
            {
              "internalType": "uint64",
              "name": "nonce",
              "type": "uint64"
            }
          ],
          "internalType": "struct Origin",
          "name": "_origin",
          "type": "tuple"
        },
        {
          "internalType": "bytes32",
          "name": "_guid",
          "type": "bytes32"
        },
        {
          "internalType": "bytes",
          "name": "_message",
          "type": "bytes"
        },
        {
          "internalType": "address",
          "name": "_executor",
          "type": "address"
        },
        {
          "internalType": "bytes",
          "name": "_extraData",
          "type": "bytes"
        }
      ],
      "name": "lzReceiveSimulate",
      "outputs": [],
      "stateMutability": "payable",
      "type": "function"
    },
    {
      "inputs": [],
      "name": "maxAssetId",
      "outputs": [
        {
          "internalType": "uint16",
          "name": "",
          "type": "uint16"
        }
      ],
      "stateMutability": "view",
      "type": "function"
    },
    {
      "inputs": [
        {
          "internalType": "uint32",
          "name": "",
          "type": "uint32"
        },
        {
          "internalType": "bytes32",
          "name": "",
          "type": "bytes32"
        }
      ],
      "name": "nextNonce",
      "outputs": [
        {
          "internalType": "uint64",
          "name": "nonce",
          "type": "uint64"
        }
      ],
      "stateMutability": "view",
      "type": "function"
    },
    {
      "inputs": [],
      "name": "oApp",
      "outputs": [
        {
          "internalType": "address",
          "name": "",
          "type": "address"
        }
      ],
      "stateMutability": "view",
      "type": "function"
    },
    {
      "inputs": [],
      "name": "oAppVersion",
      "outputs": [
        {
          "internalType": "uint64",
          "name": "senderVersion",
          "type": "uint64"
        },
        {
          "internalType": "uint64",
          "name": "receiverVersion",
          "type": "uint64"
        }
      ],
      "stateMutability": "pure",
      "type": "function"
    },
    {
      "inputs": [],
      "name": "owner",
      "outputs": [
        {
          "internalType": "address",
          "name": "",
          "type": "address"
        }
      ],
      "stateMutability": "view",
      "type": "function"
    },
    {
      "inputs": [
        {
          "internalType": "uint32",
          "name": "eid",
          "type": "uint32"
        }
      ],
      "name": "peers",
      "outputs": [
        {
          "internalType": "bytes32",
          "name": "peer",
          "type": "bytes32"
        }
      ],
      "stateMutability": "view",
      "type": "function"
    },
    {
      "inputs": [],
      "name": "planner",
      "outputs": [
        {
          "internalType": "address",
          "name": "",
          "type": "address"
        }
      ],
      "stateMutability": "view",
      "type": "function"
    },
    {
      "inputs": [],
      "name": "preCrime",
      "outputs": [
        {
          "internalType": "address",
          "name": "",
          "type": "address"
        }
      ],
      "stateMutability": "view",
      "type": "function"
    },
    {
      "inputs": [
        {
          "internalType": "uint32",
          "name": "_dstEid",
          "type": "uint32"
        },
        {
          "components": [
            {
              "internalType": "uint16",
              "name": "assetId",
              "type": "uint16"
            },
            {
              "components": [
                {
                  "internalType": "uint32",
                  "name": "srcEid",
                  "type": "uint32"
                },
                {
                  "internalType": "uint64",
                  "name": "amount",
                  "type": "uint64"
                },
                {
                  "internalType": "uint64",
                  "name": "minAmount",
                  "type": "uint64"
                }
              ],
              "internalType": "struct TargetCredit[]",
              "name": "credits",
              "type": "tuple[]"
            }
          ],
          "internalType": "struct TargetCreditBatch[]",
          "name": "_creditBatches",
          "type": "tuple[]"
        }
      ],
      "name": "quoteSendCredits",
      "outputs": [
        {
          "components": [
            {
              "internalType": "uint256",
              "name": "nativeFee",
              "type": "uint256"
            },
            {
              "internalType": "uint256",
              "name": "lzTokenFee",
              "type": "uint256"
            }
          ],
          "internalType": "struct MessagingFee",
          "name": "fee",
          "type": "tuple"
        }
      ],
      "stateMutability": "view",
      "type": "function"
    },
    {
      "inputs": [],
      "name": "renounceOwnership",
      "outputs": [],
      "stateMutability": "nonpayable",
      "type": "function"
    },
    {
      "inputs": [
        {
          "internalType": "uint32",
          "name": "_dstEid",
          "type": "uint32"
        },
        {
          "components": [
            {
              "internalType": "uint16",
              "name": "assetId",
              "type": "uint16"
            },
            {
              "components": [
                {
                  "internalType": "uint32",
                  "name": "srcEid",
                  "type": "uint32"
                },
                {
                  "internalType": "uint64",
                  "name": "amount",
                  "type": "uint64"
                },
                {
                  "internalType": "uint64",
                  "name": "minAmount",
                  "type": "uint64"
                }
              ],
              "internalType": "struct TargetCredit[]",
              "name": "credits",
              "type": "tuple[]"
            }
          ],
          "internalType": "struct TargetCreditBatch[]",
          "name": "_creditBatches",
          "type": "tuple[]"
        }
      ],
      "name": "sendCredits",
      "outputs": [],
      "stateMutability": "payable",
      "type": "function"
    },
    {
      "inputs": [
        {
          "internalType": "address",
          "name": "_stargateImpl",
          "type": "address"
        },
        {
          "internalType": "uint16",
          "name": "_assetId",
          "type": "uint16"
        }
      ],
      "name": "setAssetId",
      "outputs": [],
      "stateMutability": "nonpayable",
      "type": "function"
    },
    {
      "inputs": [
        {
          "internalType": "address",
          "name": "_delegate",
          "type": "address"
        }
      ],
      "name": "setDelegate",
      "outputs": [],
      "stateMutability": "nonpayable",
      "type": "function"
    },
    {
      "inputs": [
        {
          "components": [
            {
              "internalType": "uint32",
              "name": "eid",
              "type": "uint32"
            },
            {
              "internalType": "uint16",
              "name": "msgType",
              "type": "uint16"
            },
            {
              "internalType": "bytes",
              "name": "options",
              "type": "bytes"
            }
          ],
          "internalType": "struct EnforcedOptionParam[]",
          "name": "_enforcedOptions",
          "type": "tuple[]"
        }
      ],
      "name": "setEnforcedOptions",
      "outputs": [],
      "stateMutability": "nonpayable",
      "type": "function"
    },
    {
      "inputs": [
        {
          "internalType": "uint32",
          "name": "_eid",
          "type": "uint32"
        },
        {
          "internalType": "uint128",
          "name": "_gasLimit",
          "type": "uint128"
        }
      ],
      "name": "setGasLimit",
      "outputs": [],
      "stateMutability": "nonpayable",
      "type": "function"
    },
    {
      "inputs": [
        {
          "internalType": "uint16",
          "name": "_maxAssetId",
          "type": "uint16"
        }
      ],
      "name": "setMaxAssetId",
      "outputs": [],
      "stateMutability": "nonpayable",
      "type": "function"
    },
    {
      "inputs": [
        {
          "internalType": "uint32",
          "name": "_eid",
          "type": "uint32"
        },
        {
          "internalType": "bytes32",
          "name": "_peer",
          "type": "bytes32"
        }
      ],
      "name": "setPeer",
      "outputs": [],
      "stateMutability": "nonpayable",
      "type": "function"
    },
    {
      "inputs": [
        {
          "internalType": "address",
          "name": "_planner",
          "type": "address"
        }
      ],
      "name": "setPlanner",
      "outputs": [],
      "stateMutability": "nonpayable",
      "type": "function"
    },
    {
      "inputs": [
        {
          "internalType": "address",
          "name": "_preCrime",
          "type": "address"
        }
      ],
      "name": "setPreCrime",
      "outputs": [],
      "stateMutability": "nonpayable",
      "type": "function"
    },
    {
      "inputs": [
        {
          "internalType": "uint256",
          "name": "_gasLimit",
          "type": "uint256"
        }
      ],
      "name": "setTransferGasLimit",
      "outputs": [],
      "stateMutability": "nonpayable",
      "type": "function"
    },
    {
      "inputs": [
        {
          "internalType": "uint16",
          "name": "assetId",
          "type": "uint16"
        }
      ],
      "name": "stargateImpls",
      "outputs": [
        {
          "internalType": "address",
          "name": "stargateImpl",
          "type": "address"
        }
      ],
      "stateMutability": "view",
      "type": "function"
    },
    {
      "inputs": [
        {
          "internalType": "address",
          "name": "newOwner",
          "type": "address"
        }
      ],
      "name": "transferOwnership",
      "outputs": [],
      "stateMutability": "nonpayable",
      "type": "function"
    }
  ],
  "transactionHash": "0x2fa06231313dbd43844e75e251b57ebd67a8b58c6fddbaee1434677c37237a47",
  "args": [
    "0x8bC1e36F015b9902B54b1387A4d733cebc2f5A4e",
    "0x5e6e4f234c7Ad525700fcF5B7862589950589ed5"
  ],
  "numDeployments": 1,
  "solcInputHash": "109cb1e78056c6404f78a638ea02fefb",
  "bytecode": "0x60c06040526108fc6008553480156200001757600080fd5b5060405162003df138038062003df18339810160408190526200003a91620001ea565b81818181818181816200004d336200017d565b6001600160a01b0380831660805281166200007b57604051632d618d8160e21b815260040160405180910390fd5b60805160405163ca5eb5e160e01b81526001600160a01b0383811660048301529091169063ca5eb5e190602401600060405180830381600087803b158015620000c357600080fd5b505af1158015620000d8573d6000803e3d6000fd5b505050505050505050505050816001600160a01b031663e1758bd86040518163ffffffff1660e01b8152600401602060405180830381865afa15801562000123573d6000803e3d6000fd5b505050506040513d601f19601f8201168201806040525081019062000149919062000222565b6001600160a01b031660a08190526200017557604051638f156e3760e01b815260040160405180910390fd5b505062000247565b600080546001600160a01b038381166001600160a01b0319831681178455604051919092169283917f8be0079c531659141344cd1fd0a4f28419497f9722a3daafe3b4186f6b6457e09190a35050565b80516001600160a01b0381168114620001e557600080fd5b919050565b60008060408385031215620001fe57600080fd5b6200020983620001cd565b91506200021960208401620001cd565b90509250929050565b6000602082840312156200023557600080fd5b6200024082620001cd565b9392505050565b60805160a051613b5a62000297600039600081816103b90152611dea01526000818161034f01528181610783015281816115d001528181611e0c01528181611ecb01526126490152613b5a6000f3fe6080604052600436106102345760003560e01c80638c70830b11610138578063bd815db0116100b0578063d8e8dbc71161007f578063f2fde38b11610064578063f2fde38b146106e1578063f8d50da614610701578063ff7bd03d1461076157600080fd5b8063d8e8dbc714610690578063e4c572cc146106c157600080fd5b8063bd815db01461062a578063ca5eb5e11461063d578063d045a0dc1461065d578063d42438851461067057600080fd5b8063b731ea0a11610107578063b98bd070116100ec578063b98bd070146105bd578063bb0b6a53146105dd578063bc70b3541461060a57600080fd5b8063b731ea0a14610562578063b76cbd7d1461058257600080fd5b80638c70830b146104be5780638da5cb5b146104de5780638f71f7dd146104fc578063917df23b1461051c57600080fd5b80635f6d9ae4116101cb578063715018a61161019a57806382413eac1161017f57806382413eac1461045f578063826f1fb11461047f57806388543f0e1461049f57600080fd5b8063715018a61461040e5780637d25a05e1461042357600080fd5b80635f6d9ae414610371578063647846a5146103a757806365b9bacb146103db57806370485155146103fb57600080fd5b806352ae28791161020757806352ae2879146102cd5780635535d461146102e05780635a0dfe4d1461030d5780635e280f111461033d57600080fd5b806313137d651461023957806317442b701461024e57806332e4e363146102755780633400288b146102ad575b600080fd5b61024c6102473660046129fe565b610781565b005b34801561025a57600080fd5b50604080516001815260026020820152015b60405180910390f35b34801561028157600080fd5b50600554610295906001600160a01b031681565b6040516001600160a01b03909116815260200161026c565b3480156102b957600080fd5b5061024c6102c8366004612aaf565b610873565b3480156102d957600080fd5b5030610295565b3480156102ec57600080fd5b506103006102fb366004612aed565b610889565b60405161026c9190612b72565b34801561031957600080fd5b5061032d610328366004612aaf565b61092e565b604051901515815260200161026c565b34801561034957600080fd5b506102957f000000000000000000000000000000000000000000000000000000000000000081565b34801561037d57600080fd5b5061029561038c366004612b85565b6004602052600090815260409020546001600160a01b031681565b3480156103b357600080fd5b506102957f000000000000000000000000000000000000000000000000000000000000000081565b3480156103e757600080fd5b5061024c6103f6366004612ba0565b61094d565b61024c610409366004612c33565b6109e4565b34801561041a57600080fd5b5061024c610c2f565b34801561042f57600080fd5b5061044661043e366004612aaf565b600092915050565b60405167ffffffffffffffff909116815260200161026c565b34801561046b57600080fd5b5061032d61047a366004612c88565b610c43565b34801561048b57600080fd5b5061024c61049a366004612cee565b610c58565b3480156104ab57600080fd5b506008545b60405190815260200161026c565b3480156104ca57600080fd5b5061024c6104d9366004612d09565b610ccd565b3480156104ea57600080fd5b506000546001600160a01b0316610295565b34801561050857600080fd5b5061024c610517366004612d22565b610cda565b34801561052857600080fd5b5060025461054f9074010000000000000000000000000000000000000000900461ffff1681565b60405161ffff909116815260200161026c565b34801561056e57600080fd5b50600254610295906001600160a01b031681565b34801561058e57600080fd5b506105a261059d366004612c33565b610f9c565b6040805182518152602092830151928101929092520161026c565b3480156105c957600080fd5b5061024c6105d8366004612d3e565b611229565b3480156105e957600080fd5b506104b06105f8366004612d80565b60016020526000908152604090205481565b34801561061657600080fd5b50610300610625366004612d9d565b611243565b61024c610638366004612d3e565b611404565b34801561064957600080fd5b5061024c610658366004612cee565b611590565b61024c61066b3660046129fe565b61162f565b34801561067c57600080fd5b5061024c61068b366004612cee565b611677565b34801561069c57600080fd5b5061054f6106ab366004612cee565b60036020526000908152604090205461ffff1681565b3480156106cd57600080fd5b5061024c6106dc366004612b85565b6116e5565b3480156106ed57600080fd5b5061024c6106fc366004612cee565b611768565b34801561070d57600080fd5b5061074061071c366004612d80565b6007602052600090815260409020546fffffffffffffffffffffffffffffffff1681565b6040516fffffffffffffffffffffffffffffffff909116815260200161026c565b34801561076d57600080fd5b5061032d61077c366004612e00565b611812565b7f00000000000000000000000000000000000000000000000000000000000000006001600160a01b031633146107ea576040517f91ac5e4f0000000000000000000000000000000000000000000000000000000081523360048201526024015b60405180910390fd5b60208701803590610804906107ff908a612d80565b611848565b1461085b576108166020880188612d80565b6040517fc26bebcc00000000000000000000000000000000000000000000000000000000815263ffffffff9091166004820152602088013560248201526044016107e1565b61086a8787878787878761189d565b50505050505050565b61087b61196c565b61088582826119e0565b5050565b6006602090815260009283526040808420909152908252902080546108ad90612e1c565b80601f01602080910402602001604051908101604052809291908181526020018280546108d990612e1c565b80156109265780601f106108fb57610100808354040283529160200191610926565b820191906000526020600020905b81548152906001019060200180831161090957829003601f168201915b505050505081565b63ffffffff821660009081526001602052604090205481145b92915050565b61095561196c565b63ffffffff821660008181526007602090815260409182902080547fffffffffffffffffffffffffffffffff00000000000000000000000000000000166fffffffffffffffffffffffffffffffff86169081179091558251938452908301527f2de2cdf6b9f29bfb9afedda6cf015c5fcb9832c9c0c3dcc06d501d964cf5653791015b60405180910390a15050565b6005546001600160a01b03163314610a28576040517fc63aab2c00000000000000000000000000000000000000000000000000000000815260040160405180910390fd5b60008167ffffffffffffffff811115610a4357610a43612e69565b604051908082528060200260200182016040528015610a8957816020015b604080518082019091526000815260606020820152815260200190600190039081610a615790505b50905060008060005b84811015610bc95736868683818110610aad57610aad612e98565b9050602002810190610abf9190612ec7565b90506000610ad8610ad36020840184612b85565b611a2e565b6001600160a01b0316630141e41b8a610af46020860186612f05565b6040518463ffffffff1660e01b8152600401610b1293929190612f82565b6000604051808303816000875af1158015610b31573d6000803e3d6000fd5b505050506040513d6000823e601f3d908101601f19168201604052610b5991908101906130b0565b805190915015610bbf576040805180820190915280610b7b6020850185612b85565b61ffff1681526020018290528686610b92816131a2565b975081518110610ba457610ba4612e98565b6020026020010181905250805184610bbc91906131bc565b93505b5050600101610a92565b508115610c27578183526000610bf184836fffffffffffffffffffffffffffffffff16611a87565b90506000610bff8884611bfb565b9050610c238883836040518060400160405280348152602001600081525033611dbc565b5050505b505050505050565b610c3761196c565b610c416000611e4d565b565b6001600160a01b03811630145b949350505050565b610c6061196c565b600580547fffffffffffffffffffffffff0000000000000000000000000000000000000000166001600160a01b0383169081179091556040519081527f5767d79cd17d7554509a4dd59a5a7a9175c7e36466455d7b2fa4788228808579906020015b60405180910390a150565b610cd561196c565b600855565b610ce261196c565b8061ffff16600003610d20576040517fe447547600000000000000000000000000000000000000000000000000000000815260040160405180910390fd5b60025461ffff7401000000000000000000000000000000000000000090910481169082161115610dc957600280547fffffffffffffffffffff0000ffffffffffffffffffffffffffffffffffffffff167401000000000000000000000000000000000000000061ffff8416908102919091179091556040519081527f8f1145f51954bc9512a08693182e170a57b63ca4f6acc321b87c526970f4c0179060200160405180910390a15b6001600160a01b0380831660009081526003602090815260408083205461ffff86811685526004909352922054911691168115610e3a5761ffff8216600090815260046020526040902080547fffffffffffffffffffffffff00000000000000000000000000000000000000001690555b6001600160a01b03811615610e88576001600160a01b038116600090815260036020526040902080547fffffffffffffffffffffffffffffffffffffffffffffffffffffffffffff00001690555b6001600160a01b038416610ed45761ffff8316600090815260046020526040902080547fffffffffffffffffffffffff0000000000000000000000000000000000000000169055610f51565b6001600160a01b038416600081815260036020908152604080832080547fffffffffffffffffffffffffffffffffffffffffffffffffffffffffffff00001661ffff891690811790915583526004909152902080547fffffffffffffffffffffffff00000000000000000000000000000000000000001690911790555b604080516001600160a01b038616815261ffff851660208201527fac53470cf8e9e3d673caa7d47cd7db36c0d38cf37fc147c70c92bc0c1c4734f5910160405180910390a150505050565b604080518082019091526000808252602082015260008267ffffffffffffffff811115610fcb57610fcb612e69565b60405190808252806020026020018201604052801561101157816020015b604080518082019091526000815260606020820152815260200190600190039081610fe95790505b5090506000805b848110156111e15736600087878481811061103557611035612e98565b90506020028101906110479190612ec7565b611055906020810190612f05565b909250905060008167ffffffffffffffff81111561107557611075612e69565b6040519080825280602002602001820160405280156110ba57816020015b60408051808201909152600080825260208201528152602001906001900390816110935790505b5090506110c782866131bc565b945060005b8281101561116e5760405180604001604052808585848181106110f1576110f1612e98565b6111079260206060909202019081019150612d80565b63ffffffff16815260200185858481811061112457611124612e98565b905060600201602001602081019061113c91906131ec565b67ffffffffffffffff1681525082828151811061115b5761115b612e98565b60209081029190910101526001016110cc565b5060405180604001604052808a8a8781811061118c5761118c612e98565b905060200281019061119e9190612ec7565b6111ac906020810190612b85565b61ffff168152602001828152508685815181106111cb576111cb612e98565b6020908102919091010152505050600101611018565b50600061120083836fffffffffffffffffffffffffffffffff16611a87565b9050600061120e8884611bfb565b905061121d8883836000611eb5565b98975050505050505050565b61123161196c565b61088561123e8284613231565b611f96565b63ffffffff8416600090815260066020908152604080832061ffff8716845290915281208054606092919061127790612e1c565b80601f01602080910402602001604051908101604052809291908181526020018280546112a390612e1c565b80156112f05780601f106112c5576101008083540402835291602001916112f0565b820191906000526020600020905b8154815290600101906020018083116112d357829003601f168201915b5050505050905080516000036113405783838080601f016020809104026020016040519081016040528093929190818152602001838380828437600092019190915250929450610c509350505050565b6000839003611350579050610c50565b600283106113ce5761139784848080601f01602080910402602001604051908101604052809392919081815260200183838082843760009201919091525061209d92505050565b806113a5846002818861333d565b6040516020016113b793929190613367565b604051602081830303815290604052915050610c50565b83836040517f9a6d49cd0000000000000000000000000000000000000000000000000000000081526004016107e19291906133ba565b60005b818110156114f6573683838381811061142257611422612e98565b905060200281019061143491906133ce565b90506114506114466020830183612d80565b602083013561092e565b61145a57506114ee565b3063d045a0dc60c08301358360a0810135611479610100830183613402565b61148a610100890160e08a01612cee565b6114986101208a018a613402565b6040518963ffffffff1660e01b81526004016114ba9796959493929190613467565b6000604051808303818588803b1580156114d357600080fd5b505af11580156114e7573d6000803e3d6000fd5b5050505050505b600101611407565b50336001600160a01b0316638e9e70996040518163ffffffff1660e01b8152600401600060405180830381865afa158015611535573d6000803e3d6000fd5b505050506040513d6000823e601f3d908101601f1916820160405261155d91908101906134f0565b6040517f8351eea70000000000000000000000000000000000000000000000000000000081526004016107e19190612b72565b61159861196c565b6040517fca5eb5e10000000000000000000000000000000000000000000000000000000081526001600160a01b0382811660048301527f0000000000000000000000000000000000000000000000000000000000000000169063ca5eb5e190602401600060405180830381600087803b15801561161457600080fd5b505af1158015611628573d6000803e3d6000fd5b5050505050565b333014611668576040517f14d4a4e800000000000000000000000000000000000000000000000000000000815260040160405180910390fd5b61086a8787878787878761085b565b61167f61196c565b600280547fffffffffffffffffffffffff0000000000000000000000000000000000000000166001600160a01b0383169081179091556040519081527fd48d879cef83a1c0bdda516f27b13ddb1b3f8bbac1c9e1511bb2a659c242776090602001610cc2565b6116ed61196c565b600280547fffffffffffffffffffff0000ffffffffffffffffffffffffffffffffffffffff167401000000000000000000000000000000000000000061ffff8416908102919091179091556040519081527f8f1145f51954bc9512a08693182e170a57b63ca4f6acc321b87c526970f4c01790602001610cc2565b61177061196c565b6001600160a01b038116611806576040517f08c379a000000000000000000000000000000000000000000000000000000000815260206004820152602660248201527f4f776e61626c653a206e6577206f776e657220697320746865207a65726f206160448201527f646472657373000000000000000000000000000000000000000000000000000060648201526084016107e1565b61180f81611e4d565b50565b600060208201803590600190839061182a9086612d80565b63ffffffff1681526020810191909152604001600020541492915050565b63ffffffff811660009081526001602052604081205480610947576040517ff6ff4fb700000000000000000000000000000000000000000000000000000000815263ffffffff841660048201526024016107e1565b60006118a986866120e2565b805190915060005b818110156119605760008382815181106118cd576118cd612e98565b602002602001015190506118e48160000151611a2e565b6001600160a01b0316639561b12f6118ff60208e018e612d80565b83602001516040518363ffffffff1660e01b815260040161192192919061355e565b600060405180830381600087803b15801561193b57600080fd5b505af115801561194f573d6000803e3d6000fd5b5050600190930192506118b1915050565b50505050505050505050565b6000546001600160a01b03163314610c41576040517f08c379a000000000000000000000000000000000000000000000000000000000815260206004820181905260248201527f4f776e61626c653a2063616c6c6572206973206e6f7420746865206f776e657260448201526064016107e1565b63ffffffff8216600081815260016020908152604091829020849055815192835282018390527f238399d427b947898edb290f5ff0f9109849b1c3ba196a42e35f00c50a54b98b91016109d8565b61ffff81166000908152600460205260409020546001600160a01b031680611a82576040517f8b6fecb700000000000000000000000000000000000000000000000000000000815260040160405180910390fd5b919050565b81516060906000611a9a600860046135cd565b611aa79060ff16856135e6565b611ab3600260016135cd565b611ac09060ff16846135e6565b611acb9060016135fd565b611ad591906135fd565b9050611af4604051806040016040528060608152602001600081525090565b611afe818361236f565b50611b12611b0b846123e6565b829061247d565b5060005b83811015611bf0576000878281518110611b3257611b32612e98565b60209081029190910101518051909150611b5390849061ffff1660026124e6565b50602081015151611b6d611b66826123e6565b859061247d565b5060005b81811015611be557600083602001518281518110611b9157611b91612e98565b60200260200101519050611bbe816000015163ffffffff16600460ff16886124e69092919063ffffffff16565b506020810151611bdb90879067ffffffffffffffff1660086124e6565b5050600101611b71565b505050600101611b16565b505195945050505050565b6060600082611c098561255b565b611c139190613610565b63ffffffff85166000908152600660209081526040808320600384529091529020805491925090611c4390612e1c565b80601f0160208091040260200160405190810160405280929190818152602001828054611c6f90612e1c565b8015611cbc5780601f10611c9157610100808354040283529160200191611cbc565b820191906000526020600020905b815481529060010190602001808311611c9f57829003601f168201915b505050505091508151600014611cfc578160016011600184604051602001611ce895949392919061363c565b604051602081830303815290604052610c50565b6040517e0300000000000000000000000000000000000000000000000000000000000060208201527f0100000000000000000000000000000000000000000000000000000000000000602282018190527e11000000000000000000000000000000000000000000000000000000000000602383015260258201527fffffffffffffffffffffffffffffffff00000000000000000000000000000000608083901b166026820152603601604051602081830303815290604052949350505050565b611dc461293e565b611dcc6125bd565b6000611ddb8787876000611eb5565b805190915015611e3557611e357f0000000000000000000000000000000000000000000000000000000000000000337f000000000000000000000000000000000000000000000000000000000000000084600001516125f5565b611e42878787848761263d565b979650505050505050565b600080546001600160a01b038381167fffffffffffffffffffffffff0000000000000000000000000000000000000000831681178455604051919092169283917f8be0079c531659141344cd1fd0a4f28419497f9722a3daafe3b4186f6b6457e09190a35050565b60408051808201909152600080825260208201527f00000000000000000000000000000000000000000000000000000000000000006001600160a01b031663ddc28c586040518060a001604052808863ffffffff168152602001611f1889611848565b8152602001878152602001868152602001851515815250306040518363ffffffff1660e01b8152600401611f4d9291906136ed565b6040805180830381865afa158015611f69573d6000803e3d6000fd5b505050506040513d601f19601f82011682018060405250810190611f8d91906137b4565b95945050505050565b60005b815181101561206d57611fc8828281518110611fb757611fb7612e98565b60200260200101516040015161209d565b818181518110611fda57611fda612e98565b60200260200101516040015160066000848481518110611ffc57611ffc612e98565b60200260200101516000015163ffffffff1663ffffffff168152602001908152602001600020600084848151811061203657612036612e98565b60200260200101516020015161ffff1661ffff1681526020019081526020016000209081612064919061381d565b50600101611f99565b507fbe4864a8e820971c0247f5992e2da559595f7bf076a21cb5928d443d2a13b67481604051610cc291906138dd565b600281015161ffff811660031461088557816040517f9a6d49cd0000000000000000000000000000000000000000000000000000000081526004016107e19190612b72565b60606000838360008181106120f9576120f9612e98565b919091013560f81c915081905067ffffffffffffffff81111561211e5761211e612e69565b60405190808252806020026020018201604052801561216457816020015b60408051808201909152600081526060602082015281526020019060019003908161213c5790505b509150600160005b8260ff1681101561232d5760008683876121876002836135fd565b9550612196928692919061333d565b61219f91613986565b60f01c905060008787858181106121b8576121b8612e98565b919091013560f81c91506121cf90506001856135fd565b935060008160ff1667ffffffffffffffff8111156121ef576121ef612e69565b60405190808252806020026020018201604052801561223457816020015b604080518082019091526000808252602082015281526020019060019003908161220d5790505b50905060005b8260ff168110156122eb5760008a878b6122556004836135fd565b9950612264928a92919061333d565b61226d916139cc565b60e01c905060008b888c6122826008836135fd565b9a50612291928b92919061333d565b61229a91613a12565b60c01c905060405180604001604052808363ffffffff1681526020018267ffffffffffffffff168152508484815181106122d6576122d6612e98565b6020908102919091010152505060010161223a565b5060405180604001604052808461ffff1681526020018281525087858151811061231757612317612e98565b602090810291909101015250505060010161216c565b50808414612367576040517fa7272c6200000000000000000000000000000000000000000000000000000000815260040160405180910390fd5b505092915050565b60408051808201909152606081526000602082015261238f602083613a58565b156123b75761239f602083613a58565b6123aa906020613a93565b6123b490836135fd565b91505b6020808401839052604051808552600081529081840101818110156123db57600080fd5b604052509192915050565b600060ff821115612479576040517f08c379a000000000000000000000000000000000000000000000000000000000815260206004820152602560248201527f53616665436173743a2076616c756520646f65736e27742066697420696e203860448201527f206269747300000000000000000000000000000000000000000000000000000060648201526084016107e1565b5090565b60408051808201909152606081526000602082015282515160006124a28260016135fd565b9050846020015182106124c3576124c3856124be8360026135e6565b612716565b84516020838201018581535080518211156124dc578181525b5093949350505050565b604080518082019091526060815260006020820152835151600061250a82856135fd565b9050856020015181111561252757612527866124be8360026135e6565b60006001856101000a039050865182810187831982511617815250805183111561254f578281525b50959695505050505050565b63ffffffff81166000908152600760205260408120546fffffffffffffffffffffffffffffffff1690819003611a82576040517fc960f36b00000000000000000000000000000000000000000000000000000000815260040160405180910390fd5b3415610c41576040517f63a99c1000000000000000000000000000000000000000000000000000000000815260040160405180910390fd5b6126018484848461272d565b612637576040517f7c75c3d200000000000000000000000000000000000000000000000000000000815260040160405180910390fd5b50505050565b61264561293e565b60007f00000000000000000000000000000000000000000000000000000000000000006001600160a01b0316632637a450826040518060a001604052808b63ffffffff1681526020016126978c611848565b81526020018a815260200189815260200160008960200151111515815250866040518463ffffffff1660e01b81526004016126d39291906136ed565b60806040518083038185885af11580156126f1573d6000803e3d6000fd5b50505050506040513d601f19601f82011682018060405250810190611e429190613aa6565b8151612722838361236f565b5061263783826127b8565b604080516001600160a01b0385811660248301528416604482015260648082018490528251808303909101815260849091019091526020810180517bffffffffffffffffffffffffffffffffffffffffffffffffffffffff167f23b872dd00000000000000000000000000000000000000000000000000000000179052600090611f8d9086906127e0565b6040805180820190915260608152600060208201526127d98383845161286d565b9392505050565b6000806000846001600160a01b0316846040516127fd9190613af0565b6000604051808303816000865af19150503d806000811461283a576040519150601f19603f3d011682016040523d82523d6000602084013e61283f565b606091505b509150915081612850576000611f8d565b80511580611f8d575080806020019051810190611f8d9190613b02565b604080518082019091526060815260006020820152825182111561289057600080fd5b835151600061289f84836135fd565b905085602001518111156128bc576128bc866124be8360026135e6565b8551805183820160200191600091808511156128d6578482525b505050602086015b6020861061291657805182526128f56020836135fd565b91506129026020826135fd565b905061290f602087613a93565b95506128de565b51815160001960208890036101000a0190811690199190911617905250849150509392505050565b604051806060016040528060008019168152602001600067ffffffffffffffff168152602001612981604051806040016040528060008152602001600081525090565b905290565b60006060828403121561299857600080fd5b50919050565b60008083601f8401126129b057600080fd5b50813567ffffffffffffffff8111156129c857600080fd5b6020830191508360208285010111156129e057600080fd5b9250929050565b80356001600160a01b0381168114611a8257600080fd5b600080600080600080600060e0888a031215612a1957600080fd5b612a238989612986565b965060608801359550608088013567ffffffffffffffff80821115612a4757600080fd5b612a538b838c0161299e565b9097509550859150612a6760a08b016129e7565b945060c08a0135915080821115612a7d57600080fd5b50612a8a8a828b0161299e565b989b979a50959850939692959293505050565b63ffffffff8116811461180f57600080fd5b60008060408385031215612ac257600080fd5b8235612acd81612a9d565b946020939093013593505050565b803561ffff81168114611a8257600080fd5b60008060408385031215612b0057600080fd5b8235612b0b81612a9d565b9150612b1960208401612adb565b90509250929050565b60005b83811015612b3d578181015183820152602001612b25565b50506000910152565b60008151808452612b5e816020860160208601612b22565b601f01601f19169290920160200192915050565b6020815260006127d96020830184612b46565b600060208284031215612b9757600080fd5b6127d982612adb565b60008060408385031215612bb357600080fd5b8235612bbe81612a9d565b915060208301356fffffffffffffffffffffffffffffffff81168114612be357600080fd5b809150509250929050565b60008083601f840112612c0057600080fd5b50813567ffffffffffffffff811115612c1857600080fd5b6020830191508360208260051b85010111156129e057600080fd5b600080600060408486031215612c4857600080fd5b8335612c5381612a9d565b9250602084013567ffffffffffffffff811115612c6f57600080fd5b612c7b86828701612bee565b9497909650939450505050565b60008060008060a08587031215612c9e57600080fd5b612ca88686612986565b9350606085013567ffffffffffffffff811115612cc457600080fd5b612cd08782880161299e565b9094509250612ce39050608086016129e7565b905092959194509250565b600060208284031215612d0057600080fd5b6127d9826129e7565b600060208284031215612d1b57600080fd5b5035919050565b60008060408385031215612d3557600080fd5b612b0b836129e7565b60008060208385031215612d5157600080fd5b823567ffffffffffffffff811115612d6857600080fd5b612d7485828601612bee565b90969095509350505050565b600060208284031215612d9257600080fd5b81356127d981612a9d565b60008060008060608587031215612db357600080fd5b8435612dbe81612a9d565b9350612dcc60208601612adb565b9250604085013567ffffffffffffffff811115612de857600080fd5b612df48782880161299e565b95989497509550505050565b600060608284031215612e1257600080fd5b6127d98383612986565b600181811c90821680612e3057607f821691505b602082108103612998577f4e487b7100000000000000000000000000000000000000000000000000000000600052602260045260246000fd5b7f4e487b7100000000000000000000000000000000000000000000000000000000600052604160045260246000fd5b7f4e487b7100000000000000000000000000000000000000000000000000000000600052603260045260246000fd5b600082357fffffffffffffffffffffffffffffffffffffffffffffffffffffffffffffffc1833603018112612efb57600080fd5b9190910192915050565b60008083357fffffffffffffffffffffffffffffffffffffffffffffffffffffffffffffffe1843603018112612f3a57600080fd5b83018035915067ffffffffffffffff821115612f5557600080fd5b60200191506060810236038213156129e057600080fd5b67ffffffffffffffff8116811461180f57600080fd5b63ffffffff84811682526040602080840182905283820185905260009260609182860188865b89811015612fff578135612fbb81612a9d565b8516835281840135612fcc81612f6c565b67ffffffffffffffff908116848601528288013590612fea82612f6c565b16838801529185019190850190600101612fa8565b50909a9950505050505050505050565b6040805190810167ffffffffffffffff8111828210171561303257613032612e69565b60405290565b6040516060810167ffffffffffffffff8111828210171561303257613032612e69565b604051601f8201601f1916810167ffffffffffffffff8111828210171561308457613084612e69565b604052919050565b600067ffffffffffffffff8211156130a6576130a6612e69565b5060051b60200190565b600060208083850312156130c357600080fd5b825167ffffffffffffffff8111156130da57600080fd5b8301601f810185136130eb57600080fd5b80516130fe6130f98261308c565b61305b565b81815260069190911b8201830190838101908783111561311d57600080fd5b928401925b82841015611e42576040848903121561313b5760008081fd5b61314361300f565b845161314e81612a9d565b81528486015161315d81612f6c565b8187015282526040939093019290840190613122565b7f4e487b7100000000000000000000000000000000000000000000000000000000600052601160045260246000fd5b600060001982036131b5576131b5613173565b5060010190565b6fffffffffffffffffffffffffffffffff8181168382160190808211156131e5576131e5613173565b5092915050565b6000602082840312156131fe57600080fd5b81356127d981612f6c565b600067ffffffffffffffff82111561322357613223612e69565b50601f01601f191660200190565b600061323f6130f98461308c565b80848252602080830192508560051b85013681111561325d57600080fd5b855b8181101561333157803567ffffffffffffffff808211156132805760008081fd5b8189019150606082360312156132965760008081fd5b61329e613038565b82356132a981612a9d565b81526132b6838701612adb565b86820152604080840135838111156132ce5760008081fd5b939093019236601f8501126132e557600092508283fd5b833592506132f56130f984613209565b838152368885870101111561330a5760008081fd5b8388860189830137600093810188019390935281019190915286525093820193820161325f565b50919695505050505050565b6000808585111561334d57600080fd5b8386111561335a57600080fd5b5050820193919092039150565b60008451613379818460208901612b22565b8201838582376000930192835250909392505050565b818352818160208501375060006020828401015260006020601f19601f840116840101905092915050565b602081526000610c5060208301848661338f565b600082357ffffffffffffffffffffffffffffffffffffffffffffffffffffffffffffffec1833603018112612efb57600080fd5b60008083357fffffffffffffffffffffffffffffffffffffffffffffffffffffffffffffffe184360301811261343757600080fd5b83018035915067ffffffffffffffff82111561345257600080fd5b6020019150368190038213156129e057600080fd5b6000883561347481612a9d565b63ffffffff16825260208981013590830152604089013561349481612f6c565b67ffffffffffffffff811660408401525087606083015260e060808301526134c060e08301878961338f565b6001600160a01b03861660a084015282810360c08401526134e281858761338f565b9a9950505050505050505050565b60006020828403121561350257600080fd5b815167ffffffffffffffff81111561351957600080fd5b8201601f8101841361352a57600080fd5b80516135386130f982613209565b81815285602083850101111561354d57600080fd5b611f8d826020830160208601612b22565b6000604080830163ffffffff808716855260206040602087015282875180855260608801915060208901945060005b818110156135be57855180518616845284015167ffffffffffffffff1684840152948301949186019160010161358d565b50909998505050505050505050565b60ff818116838216019081111561094757610947613173565b808202811582820484141761094757610947613173565b8082018082111561094757610947613173565b6fffffffffffffffffffffffffffffffff81811683821602808216919082811461236757612367613173565b6000865161364e818460208b01612b22565b60f896871b7fff000000000000000000000000000000000000000000000000000000000000009081169390910192835260f09590951b7fffff000000000000000000000000000000000000000000000000000000000000166001830152509190931b909116600382015260809190911b7fffffffffffffffffffffffffffffffff00000000000000000000000000000000166004820152601401919050565b6040815263ffffffff8351166040820152602083015160608201526000604084015160a0608084015261372360e0840182612b46565b905060608501517fffffffffffffffffffffffffffffffffffffffffffffffffffffffffffffffc08483030160a085015261375e8282612b46565b60809690960151151560c08501525050506001600160a01b039190911660209091015290565b60006040828403121561379657600080fd5b61379e61300f565b9050815181526020820151602082015292915050565b6000604082840312156137c657600080fd5b6127d98383613784565b601f821115613818576000816000526020600020601f850160051c810160208610156137f95750805b601f850160051c820191505b81811015610c2757828155600101613805565b505050565b815167ffffffffffffffff81111561383757613837612e69565b61384b816138458454612e1c565b846137d0565b602080601f83116001811461388057600084156138685750858301515b600019600386901b1c1916600185901b178555610c27565b600085815260208120601f198616915b828110156138af57888601518255948401946001909101908401613890565b50858210156138cd5787850151600019600388901b60f8161c191681555b5050505050600190811b01905550565b600060208083018184528085518083526040925060408601915060408160051b87010184880160005b83811015613978578883037fffffffffffffffffffffffffffffffffffffffffffffffffffffffffffffffc00185528151805163ffffffff1684528781015161ffff1688850152860151606087850181905261396481860183612b46565b968901969450505090860190600101613906565b509098975050505050505050565b7fffff00000000000000000000000000000000000000000000000000000000000081358181169160028510156123675760029490940360031b84901b1690921692915050565b7fffffffff0000000000000000000000000000000000000000000000000000000081358181169160048510156123675760049490940360031b84901b1690921692915050565b7fffffffffffffffff00000000000000000000000000000000000000000000000081358181169160088510156123675760089490940360031b84901b1690921692915050565b600082613a8e577f4e487b7100000000000000000000000000000000000000000000000000000000600052601260045260246000fd5b500690565b8181038181111561094757610947613173565b600060808284031215613ab857600080fd5b613ac0613038565b825181526020830151613ad281612f6c565b6020820152613ae48460408501613784565b60408201529392505050565b60008251612efb818460208701612b22565b600060208284031215613b1457600080fd5b815180151581146127d957600080fdfea264697066735822122010a81a249895f34cbd5a482f9e02ce8754e67db47529b7fc0acba8cab73a8cef64736f6c63430008160033",
  "devdoc": {
    "details": "Funds the endpoint with the ALT fee token and forces msg.value to be zero.",
    "errors": {
      "MessagingOptions_ZeroGasLimit()": [
        {
          "details": "Zero gas limit is considered not set."
        }
      ]
    },
    "events": {
      "GasLimitSet(uint32,uint128)": {
        "params": {
          "eid": "The LayerZero endpoint ID.",
          "gasLimit": "The base gas limit for the destination endpoint."
        }
      },
      "PreCrimeSet(address)": {
        "details": "Emitted when the preCrime contract address is set.",
        "params": {
          "preCrimeAddress": "The address of the preCrime contract."
        }
      }
    },
    "kind": "dev",
    "methods": {
      "allowInitializePath((uint32,bytes32,uint64))": {
        "details": "This indicates to the endpoint that the OApp has enabled msgs for this particular path to be received.This defaults to assuming if a peer has been set, its initialized. Can be overridden by the OApp if there is other logic to determine this.",
        "params": {
          "origin": "The origin information containing the source endpoint and sender address."
        },
        "returns": {
          "_0": "Whether the path has been initialized."
        }
      },
      "combineOptions(uint32,uint16,bytes)": {
        "details": "If there is an enforced lzReceive option: - {gasLimit: 200k, msg.value: 1 ether} AND a caller supplies a lzReceive option: {gasLimit: 100k, msg.value: 0.5 ether} - The resulting options will be {gasLimit: 300k, msg.value: 1.5 ether} when the message is executed on the remote lzReceive() function.This presence of duplicated options is handled off-chain in the verifier/executor.",
        "params": {
          "_eid": "The endpoint ID.",
          "_extraOptions": "Additional options passed by the caller.",
          "_msgType": "The OAPP message type."
        },
        "returns": {
          "_0": "options The combination of caller specified options AND enforced options."
        }
      },
      "isComposeMsgSender((uint32,bytes32,uint64),bytes,address)": {
        "details": "_origin The origin information containing the source endpoint and sender address.  - srcEid: The source chain endpoint ID.  - sender: The sender address on the src chain.  - nonce: The nonce of the message._message The lzReceive payload.Applications can optionally choose to implement separate composeMsg senders that are NOT the bridging layer.The default sender IS the OAppReceiver implementer.",
        "params": {
          "_sender": "The sender address."
        },
        "returns": {
          "_0": "isSender Is a valid sender."
        }
      },
      "isPeer(uint32,bytes32)": {
        "details": "checks if the specified peer is considered 'trusted' by the OApp.",
        "params": {
          "_eid": "The endpoint Id to check.",
          "_peer": "The peer to check."
        },
        "returns": {
          "_0": "Whether the peer passed is considered 'trusted' by the OApp."
        }
      },
      "lzReceive((uint32,bytes32,uint64),bytes32,bytes,address,bytes)": {
        "details": "Entry point for receiving messages or packets from the endpoint.Entry point for receiving msg/packet from the LayerZero endpoint.",
        "params": {
          "_executor": "The address of the executor for the received message.",
          "_extraData": "Additional arbitrary data provided by the corresponding executor.",
          "_guid": "The unique identifier for the received LayerZero message.",
          "_message": "The payload of the received message.",
          "_origin": "The origin information containing the source endpoint and sender address.  - srcEid: The source chain endpoint ID.  - sender: The sender address on the src chain.  - nonce: The nonce of the message."
        }
      },
      "lzReceiveAndRevert(((uint32,bytes32,uint64),uint32,address,bytes32,uint256,address,bytes,bytes)[])": {
        "details": "Interface for pre-crime simulations. Always reverts at the end with the simulation results.WARNING: MUST revert at the end with the simulation results.Gives the preCrime implementation the ability to mock sending packets to the lzReceive function, WITHOUT actually executing them.",
        "params": {
          "_packets": "An array of InboundPacket objects representing received packets to be delivered."
        }
      },
      "lzReceiveSimulate((uint32,bytes32,uint64),bytes32,bytes,address,bytes)": {
        "details": "Is effectively an internal function because msg.sender must be address(this). Allows resetting the call stack for 'internal' calls.",
        "params": {
          "_executor": "The executor address for the packet.",
          "_extraData": "Additional data for the packet.",
          "_guid": "The unique identifier of the packet.",
          "_message": "The message payload of the packet.",
          "_origin": "The origin information containing the source endpoint and sender address.  - srcEid: The source chain endpoint ID.  - sender: The sender address on the src chain.  - nonce: The nonce of the message."
        }
      },
      "nextNonce(uint32,bytes32)": {
        "details": "_srcEid The source endpoint ID._sender The sender address.The path nonce starts from 1. If 0 is returned it means that there is NO nonce ordered enforcement.Is required by the off-chain executor to determine the OApp expects msg execution is ordered.This is also enforced by the OApp.By default this is NOT enabled. ie. nextNonce is hardcoded to return 0.",
        "returns": {
          "nonce": "The next nonce."
        }
      },
      "oApp()": {
        "details": "Retrieves the address of the OApp contract.The simulator contract is the base contract for the OApp by default.If the simulator is a separate contract, override this function.",
        "returns": {
          "_0": "The address of the OApp contract."
        }
      },
      "oAppVersion()": {
        "returns": {
          "receiverVersion": "The version of the OAppReceiver.sol implementation.",
          "senderVersion": "The version of the OAppSender.sol implementation."
        }
      },
      "owner()": {
        "details": "Returns the address of the current owner."
      },
      "quoteSendCredits(uint32,(uint16,(uint32,uint64,uint64)[])[])": {
        "params": {
          "_creditBatches": "The credit batch payloads to send to the destination LayerZero endpoint ID.",
          "_dstEid": "The destination LayerZero endpoint ID."
        },
        "returns": {
          "fee": "The fee for sending the credits to the destination endpoint."
        }
      },
      "renounceOwnership()": {
        "details": "Leaves the contract without owner. It will not be possible to call `onlyOwner` functions. Can only be called by the current owner. NOTE: Renouncing ownership will leave the contract without an owner, thereby disabling any functionality that is only available to the owner."
      },
      "sendCredits(uint32,(uint16,(uint32,uint64,uint64)[])[])": {
        "params": {
          "_creditBatches": "The credit batch payloads to send to the destination LayerZero endpoint ID.",
          "_dstEid": "The destination LayerZero endpoint ID."
        }
      },
      "setDelegate(address)": {
        "details": "Only the owner/admin of the OApp can call this function.Provides the ability for a delegate to set configs, on behalf of the OApp, directly on the Endpoint contract.",
        "params": {
          "_delegate": "The address of the delegate to be set."
        }
      },
      "setEnforcedOptions((uint32,uint16,bytes)[])": {
        "details": "Sets the enforced options for specific endpoint and message type combinations.Only the owner/admin of the OApp can call this function.Provides a way for the OApp to enforce things like paying for PreCrime, AND/OR minimum dst lzReceive gas amounts etc.These enforced options can vary as the potential options/execution on the remote may differ as per the msgType. eg. Amount of lzReceive() gas necessary to deliver a lzCompose() message adds overhead you dont want to pay if you are only making a standard LayerZero message ie. lzReceive() WITHOUT sendCompose().",
        "params": {
          "_enforcedOptions": "An array of EnforcedOptionParam structures specifying enforced options."
        }
      },
      "setGasLimit(uint32,uint128)": {
        "params": {
          "_eid": "The LayerZero endpoint ID.",
          "_gasLimit": "The base gas limit for the destination endpoint."
        }
      },
      "setMaxAssetId(uint16)": {
        "details": "Update the max asset id manually if it is not set correctly"
      },
      "setPeer(uint32,bytes32)": {
        "details": "Only the owner/admin of the OApp can call this function.Indicates that the peer is trusted to send LayerZero messages to this OApp.Set this to bytes32(0) to remove the peer address.Peer is a bytes32 to accommodate non-evm chains.",
        "params": {
          "_eid": "The endpoint ID.",
          "_peer": "The address of the peer to be associated with the corresponding endpoint."
        }
      },
      "setPreCrime(address)": {
        "details": "Sets the preCrime contract address.",
        "params": {
          "_preCrime": "The address of the preCrime contract."
        }
      },
      "transferOwnership(address)": {
        "details": "Transfers ownership of the contract to a new account (`newOwner`). Can only be called by the current owner."
      }
    },
    "version": 1
  },
  "userdoc": {
    "errors": {
      "MessagingOptions_ZeroGasLimit()": [
        {
          "notice": "Error message for when the gas limit is not set for a given endpoint."
        }
      ]
    },
    "events": {
      "GasLimitSet(uint32,uint128)": {
        "notice": "Event emitted when the gas limit is set for a given endpoint."
      }
    },
    "kind": "user",
    "methods": {
      "allowInitializePath((uint32,bytes32,uint64))": {
        "notice": "Checks if the path initialization is allowed based on the provided origin."
      },
      "combineOptions(uint32,uint16,bytes)": {
        "notice": "Combines options for a given endpoint and message type."
      },
      "endpoint()": {
        "notice": "Retrieves the LayerZero endpoint associated with the OApp."
      },
      "feeToken()": {
        "notice": "ERC20 token used by EndpointV2Alt as the \"native\" fee token on this chain."
      },
      "isComposeMsgSender((uint32,bytes32,uint64),bytes,address)": {
        "notice": "Indicates whether an address is an approved composeMsg sender to the Endpoint."
      },
      "nextNonce(uint32,bytes32)": {
        "notice": "Retrieves the next nonce for a given source endpoint and sender address."
      },
      "oAppVersion()": {
        "notice": "Retrieves the OApp version information."
      },
      "peers(uint32)": {
        "notice": "Retrieves the peer (OApp) associated with a corresponding endpoint."
      },
      "quoteSendCredits(uint32,(uint16,(uint32,uint64,uint64)[])[])": {
        "notice": "Quotes the fee for sending credits to the destination endpoint."
      },
      "sendCredits(uint32,(uint16,(uint32,uint64,uint64)[])[])": {
        "notice": "Sends credits to the destination endpoint."
      },
      "setDelegate(address)": {
        "notice": "Sets the delegate address for the OApp."
      },
      "setGasLimit(uint32,uint128)": {
        "notice": "Sets the base gas limit for a specific endpoint.  Sending a LayerZero message takes some constant amount of base gas regardless of the number of credits being sent in a particular message.  This function allows the CreditMessaging OApp to set the base gas limit."
      },
      "setPeer(uint32,bytes32)": {
        "notice": "Sets the peer address (OApp instance) for a corresponding endpoint."
      }
    },
    "notice": "CreditMessaging variant for EndpointV2Alt chains where the \"native\" messaging fee is an ERC20 token.",
    "version": 1
  },
  "storageLayout": {
    "storage": [
      {
        "astId": 6618,
        "contract": "src/messaging/CreditMessagingAlt.sol:CreditMessagingAlt",
        "label": "_owner",
        "offset": 0,
        "slot": "0",
        "type": "t_address"
      },
      {
        "astId": 487,
        "contract": "src/messaging/CreditMessagingAlt.sol:CreditMessagingAlt",
        "label": "peers",
        "offset": 0,
        "slot": "1",
        "type": "t_mapping(t_uint32,t_bytes32)"
      },
      {
        "astId": 1556,
        "contract": "src/messaging/CreditMessagingAlt.sol:CreditMessagingAlt",
        "label": "preCrime",
        "offset": 0,
        "slot": "2",
        "type": "t_address"
      },
      {
        "astId": 19198,
        "contract": "src/messaging/CreditMessagingAlt.sol:CreditMessagingAlt",
        "label": "maxAssetId",
        "offset": 20,
        "slot": "2",
        "type": "t_uint16"
      },
      {
        "astId": 19202,
        "contract": "src/messaging/CreditMessagingAlt.sol:CreditMessagingAlt",
        "label": "assetIds",
        "offset": 0,
        "slot": "3",
        "type": "t_mapping(t_address,t_uint16)"
      },
      {
        "astId": 19206,
        "contract": "src/messaging/CreditMessagingAlt.sol:CreditMessagingAlt",
        "label": "stargateImpls",
        "offset": 0,
        "slot": "4",
        "type": "t_mapping(t_uint16,t_address)"
      },
      {
        "astId": 19208,
        "contract": "src/messaging/CreditMessagingAlt.sol:CreditMessagingAlt",
        "label": "planner",
        "offset": 0,
        "slot": "5",
        "type": "t_address"
      },
      {
        "astId": 1083,
        "contract": "src/messaging/CreditMessagingAlt.sol:CreditMessagingAlt",
        "label": "enforcedOptions",
        "offset": 0,
        "slot": "6",
        "type": "t_mapping(t_uint32,t_mapping(t_uint16,t_bytes_storage))"
      },
      {
        "astId": 19079,
        "contract": "src/messaging/CreditMessagingAlt.sol:CreditMessagingAlt",
        "label": "gasLimits",
        "offset": 0,
        "slot": "7",
        "type": "t_mapping(t_uint32,t_uint128)"
      },
      {
        "astId": 18188,
        "contract": "src/messaging/CreditMessagingAlt.sol:CreditMessagingAlt",
        "label": "transferGasLimit",
        "offset": 0,
        "slot": "8",
        "type": "t_uint256"
      }
    ],
    "types": {
      "t_address": {
        "encoding": "inplace",
        "label": "address",
        "numberOfBytes": "20"
      },
      "t_bytes32": {
        "encoding": "inplace",
        "label": "bytes32",
        "numberOfBytes": "32"
      },
      "t_bytes_storage": {
        "encoding": "bytes",
        "label": "bytes",
        "numberOfBytes": "32"
      },
      "t_mapping(t_address,t_uint16)": {
        "encoding": "mapping",
        "key": "t_address",
        "label": "mapping(address => uint16)",
        "numberOfBytes": "32",
        "value": "t_uint16"
      },
      "t_mapping(t_uint16,t_address)": {
        "encoding": "mapping",
        "key": "t_uint16",
        "label": "mapping(uint16 => address)",
        "numberOfBytes": "32",
        "value": "t_address"
      },
      "t_mapping(t_uint16,t_bytes_storage)": {
        "encoding": "mapping",
        "key": "t_uint16",
        "label": "mapping(uint16 => bytes)",
        "numberOfBytes": "32",
        "value": "t_bytes_storage"
      },
      "t_mapping(t_uint32,t_bytes32)": {
        "encoding": "mapping",
        "key": "t_uint32",
        "label": "mapping(uint32 => bytes32)",
        "numberOfBytes": "32",
        "value": "t_bytes32"
      },
      "t_mapping(t_uint32,t_mapping(t_uint16,t_bytes_storage))": {
        "encoding": "mapping",
        "key": "t_uint32",
        "label": "mapping(uint32 => mapping(uint16 => bytes))",
        "numberOfBytes": "32",
        "value": "t_mapping(t_uint16,t_bytes_storage)"
      },
      "t_mapping(t_uint32,t_uint128)": {
        "encoding": "mapping",
        "key": "t_uint32",
        "label": "mapping(uint32 => uint128)",
        "numberOfBytes": "32",
        "value": "t_uint128"
      },
      "t_uint128": {
        "encoding": "inplace",
        "label": "uint128",
        "numberOfBytes": "16"
      },
      "t_uint16": {
        "encoding": "inplace",
        "label": "uint16",
        "numberOfBytes": "2"
      },
      "t_uint256": {
        "encoding": "inplace",
        "label": "uint256",
        "numberOfBytes": "32"
      },
      "t_uint32": {
        "encoding": "inplace",
        "label": "uint32",
        "numberOfBytes": "4"
      }
    }
  }
}