{
  "address": "0xc52Ab442fEa4f84C84EF36AB23c622B9E5F4Bcfd",
  "abi": [
    {
      "inputs": [
        {
          "internalType": "address",
          "name": "_token",
          "type": "address"
        },
        {
          "internalType": "uint8",
          "name": "_sharedDecimals",
          "type": "uint8"
        },
        {
          "internalType": "address",
          "name": "_endpoint",
          "type": "address"
        },
        {
          "internalType": "address",
          "name": "_owner",
          "type": "address"
        }
      ],
      "stateMutability": "nonpayable",
      "type": "constructor"
    },
    {
      "inputs": [],
      "name": "InvalidLocalDecimals",
      "type": "error"
    },
    {
      "inputs": [],
      "name": "Path_AlreadyHasCredit",
      "type": "error"
    },
    {
      "inputs": [],
      "name": "Path_InsufficientCredit",
      "type": "error"
    },
    {
      "inputs": [],
      "name": "Path_UnlimitedCredit",
      "type": "error"
    },
    {
      "inputs": [
        {
          "internalType": "uint256",
          "name": "amountLD",
          "type": "uint256"
        },
        {
          "internalType": "uint256",
          "name": "minAmountLD",
          "type": "uint256"
        }
      ],
      "name": "SlippageExceeded",
      "type": "error"
    },
    {
      "inputs": [],
      "name": "Stargate_BusNotAllowedInAlt",
      "type": "error"
    },
    {
      "inputs": [],
      "name": "Stargate_InsufficientFare",
      "type": "error"
    },
    {
      "inputs": [],
      "name": "Stargate_InvalidAmount",
      "type": "error"
    },
    {
      "inputs": [],
      "name": "Stargate_InvalidPath",
      "type": "error"
    },
    {
      "inputs": [],
      "name": "Stargate_InvalidTokenDecimals",
      "type": "error"
    },
    {
      "inputs": [],
      "name": "Stargate_LzTokenUnavailable",
      "type": "error"
    },
    {
      "inputs": [],
      "name": "Stargate_NotAnAltEndpoint",
      "type": "error"
    },
    {
      "inputs": [],
      "name": "Stargate_OnlyAltToken",
      "type": "error"
    },
    {
      "inputs": [],
      "name": "Stargate_OutflowFailed",
      "type": "error"
    },
    {
      "inputs": [],
      "name": "Stargate_Paused",
      "type": "error"
    },
    {
      "inputs": [],
      "name": "Stargate_RecoverTokenUnsupported",
      "type": "error"
    },
    {
      "inputs": [],
      "name": "Stargate_ReentrantCall",
      "type": "error"
    },
    {
      "inputs": [],
      "name": "Stargate_SlippageTooHigh",
      "type": "error"
    },
    {
      "inputs": [],
      "name": "Stargate_Unauthorized",
      "type": "error"
    },
    {
      "inputs": [],
      "name": "Stargate_UnreceivedTokenNotFound",
      "type": "error"
    },
    {
      "inputs": [],
      "name": "Transfer_ApproveFailed",
      "type": "error"
    },
    {
      "inputs": [],
      "name": "Transfer_TransferFailed",
      "type": "error"
    },
    {
      "anonymous": false,
      "inputs": [
        {
          "components": [
            {
              "internalType": "address",
              "name": "feeLib",
              "type": "address"
            },
            {
              "internalType": "address",
              "name": "planner",
              "type": "address"
            },
            {
              "internalType": "address",
              "name": "treasurer",
              "type": "address"
            },
            {
              "internalType": "address",
              "name": "tokenMessaging",
              "type": "address"
            },
            {
              "internalType": "address",
              "name": "creditMessaging",
              "type": "address"
            },
            {
              "internalType": "address",
              "name": "lzToken",
              "type": "address"
            }
          ],
          "indexed": false,
          "internalType": "struct StargateBase.AddressConfig",
          "name": "config",
          "type": "tuple"
        }
      ],
      "name": "AddressConfigSet",
      "type": "event"
    },
    {
      "anonymous": false,
      "inputs": [
        {
          "indexed": false,
          "internalType": "uint32",
          "name": "srcEid",
          "type": "uint32"
        },
        {
          "components": [
            {
              "internalType": "uint32",
              "name": "srcEid",
              "type": "uint32"
            },
            {
              "internalType": "uint64",
              "name": "amount",
              "type": "uint64"
            }
          ],
          "indexed": false,
          "internalType": "struct Credit[]",
          "name": "credits",
          "type": "tuple[]"
        }
      ],
      "name": "CreditsReceived",
      "type": "event"
    },
    {
      "anonymous": false,
      "inputs": [
        {
          "indexed": false,
          "internalType": "uint32",
          "name": "dstEid",
          "type": "uint32"
        },
        {
          "components": [
            {
              "internalType": "uint32",
              "name": "srcEid",
              "type": "uint32"
            },
            {
              "internalType": "uint64",
              "name": "amount",
              "type": "uint64"
            }
          ],
          "indexed": false,
          "internalType": "struct Credit[]",
          "name": "credits",
          "type": "tuple[]"
        }
      ],
      "name": "CreditsSent",
      "type": "event"
    },
    {
      "anonymous": false,
      "inputs": [
        {
          "indexed": false,
          "internalType": "uint32",
          "name": "dstEid",
          "type": "uint32"
        },
        {
          "indexed": false,
          "internalType": "bool",
          "name": "oft",
          "type": "bool"
        }
      ],
      "name": "OFTPathSet",
      "type": "event"
    },
    {
      "anonymous": false,
      "inputs": [
        {
          "indexed": true,
          "internalType": "bytes32",
          "name": "guid",
          "type": "bytes32"
        },
        {
          "indexed": false,
          "internalType": "uint32",
          "name": "srcEid",
          "type": "uint32"
        },
        {
          "indexed": true,
          "internalType": "address",
          "name": "toAddress",
          "type": "address"
        },
        {
          "indexed": false,
          "internalType": "uint256",
          "name": "amountReceivedLD",
          "type": "uint256"
        }
      ],
      "name": "OFTReceived",
      "type": "event"
    },
    {
      "anonymous": false,
      "inputs": [
        {
          "indexed": true,
          "internalType": "bytes32",
          "name": "guid",
          "type": "bytes32"
        },
        {
          "indexed": false,
          "internalType": "uint32",
          "name": "dstEid",
          "type": "uint32"
        },
        {
          "indexed": true,
          "internalType": "address",
          "name": "fromAddress",
          "type": "address"
        },
        {
          "indexed": false,
          "internalType": "uint256",
          "name": "amountSentLD",
          "type": "uint256"
        },
        {
          "indexed": false,
          "internalType": "uint256",
          "name": "amountReceivedLD",
          "type": "uint256"
        }
      ],
      "name": "OFTSent",
      "type": "event"
    },
    {
      "anonymous": false,
      "inputs": [
        {
          "indexed": true,
          "internalType": "address",
          "name": "previousOwner",
          "type": "address"
        },
        {
          "indexed": true,
          "internalType": "address",
          "name": "newOwner",
          "type": "address"
        }
      ],
      "name": "OwnershipTransferred",
      "type": "event"
    },
    {
      "anonymous": false,
      "inputs": [
        {
          "indexed": false,
          "internalType": "bool",
          "name": "paused",
          "type": "bool"
        }
      ],
      "name": "PauseSet",
      "type": "event"
    },
    {
      "anonymous": false,
      "inputs": [
        {
          "indexed": false,
          "internalType": "uint256",
          "name": "amount",
          "type": "uint256"
        }
      ],
      "name": "PlannerFeeWithdrawn",
      "type": "event"
    },
    {
      "anonymous": false,
      "inputs": [
        {
          "indexed": false,
          "internalType": "uint64",
          "name": "amountSD",
          "type": "uint64"
        }
      ],
      "name": "TreasuryFeeAdded",
      "type": "event"
    },
    {
      "anonymous": false,
      "inputs": [
        {
          "indexed": false,
          "internalType": "address",
          "name": "to",
          "type": "address"
        },
        {
          "indexed": false,
          "internalType": "uint64",
          "name": "amountSD",
          "type": "uint64"
        }
      ],
      "name": "TreasuryFeeWithdrawn",
      "type": "event"
    },
    {
      "anonymous": false,
      "inputs": [
        {
          "indexed": false,
          "internalType": "bytes32",
          "name": "guid",
          "type": "bytes32"
        },
        {
          "indexed": false,
          "internalType": "uint8",
          "name": "index",
          "type": "uint8"
        },
        {
          "indexed": false,
          "internalType": "uint32",
          "name": "srcEid",
          "type": "uint32"
        },
        {
          "indexed": false,
          "internalType": "address",
          "name": "receiver",
          "type": "address"
        },
        {
          "indexed": false,
          "internalType": "uint256",
          "name": "amountLD",
          "type": "uint256"
        },
        {
          "indexed": false,
          "internalType": "bytes",
          "name": "composeMsg",
          "type": "bytes"
        }
      ],
      "name": "UnreceivedTokenCached",
      "type": "event"
    },
    {
      "inputs": [
        {
          "internalType": "uint256",
          "name": "_amountLD",
          "type": "uint256"
        }
      ],
      "name": "addTreasuryFee",
      "outputs": [],
      "stateMutability": "payable",
      "type": "function"
    },
    {
      "inputs": [],
      "name": "approvalRequired",
      "outputs": [
        {
          "internalType": "bool",
          "name": "",
          "type": "bool"
        }
      ],
      "stateMutability": "pure",
      "type": "function"
    },
    {
      "inputs": [],
      "name": "endpoint",
      "outputs": [
        {
          "internalType": "contract ILayerZeroEndpointV2",
          "name": "",
          "type": "address"
        }
      ],
      "stateMutability": "view",
      "type": "function"
    },
    {
      "inputs": [],
      "name": "feeToken",
      "outputs": [
        {
          "internalType": "address",
          "name": "",
          "type": "address"
        }
      ],
      "stateMutability": "view",
      "type": "function"
    },
    {
      "inputs": [],
      "name": "getAddressConfig",
      "outputs": [
        {
          "components": [
            {
              "internalType": "address",
              "name": "feeLib",
              "type": "address"
            },
            {
              "internalType": "address",
              "name": "planner",
              "type": "address"
            },
            {
              "internalType": "address",
              "name": "treasurer",
              "type": "address"
            },
            {
              "internalType": "address",
              "name": "tokenMessaging",
              "type": "address"
            },
            {
              "internalType": "address",
              "name": "creditMessaging",
              "type": "address"
            },
            {
              "internalType": "address",
              "name": "lzToken",
              "type": "address"
            }
          ],
          "internalType": "struct StargateBase.AddressConfig",
          "name": "",
          "type": "tuple"
        }
      ],
      "stateMutability": "view",
      "type": "function"
    },
    {
      "inputs": [],
      "name": "getTransferGasLimit",
      "outputs": [
        {
          "internalType": "uint256",
          "name": "",
          "type": "uint256"
        }
      ],
      "stateMutability": "view",
      "type": "function"
    },
    {
      "inputs": [],
      "name": "localEid",
      "outputs": [
        {
          "internalType": "uint32",
          "name": "",
          "type": "uint32"
        }
      ],
      "stateMutability": "view",
      "type": "function"
    },
    {
      "inputs": [],
      "name": "oftVersion",
      "outputs": [
        {
          "internalType": "bytes4",
          "name": "interfaceId",
          "type": "bytes4"
        },
        {
          "internalType": "uint64",
          "name": "version",
          "type": "uint64"
        }
      ],
      "stateMutability": "pure",
      "type": "function"
    },
    {
      "inputs": [],
      "name": "owner",
      "outputs": [
        {
          "internalType": "address",
          "name": "",
          "type": "address"
        }
      ],
      "stateMutability": "view",
      "type": "function"
    },
    {
      "inputs": [
        {
          "internalType": "uint32",
          "name": "eid",
          "type": "uint32"
        }
      ],
      "name": "paths",
      "outputs": [
        {
          "internalType": "uint64",
          "name": "credit",
          "type": "uint64"
        }
      ],
      "stateMutability": "view",
      "type": "function"
    },
    {
      "inputs": [],
      "name": "plannerFee",
      "outputs": [
        {
          "internalType": "uint256",
          "name": "available",
          "type": "uint256"
        }
      ],
      "stateMutability": "view",
      "type": "function"
    },
    {
      "inputs": [
        {
          "components": [
            {
              "internalType": "uint32",
              "name": "dstEid",
              "type": "uint32"
            },
            {
              "internalType": "bytes32",
              "name": "to",
              "type": "bytes32"
            },
            {
              "internalType": "uint256",
              "name": "amountLD",
              "type": "uint256"
            },
            {
              "internalType": "uint256",
              "name": "minAmountLD",
              "type": "uint256"
            },
            {
              "internalType": "bytes",
              "name": "extraOptions",
              "type": "bytes"
            },
            {
              "internalType": "bytes",
              "name": "composeMsg",
              "type": "bytes"
            },
            {
              "internalType": "bytes",
              "name": "oftCmd",
              "type": "bytes"
            }
          ],
          "internalType": "struct SendParam",
          "name": "_sendParam",
          "type": "tuple"
        }
      ],
      "name": "quoteOFT",
      "outputs": [
        {
          "components": [
            {
              "internalType": "uint256",
              "name": "minAmountLD",
              "type": "uint256"
            },
            {
              "internalType": "uint256",
              "name": "maxAmountLD",
              "type": "uint256"
            }
          ],
          "internalType": "struct OFTLimit",
          "name": "limit",
          "type": "tuple"
        },
        {
          "components": [
            {
              "internalType": "int256",
              "name": "feeAmountLD",
              "type": "int256"
            },
            {
              "internalType": "string",
              "name": "description",
              "type": "string"
            }
          ],
          "internalType": "struct OFTFeeDetail[]",
          "name": "oftFeeDetails",
          "type": "tuple[]"
        },
        {
          "components": [
            {
              "internalType": "uint256",
              "name": "amountSentLD",
              "type": "uint256"
            },
            {
              "internalType": "uint256",
              "name": "amountReceivedLD",
              "type": "uint256"
            }
          ],
          "internalType": "struct OFTReceipt",
          "name": "receipt",
          "type": "tuple"
        }
      ],
      "stateMutability": "view",
      "type": "function"
    },
    {
      "inputs": [
        {
          "components": [
            {
              "internalType": "uint32",
              "name": "dstEid",
              "type": "uint32"
            },
            {
              "internalType": "bytes32",
              "name": "to",
              "type": "bytes32"
            },
            {
              "internalType": "uint256",
              "name": "amountLD",
              "type": "uint256"
            },
            {
              "internalType": "uint256",
              "name": "minAmountLD",
              "type": "uint256"
            },
            {
              "internalType": "bytes",
              "name": "extraOptions",
              "type": "bytes"
            },
            {
              "internalType": "bytes",
              "name": "composeMsg",
              "type": "bytes"
            },
            {
              "internalType": "bytes",
              "name": "oftCmd",
              "type": "bytes"
            }
          ],
          "internalType": "struct SendParam",
          "name": "_sendParam",
          "type": "tuple"
        },
        {
          "internalType": "bool",
          "name": "_payInLzToken",
          "type": "bool"
        }
      ],
      "name": "quoteSend",
      "outputs": [
        {
          "components": [
            {
              "internalType": "uint256",
              "name": "nativeFee",
              "type": "uint256"
            },
            {
              "internalType": "uint256",
              "name": "lzTokenFee",
              "type": "uint256"
            }
          ],
          "internalType": "struct MessagingFee",
          "name": "fee",
          "type": "tuple"
        }
      ],
      "stateMutability": "view",
      "type": "function"
    },
    {
      "inputs": [
        {
          "internalType": "uint32",
          "name": "_srcEid",
          "type": "uint32"
        },
        {
          "components": [
            {
              "internalType": "uint32",
              "name": "srcEid",
              "type": "uint32"
            },
            {
              "internalType": "uint64",
              "name": "amount",
              "type": "uint64"
            }
          ],
          "internalType": "struct Credit[]",
          "name": "_credits",
          "type": "tuple[]"
        }
      ],
      "name": "receiveCredits",
      "outputs": [],
      "stateMutability": "nonpayable",
      "type": "function"
    },
    {
      "inputs": [
        {
          "components": [
            {
              "internalType": "uint32",
              "name": "srcEid",
              "type": "uint32"
            },
            {
              "internalType": "bytes32",
              "name": "sender",
              "type": "bytes32"
            },
            {
              "internalType": "uint64",
              "name": "nonce",
              "type": "uint64"
            }
          ],
          "internalType": "struct Origin",
          "name": "_origin",
          "type": "tuple"
        },
        {
          "internalType": "bytes32",
          "name": "_guid",
          "type": "bytes32"
        },
        {
          "internalType": "uint8",
          "name": "_seatNumber",
          "type": "uint8"
        },
        {
          "internalType": "address",
          "name": "_receiver",
          "type": "address"
        },
        {
          "internalType": "uint64",
          "name": "_amountSD",
          "type": "uint64"
        }
      ],
      "name": "receiveTokenBus",
      "outputs": [],
      "stateMutability": "nonpayable",
      "type": "function"
    },
    {
      "inputs": [
        {
          "components": [
            {
              "internalType": "uint32",
              "name": "srcEid",
              "type": "uint32"
            },
            {
              "internalType": "bytes32",
              "name": "sender",
              "type": "bytes32"
            },
            {
              "internalType": "uint64",
              "name": "nonce",
              "type": "uint64"
            }
          ],
          "internalType": "struct Origin",
          "name": "_origin",
          "type": "tuple"
        },
        {
          "internalType": "bytes32",
          "name": "_guid",
          "type": "bytes32"
        },
        {
          "internalType": "address",
          "name": "_receiver",
          "type": "address"
        },
        {
          "internalType": "uint64",
          "name": "_amountSD",
          "type": "uint64"
        },
        {
          "internalType": "bytes",
          "name": "_composeMsg",
          "type": "bytes"
        }
      ],
      "name": "receiveTokenTaxi",
      "outputs": [],
      "stateMutability": "nonpayable",
      "type": "function"
    },
    {
      "inputs": [
        {
          "internalType": "address",
          "name": "_token",
          "type": "address"
        },
        {
          "internalType": "address",
          "name": "_to",
          "type": "address"
        },
        {
          "internalType": "uint256",
          "name": "_amount",
          "type": "uint256"
        }
      ],
      "name": "recoverToken",
      "outputs": [
        {
          "internalType": "uint256",
          "name": "",
          "type": "uint256"
        }
      ],
      "stateMutability": "nonpayable",
      "type": "function"
    },
    {
      "inputs": [],
      "name": "renounceOwnership",
      "outputs": [],
      "stateMutability": "nonpayable",
      "type": "function"
    },
    {
      "inputs": [
        {
          "internalType": "bytes32",
          "name": "_guid",
          "type": "bytes32"
        },
        {
          "internalType": "uint8",
          "name": "_index",
          "type": "uint8"
        },
        {
          "internalType": "uint32",
          "name": "_srcEid",
          "type": "uint32"
        },
        {
          "internalType": "address",
          "name": "_receiver",
          "type": "address"
        },
        {
          "internalType": "uint256",
          "name": "_amountLD",
          "type": "uint256"
        },
        {
          "internalType": "bytes",
          "name": "_composeMsg",
          "type": "bytes"
        }
      ],
      "name": "retryReceiveToken",
      "outputs": [],
      "stateMutability": "nonpayable",
      "type": "function"
    },
    {
      "inputs": [
        {
          "components": [
            {
              "internalType": "uint32",
              "name": "dstEid",
              "type": "uint32"
            },
            {
              "internalType": "bytes32",
              "name": "to",
              "type": "bytes32"
            },
            {
              "internalType": "uint256",
              "name": "amountLD",
              "type": "uint256"
            },
            {
              "internalType": "uint256",
              "name": "minAmountLD",
              "type": "uint256"
            },
            {
              "internalType": "bytes",
              "name": "extraOptions",
              "type": "bytes"
            },
            {
              "internalType": "bytes",
              "name": "composeMsg",
              "type": "bytes"
            },
            {
              "internalType": "bytes",
              "name": "oftCmd",
              "type": "bytes"
            }
          ],
          "internalType": "struct SendParam",
          "name": "_sendParam",
          "type": "tuple"
        },
        {
          "components": [
            {
              "internalType": "uint256",
              "name": "nativeFee",
              "type": "uint256"
            },
            {
              "internalType": "uint256",
              "name": "lzTokenFee",
              "type": "uint256"
            }
          ],
          "internalType": "struct MessagingFee",
          "name": "_fee",
          "type": "tuple"
        },
        {
          "internalType": "address",
          "name": "_refundAddress",
          "type": "address"
        }
      ],
      "name": "send",
      "outputs": [
        {
          "components": [
            {
              "internalType": "bytes32",
              "name": "guid",
              "type": "bytes32"
            },
            {
              "internalType": "uint64",
              "name": "nonce",
              "type": "uint64"
            },
            {
              "components": [
                {
                  "internalType": "uint256",
                  "name": "nativeFee",
                  "type": "uint256"
                },
                {
                  "internalType": "uint256",
                  "name": "lzTokenFee",
                  "type": "uint256"
                }
              ],
              "internalType": "struct MessagingFee",
              "name": "fee",
              "type": "tuple"
            }
          ],
          "internalType": "struct MessagingReceipt",
          "name": "msgReceipt",
          "type": "tuple"
        },
        {
          "components": [
            {
              "internalType": "uint256",
              "name": "amountSentLD",
              "type": "uint256"
            },
            {
              "internalType": "uint256",
              "name": "amountReceivedLD",
              "type": "uint256"
            }
          ],
          "internalType": "struct OFTReceipt",
          "name": "oftReceipt",
          "type": "tuple"
        }
      ],
      "stateMutability": "payable",
      "type": "function"
    },
    {
      "inputs": [
        {
          "internalType": "uint32",
          "name": "_dstEid",
          "type": "uint32"
        },
        {
          "components": [
            {
              "internalType": "uint32",
              "name": "srcEid",
              "type": "uint32"
            },
            {
              "internalType": "uint64",
              "name": "amount",
              "type": "uint64"
            },
            {
              "internalType": "uint64",
              "name": "minAmount",
              "type": "uint64"
            }
          ],
          "internalType": "struct TargetCredit[]",
          "name": "_credits",
          "type": "tuple[]"
        }
      ],
      "name": "sendCredits",
      "outputs": [
        {
          "components": [
            {
              "internalType": "uint32",
              "name": "srcEid",
              "type": "uint32"
            },
            {
              "internalType": "uint64",
              "name": "amount",
              "type": "uint64"
            }
          ],
          "internalType": "struct Credit[]",
          "name": "",
          "type": "tuple[]"
        }
      ],
      "stateMutability": "nonpayable",
      "type": "function"
    },
    {
      "inputs": [
        {
          "components": [
            {
              "internalType": "uint32",
              "name": "dstEid",
              "type": "uint32"
            },
            {
              "internalType": "bytes32",
              "name": "to",
              "type": "bytes32"
            },
            {
              "internalType": "uint256",
              "name": "amountLD",
              "type": "uint256"
            },
            {
              "internalType": "uint256",
              "name": "minAmountLD",
              "type": "uint256"
            },
            {
              "internalType": "bytes",
              "name": "extraOptions",
              "type": "bytes"
            },
            {
              "internalType": "bytes",
              "name": "composeMsg",
              "type": "bytes"
            },
            {
              "internalType": "bytes",
              "name": "oftCmd",
              "type": "bytes"
            }
          ],
          "internalType": "struct SendParam",
          "name": "_sendParam",
          "type": "tuple"
        },
        {
          "components": [
            {
              "internalType": "uint256",
              "name": "nativeFee",
              "type": "uint256"
            },
            {
              "internalType": "uint256",
              "name": "lzTokenFee",
              "type": "uint256"
            }
          ],
          "internalType": "struct MessagingFee",
          "name": "_fee",
          "type": "tuple"
        },
        {
          "internalType": "address",
          "name": "_refundAddress",
          "type": "address"
        }
      ],
      "name": "sendToken",
      "outputs": [
        {
          "components": [
            {
              "internalType": "bytes32",
              "name": "guid",
              "type": "bytes32"
            },
            {
              "internalType": "uint64",
              "name": "nonce",
              "type": "uint64"
            },
            {
              "components": [
                {
                  "internalType": "uint256",
                  "name": "nativeFee",
                  "type": "uint256"
                },
                {
                  "internalType": "uint256",
                  "name": "lzTokenFee",
                  "type": "uint256"
                }
              ],
              "internalType": "struct MessagingFee",
              "name": "fee",
              "type": "tuple"
            }
          ],
          "internalType": "struct MessagingReceipt",
          "name": "msgReceipt",
          "type": "tuple"
        },
        {
          "components": [
            {
              "internalType": "uint256",
              "name": "amountSentLD",
              "type": "uint256"
            },
            {
              "internalType": "uint256",
              "name": "amountReceivedLD",
              "type": "uint256"
            }
          ],
          "internalType": "struct OFTReceipt",
          "name": "oftReceipt",
          "type": "tuple"
        },
        {
          "components": [
            {
              "internalType": "uint72",
              "name": "ticketId",
              "type": "uint72"
            },
            {
              "internalType": "bytes",
              "name": "passengerBytes",
              "type": "bytes"
            }
          ],
          "internalType": "struct Ticket",
          "name": "ticket",
          "type": "tuple"
        }
      ],
      "stateMutability": "payable",
      "type": "function"
    },
    {
      "inputs": [
        {
          "components": [
            {
              "internalType": "address",
              "name": "feeLib",
              "type": "address"
            },
            {
              "internalType": "address",
              "name": "planner",
              "type": "address"
            },
            {
              "internalType": "address",
              "name": "treasurer",
              "type": "address"
            },
            {
              "internalType": "address",
              "name": "tokenMessaging",
              "type": "address"
            },
            {
              "internalType": "address",
              "name": "creditMessaging",
              "type": "address"
            },
            {
              "internalType": "address",
              "name": "lzToken",
              "type": "address"
            }
          ],
          "internalType": "struct StargateBase.AddressConfig",
          "name": "_config",
          "type": "tuple"
        }
      ],
      "name": "setAddressConfig",
      "outputs": [],
      "stateMutability": "nonpayable",
      "type": "function"
    },
    {
      "inputs": [
        {
          "internalType": "uint32",
          "name": "_dstEid",
          "type": "uint32"
        },
        {
          "internalType": "bool",
          "name": "_oft",
          "type": "bool"
        }
      ],
      "name": "setOFTPath",
      "outputs": [],
      "stateMutability": "nonpayable",
      "type": "function"
    },
    {
      "inputs": [
        {
          "internalType": "bool",
          "name": "_paused",
          "type": "bool"
        }
      ],
      "name": "setPause",
      "outputs": [],
      "stateMutability": "nonpayable",
      "type": "function"
    },
    {
      "inputs": [
        {
          "internalType": "uint256",
          "name": "_gasLimit",
          "type": "uint256"
        }
      ],
      "name": "setTransferGasLimit",
      "outputs": [],
      "stateMutability": "nonpayable",
      "type": "function"
    },
    {
      "inputs": [],
      "name": "sharedDecimals",
      "outputs": [
        {
          "internalType": "uint8",
          "name": "",
          "type": "uint8"
        }
      ],
      "stateMutability": "view",
      "type": "function"
    },
    {
      "inputs": [],
      "name": "stargateType",
      "outputs": [
        {
          "internalType": "enum StargateType",
          "name": "",
          "type": "uint8"
        }
      ],
      "stateMutability": "pure",
      "type": "function"
    },
    {
      "inputs": [],
      "name": "status",
      "outputs": [
        {
          "internalType": "uint8",
          "name": "",
          "type": "uint8"
        }
      ],
      "stateMutability": "view",
      "type": "function"
    },
    {
      "inputs": [],
      "name": "token",
      "outputs": [
        {
          "internalType": "address",
          "name": "",
          "type": "address"
        }
      ],
      "stateMutability": "view",
      "type": "function"
    },
    {
      "inputs": [
        {
          "internalType": "address",
          "name": "newOwner",
          "type": "address"
        }
      ],
      "name": "transferOwnership",
      "outputs": [],
      "stateMutability": "nonpayable",
      "type": "function"
    },
    {
      "inputs": [
        {
          "internalType": "address",
          "name": "_newOwner",
          "type": "address"
        }
      ],
      "name": "transferTokenOwnership",
      "outputs": [],
      "stateMutability": "nonpayable",
      "type": "function"
    },
    {
      "inputs": [],
      "name": "treasuryFee",
      "outputs": [
        {
          "internalType": "uint64",
          "name": "",
          "type": "uint64"
        }
      ],
      "stateMutability": "view",
      "type": "function"
    },
    {
      "inputs": [
        {
          "internalType": "bytes32",
          "name": "guid",
          "type": "bytes32"
        },
        {
          "internalType": "uint8",
          "name": "index",
          "type": "uint8"
        }
      ],
      "name": "unreceivedTokens",
      "outputs": [
        {
          "internalType": "bytes32",
          "name": "hash",
          "type": "bytes32"
        }
      ],
      "stateMutability": "view",
      "type": "function"
    },
    {
      "inputs": [],
      "name": "withdrawPlannerFee",
      "outputs": [],
      "stateMutability": "nonpayable",
      "type": "function"
    },
    {
      "inputs": [
        {
          "internalType": "address",
          "name": "_to",
          "type": "address"
        },
        {
          "internalType": "uint64",
          "name": "_amountSD",
          "type": "uint64"
        }
      ],
      "name": "withdrawTreasuryFee",
      "outputs": [],
      "stateMutability": "nonpayable",
      "type": "function"
    }
  ],
  "transactionHash": "0xb6b97c4eb234b30c14781c0234f0fe7fdb2d456f82e845cb3cee19178e103160",
  "args": [
    "0x20c000000000000000000000000000000027c99b",
    6,
    "0x50C21fE63c28191ccDc167961992A63e14393565",
    "0x5e6e4f234c7Ad525700fcF5B7862589950589ed5"
  ],
  "numDeployments": 1,
  "solcInputHash": "c96f1899c40ba3bab22e25ef93de73a1",
  "bytecode": "0x6101406040526108fc6001556002805460ff60a01b1916600160a01b1790553480156200002b57600080fd5b5060405162004ee338038062004ee38339810160408190526200004e91620002d0565b838383838383838383846001600160a01b031663313ce5676040518163ffffffff1660e01b8152600401602060405180830381865afa15801562000096573d6000803e3d6000fd5b505050506040513d601f19601f82011682018060405250810190620000bc91906200032d565b848484620000ca3362000251565b6001600160a01b03851660805260ff8084169085161015620000ff57604051632e4b554360e01b815260040160405180910390fd5b6200010b838562000368565b6200011890600a62000487565b60c05260ff831660a0526001600160a01b03821660e08190526040805163416ecebf60e01b8152905163416ecebf916004808201926020929091908290030181865afa1580156200016d573d6000803e3d6000fd5b505050506040513d601f19601f8201168201806040525081019062000193919062000498565b63ffffffff1661010052620001a88162000251565b505050505050505050816001600160a01b031663e1758bd86040518163ffffffff1660e01b8152600401602060405180830381865afa158015620001f0573d6000803e3d6000fd5b505050506040513d601f19601f82011682018060405250810190620002169190620004c0565b6001600160a01b0316610120819052620002435760405163832ac1e960e01b815260040160405180910390fd5b5050505050505050620004de565b600080546001600160a01b038381166001600160a01b0319831681178455604051919092169283917f8be0079c531659141344cd1fd0a4f28419497f9722a3daafe3b4186f6b6457e09190a35050565b80516001600160a01b0381168114620002b957600080fd5b919050565b805160ff81168114620002b957600080fd5b60008060008060808587031215620002e757600080fd5b620002f285620002a1565b93506200030260208601620002be565b92506200031260408601620002a1565b91506200032260608601620002a1565b905092959194509250565b6000602082840312156200034057600080fd5b6200034b82620002be565b9392505050565b634e487b7160e01b600052601160045260246000fd5b60ff828116828216039081111562000384576200038462000352565b92915050565b600181815b80851115620003cb578160001904821115620003af57620003af62000352565b80851615620003bd57918102915b93841c93908002906200038f565b509250929050565b600082620003e45750600162000384565b81620003f35750600062000384565b81600181146200040c5760028114620004175762000437565b600191505062000384565b60ff8411156200042b576200042b62000352565b50506001821b62000384565b5060208310610133831016604e8410600b84101617156200045c575081810a62000384565b6200046883836200038a565b80600019048211156200047f576200047f62000352565b029392505050565b60006200034b60ff841683620003d3565b600060208284031215620004ab57600080fd5b815163ffffffff811681146200034b57600080fd5b600060208284031215620004d357600080fd5b6200034b82620002a1565b60805160a05160c05160e051610100516101205161491b620005c8600039600081816105ed0152612ea3015260008181610636015261177d0152600081816105a1015281816111c40152818161203b01528181612ec50152613626015260008181610b9301528181610bfe01528181610df501528181610f4f01528181610fec01528181611016015281816110ee015281816118e7015281816122f80152818161242e01528181612458015281816126b60152612a060152600061067f0152600081816108ac0152818161138d015281816128e601528181612a380152612a8e015261491b6000f3fe60806040526004361061024f5760003560e01c80637260753711610138578063b0d7ca5d116100b0578063cbef2aa91161007f578063d621ad3f11610064578063d621ad3f14610842578063f2fde38b1461087a578063fc0c546a1461089a57600080fd5b8063cbef2aa9146107e6578063cc32d1761461080857600080fd5b8063b0d7ca5d14610770578063bedb86fb14610785578063c7c7f5b3146107a5578063c859c483146107c657600080fd5b80638da5cb5b116101075780639f68b964116100ec5780639f68b96414610714578063a7229fd914610730578063a88835d71461075057600080fd5b80638da5cb5b146106d65780639561b12f146106f457600080fd5b80637260753714610624578063857749b01461066d57806388543f0e146106a15780638c70830b146106b657600080fd5b806338da6b8e116101cb578063461bb0b91161019a5780635e280f111161017f5780635e280f111461058f578063647846a5146105db578063715018a61461060f57600080fd5b8063461bb0b9146105515780635114bf091461057157600080fd5b806338da6b8e146104945780633b6f743b146104e45780633faa12c514610511578063434def551461053157600080fd5b8063200d2ed21161022257806321e6b53d1161020757806321e6b53d1461036b5780632bc5114c1461038b578063341a46481461048157600080fd5b8063200d2ed214610316578063203bd15f1461034957600080fd5b80630141e41b146102545780630d35b4151461028a578063156a0d0f146102b957806316909bca146102fa575b600080fd5b34801561026057600080fd5b5061027461026f36600461383d565b6108ce565b604051610281919061391a565b60405180910390f35b34801561029657600080fd5b506102aa6102a5366004613945565b610b53565b604051610281939291906139ca565b3480156102c557600080fd5b50604080517f02e49c2c0000000000000000000000000000000000000000000000000000000081526000602082015201610281565b34801561030657600080fd5b5060016040516102819190613a81565b34801561032257600080fd5b5060025461033790600160a01b900460ff1681565b60405160ff9091168152602001610281565b34801561035557600080fd5b50610369610364366004613b4a565b61104e565b005b34801561037757600080fd5b50610369610386366004613bcc565b61134d565b34801561039757600080fd5b506104206040805160c081018252600080825260208201819052918101829052606081018290526080810182905260a0810191909152506040805160c0810182526002546001600160a01b03908116825260055481166020830152600754811692820192909252600654821660608201526003548216608082015260045490911660a082015290565b6040516102819190600060c0820190506001600160a01b038084511683528060208501511660208401528060408501511660408401528060608501511660608401528060808501511660808401528060a08501511660a08401525092915050565b61036961048f366004613be7565b6113ec565b3480156104a057600080fd5b506104cb6104af366004613c00565b60086020526000908152604090205467ffffffffffffffff1681565b60405167ffffffffffffffff9091168152602001610281565b3480156104f057600080fd5b506105046104ff366004613c29565b6114c6565b6040516102819190613c7b565b34801561051d57600080fd5b5061036961052c366004613c92565b611773565b34801561053d57600080fd5b5061036961054c366004613ccf565b611847565b34801561055d57600080fd5b5061036961056c366004613d32565b611ab5565b34801561057d57600080fd5b5060005b604051908152602001610281565b34801561059b57600080fd5b506105c37f000000000000000000000000000000000000000000000000000000000000000081565b6040516001600160a01b039091168152602001610281565b3480156105e757600080fd5b506105c37f000000000000000000000000000000000000000000000000000000000000000081565b34801561061b57600080fd5b50610369611c63565b34801561063057600080fd5b506106587f000000000000000000000000000000000000000000000000000000000000000081565b60405163ffffffff9091168152602001610281565b34801561067957600080fd5b506103377f000000000000000000000000000000000000000000000000000000000000000081565b3480156106ad57600080fd5b50600154610581565b3480156106c257600080fd5b506103696106d1366004613be7565b611c77565b3480156106e257600080fd5b506000546001600160a01b03166105c3565b34801561070057600080fd5b5061036961070f366004613d44565b611c84565b34801561072057600080fd5b5060405160018152602001610281565b34801561073c57600080fd5b5061058161074b366004613db7565b611dea565b34801561075c57600080fd5b5061036961076b366004613df3565b611ee8565b34801561077c57600080fd5b50610369612114565b34801561079157600080fd5b506103696107a0366004613e7c565b61217e565b6107b86107b3366004613e99565b612239565b604051610281929190613f37565b3480156107d257600080fd5b506103696107e1366004613f5b565b61226d565b6107f96107f4366004613e99565b612368565b60405161028193929190613f87565b34801561081457600080fd5b506002546104cb907501000000000000000000000000000000000000000000900467ffffffffffffffff1681565b34801561084e57600080fd5b5061058161085d366004613fe2565b600960209081526000928352604080842090915290825290205481565b34801561088657600080fd5b50610369610895366004613bcc565b61254e565b3480156108a657600080fd5b506105c37f000000000000000000000000000000000000000000000000000000000000000081565b600254606090600160a01b900460ff1660011461094657600254600119600160a01b90910460ff1601610914576040516376a9ad7360e01b815260040160405180910390fd5b6040517fdb22c33c00000000000000000000000000000000000000000000000000000000815260040160405180910390fd5b6002805460ff60a01b1916740200000000000000000000000000000000000000001790556003546001600160a01b031633811461099657604051635bd25eff60e01b815260040160405180910390fd5b60008367ffffffffffffffff8111156109b1576109b161400e565b6040519080825280602002602001820160405280156109f657816020015b60408051808201909152600080825260208201528152602001906001900390816109cf5790505b5090506000805b85811015610af85736878783818110610a1857610a1861403d565b90506060020190506000610a82826020016020810190610a38919061406c565b610a48606085016040860161406c565b60086000610a596020880188613c00565b63ffffffff1663ffffffff1681526020019081526020016000206125fa9092919063ffffffff16565b905067ffffffffffffffff811615610aee576040805180820190915280610aac6020850185613c00565b63ffffffff16815267ffffffffffffffff83166020909101528585610ad0816140b8565b965081518110610ae257610ae261403d565b60200260200101819052505b50506001016109fd565b508082527fce105e156370093e6600169f7c01277f740d45fbcf95435227ce6f43ad0c3abd8783604051610b2d9291906140f0565b60405180910390a1509150506002805460ff60a01b1916600160a01b1790559392505050565b60408051808201909152600080825260208201526060610b86604051806040016040528060008152602001600081525090565b60408051808201909152807f00000000000000000000000000000000000000000000000000000000000000008152602001610c2160086000886000016020810190610bd19190613c00565b63ffffffff16815260208101919091526040016000205467ffffffffffffffff1667ffffffffffffffff167f00000000000000000000000000000000000000000000000000000000000000000290565b81525092506000610c4e8460200151866040013511610c445785604001356126af565b84602001516126af565b90506000610c7d610c626020880188613c00565b83610c78610c7360c08b018b61410f565b6126ef565b612732565b600254604080517f81993cd000000000000000000000000000000000000000000000000000000000815283516001600160a01b039081166004830152602085015163ffffffff1660248301529184015167ffffffffffffffff9081166044830152606085015116606482015260808401511515608482015260a0840151151560a48201529293506000929116906381993cd09060c401602060405180830381865afa158015610d30573d6000803e3d6000fd5b505050506040513d601f19601f82011682018060405250810190610d549190614174565b90508267ffffffffffffffff168167ffffffffffffffff1614610fd15760408051600180825281830190925290816020015b604080518082019091526000815260606020820152815260200190600190039081610d865790505094508267ffffffffffffffff168167ffffffffffffffff161015610ea8576040518060400160405280610e1d610e188487610de99190614191565b67ffffffffffffffff167f00000000000000000000000000000000000000000000000000000000000000000290565b6127bc565b610e47907fffffffffffffffffffffffffffffffffffffffffffffffffffffffffffffffff6141b2565b81526020016040518060400160405280600c81526020017f70726f746f636f6c20666565000000000000000000000000000000000000000081525081525085600081518110610e9857610e9861403d565b6020026020010181905250610fd1565b8267ffffffffffffffff168167ffffffffffffffff161115610fd1576000610ed08483614191565b9091039050600067ffffffffffffffff84811690831603610f31576040805160008082526020820190925290610f29565b604080518082019091526000815260606020820152815260200190600190039081610f015790505b509550610fcf565b6040518060400160405280610f72610e188467ffffffffffffffff167f00000000000000000000000000000000000000000000000000000000000000000290565b81526020016040518060400160405280600681526020017f726577617264000000000000000000000000000000000000000000000000000081525081525086600081518110610fc357610fc361403d565b60200260200101819052505b505b604051806040016040528061100f8567ffffffffffffffff167f00000000000000000000000000000000000000000000000000000000000000000290565b81526020017f000000000000000000000000000000000000000000000000000000000000000067ffffffffffffffff8416029052959794965050505050565b600254600160a01b900460ff1660011461109157600254600119600160a01b90910460ff1601610914576040516376a9ad7360e01b815260040160405180910390fd5b6002805460ff60a01b1916740200000000000000000000000000000000000000001790556006546001600160a01b03163381146110e157604051635bd25eff60e01b815260040160405180910390fd5b67ffffffffffffffff84167f000000000000000000000000000000000000000000000000000000000000000002821580159060609061117a5761117761112d60608c0160408d0161406c565b61113a60208d018d613c00565b8589898080601f01602080910402602001604051908101604052809392919081815260200183838082843760009201919091525061287292505050565b90505b600061118689856128a4565b9050801561128f578215611233576040517f7cb590120000000000000000000000000000000000000000000000000000000081526001600160a01b037f00000000000000000000000000000000000000000000000000000000000000001690637cb5901290611200908c908e9060009088906004016141fe565b600060405180830381600087803b15801561121a57600080fd5b505af115801561122e573d6000803e3d6000fd5b505050505b6001600160a01b0389168a7fefed6d3500546b29533b128a29e3a94d70788727f0507505ac12eaf2e578fd9c61126c60208f018f613c00565b6040805163ffffffff9092168252602082018990520160405180910390a361132d565b61129c60208c018c613c00565b8985846040516020016112b29493929190614230565b60408051601f19818403018152918152815160209283012060008d8152600984528281208180528452918220557e7c17198cd078035dc663f9a0961f84cb6265411d0b4c793f96d432f6af4b55918c919061130f908f018f613c00565b8c8887604051611324969594939291906142ae565b60405180910390a15b50506002805460ff60a01b1916600160a01b179055505050505050505050565b61135561294b565b6040517ff2fde38b0000000000000000000000000000000000000000000000000000000081526001600160a01b0382811660048301527f0000000000000000000000000000000000000000000000000000000000000000169063f2fde38b90602401600060405180830381600087803b1580156113d157600080fd5b505af11580156113e5573d6000803e3d6000fd5b5050505050565b6007546001600160a01b031633811461141857604051635bd25eff60e01b815260040160405180910390fd5b611421826129bf565b600061142d33846129f7565b905080600260158282829054906101000a900467ffffffffffffffff1661145491906142fd565b92506101000a81548167ffffffffffffffff021916908367ffffffffffffffff1602179055507fa064a2faa279f4d67c85c8fc69d4ebb7de2739a9e6dd864dfdd1b9e066d4bfd0816040516114b9919067ffffffffffffffff91909116815260200190565b60405180910390a1505050565b604080518082019091526000808252602082015260006114e984604001356126af565b90508067ffffffffffffffff1660000361152f576040517f3442dd9500000000000000000000000000000000000000000000000000000000815260040160405180910390fd5b6000611541610c7360c087018761410f565b905080156116af576006546040805160c081019091523381526001600160a01b0390911690633292cf029060208082019061157e908a018a613c00565b63ffffffff1681526020898101359082015267ffffffffffffffff861660408201526060016115b060a08a018a61410f565b8080601f0160208091040260200160405190810160405280939291908181526020018383808284376000920191909152505050908252506020016115f760808a018a61410f565b8080601f01602080910402602001604051908101604052809392919081815260200183838082843760009201919091525050509152506040517fffffffff0000000000000000000000000000000000000000000000000000000060e084901b1681526116689190889060040161438d565b6040805180830381865afa158015611684573d6000803e3d6000fd5b505050506040513d601f19601f820116820180604052508101906116a8919061443b565b925061176b565b6000806116bf608088018861410f565b60065492109250506001600160a01b03166375d2208c6116e26020890189613c00565b6040517fffffffff0000000000000000000000000000000000000000000000000000000060e084901b16815263ffffffff91909116600482015283151560248201526044016040805180830381865afa158015611743573d6000803e3d6000fd5b505050506040513d601f19601f82011682018060405250810190611767919061443b565b9350505b505092915050565b61177b61294b565b7f000000000000000000000000000000000000000000000000000000000000000063ffffffff168263ffffffff16036117e0576040517fada8342400000000000000000000000000000000000000000000000000000000815260040160405180910390fd5b63ffffffff8083166000908152600860205260409020611802918390612af816565b6040805163ffffffff8416815282151560208201527faf6b8dd4c5a827e03f548d06181b36aaba61e22436ff1cfa9bc409d576366a6091015b60405180910390a15050565b600254600160a01b900460ff1660011461188a57600254600119600160a01b90910460ff1601610914576040516376a9ad7360e01b815260040160405180910390fd5b6002805460ff60a01b1916740200000000000000000000000000000000000000001790556006546001600160a01b03163381146118da57604051635bd25eff60e01b815260040160405180910390fd5b67ffffffffffffffff82167f000000000000000000000000000000000000000000000000000000000000000002600061191385836128a4565b90508015611977576001600160a01b038516877fefed6d3500546b29533b128a29e3a94d70788727f0507505ac12eaf2e578fd9c61195460208c018c613c00565b6040805163ffffffff9092168252602082018790520160405180910390a3611a98565b6119846020890189613c00565b60405160e09190911b7fffffffff00000000000000000000000000000000000000000000000000000000166020820152606086901b7fffffffffffffffffffffffffffffffffffffffff0000000000000000000000001660248201526038810183905260580160408051601f19818403018152918152815160209283012060008a81526009845282812060ff8b168252845291909120557e7c17198cd078035dc663f9a0961f84cb6265411d0b4c793f96d432f6af4b559088908890611a4c908c018c613c00565b6040805193845260ff909216602084015263ffffffff16908201526001600160a01b03871660608201526080810184905260c060a0820181905260009082015260e00160405180910390a15b50506002805460ff60a01b1916600160a01b179055505050505050565b611abd61294b565b611aca6020820182613bcc565b6002805473ffffffffffffffffffffffffffffffffffffffff19166001600160a01b0392909216919091179055611b076040820160208301613bcc565b6005805473ffffffffffffffffffffffffffffffffffffffff19166001600160a01b0392909216919091179055611b446060820160408301613bcc565b6007805473ffffffffffffffffffffffffffffffffffffffff19166001600160a01b0392909216919091179055611b816080820160608301613bcc565b6006805473ffffffffffffffffffffffffffffffffffffffff19166001600160a01b0392909216919091179055611bbe60a0820160808301613bcc565b6003805473ffffffffffffffffffffffffffffffffffffffff19166001600160a01b0392909216919091179055611bfb60c0820160a08301613bcc565b6004805473ffffffffffffffffffffffffffffffffffffffff19166001600160a01b03929092169190911790556040517f9774229668135b546675daf425e41c0848f60aa32d0951881245f4f528cc33f090611c58908390614457565b60405180910390a150565b611c6b61294b565b611c756000612bc2565b565b611c7f61294b565b600155565b600254600160a01b900460ff16600114611cc757600254600119600160a01b90910460ff1601610914576040516376a9ad7360e01b815260040160405180910390fd5b6002805460ff60a01b1916740200000000000000000000000000000000000000001790556003546001600160a01b0316338114611d1757604051635bd25eff60e01b815260040160405180910390fd5b60005b82811015611d955736848483818110611d3557611d3561403d565b9050604002019050611d8c816020016020810190611d53919061406c565b60086000611d646020860186613c00565b63ffffffff1663ffffffff168152602001908152602001600020612c1f90919063ffffffff16565b50600101611d1a565b507f10c5f2b007767d266c6c75c86ae9ed0c74e6320b30bda231af7396a990e7263c848484604051611dc9939291906144d6565b60405180910390a150506002805460ff60a01b1916600160a01b1790555050565b600254600090600160a01b900460ff16600114611e3057600254600119600160a01b90910460ff1601610914576040516376a9ad7360e01b815260040160405180910390fd5b6002805460ff60a01b1916740200000000000000000000000000000000000000001790556007546001600160a01b0316338114611e8057604051635bd25eff60e01b815260040160405180910390fd5b6001600160a01b038516611ec0576040517f809fc44b00000000000000000000000000000000000000000000000000000000815260040160405180910390fd5b611ecd8585856000612cb9565b50506002805460ff60a01b1916600160a01b17905592915050565b600254600160a01b900460ff16600114611f2b57600254600119600160a01b90910460ff1601610914576040516376a9ad7360e01b815260040160405180910390fd5b6002805460ff60a01b191674020000000000000000000000000000000000000000179055604051611f689086908690869086908690602001614549565b60408051601f19818403018152918152815160209283012060008a81526009845282812060ff8b16825290935291205414611fcf576040517faba8b6ef00000000000000000000000000000000000000000000000000000000815260040160405180910390fd5b600087815260096020908152604080832060ff8a168452909152812055611ff68484612d01565b612005612002846126af565b50565b80156120ac576040517f7cb590120000000000000000000000000000000000000000000000000000000081526001600160a01b037f00000000000000000000000000000000000000000000000000000000000000001690637cb59012906120799087908b90600090889088906004016145bb565b600060405180830381600087803b15801561209357600080fd5b505af11580156120a7573d6000803e3d6000fd5b505050505b6040805163ffffffff87168152602081018590526001600160a01b0386169189917fefed6d3500546b29533b128a29e3a94d70788727f0507505ac12eaf2e578fd9c910160405180910390a350506002805460ff60a01b1916600160a01b1790555050505050565b6005546001600160a01b031633811461214057604051635bd25eff60e01b815260040160405180910390fd5b600061214e33826000612d46565b6040518181527f19e23b96a5e0d494b59baca97d1fe386cf8e80a978dfd8845d25f1a9d5c7e1839060200161183b565b6005546001600160a01b03163381146121aa57604051635bd25eff60e01b815260040160405180910390fd5b600254600119600160a01b90910460ff16016121d9576040516376a9ad7360e01b815260040160405180910390fd5b816121e55760016121e8565b60035b6002805460ff92909216600160a01b0260ff60a01b1990921691909117905560405182151581527f878ac8a2ca79520471f8f3c8494fa802c03ce3bf034252aad7f22318984fdbdb9060200161183b565b6122416137dc565b6040805180820190915260008082526020820152612260858585612368565b5090969095509350505050565b6007546001600160a01b031633811461229957604051635bd25eff60e01b815260040160405180910390fd5b81600260158282829054906101000a900467ffffffffffffffff166122be9190614191565b92506101000a81548167ffffffffffffffff021916908367ffffffffffffffff1602179055506123208361231b8467ffffffffffffffff167f00000000000000000000000000000000000000000000000000000000000000000290565b612d01565b604080516001600160a01b038516815267ffffffffffffffff841660208201527fa46907b6b80b882da80d6e36cc905dde57fafff0a5442c8898526fe952d1e65391016114b9565b6123706137dc565b6040805180820190915260008082526020820152604080518082019091526000815260606020820152600254600160a01b900460ff166001146123dc57600254600119600160a01b90910460ff1601610914576040516376a9ad7360e01b815260040160405180910390fd5b6002805460ff60a01b1916740200000000000000000000000000000000000000001790556000808061240d89612d87565b92509250925060405180604001604052806124518467ffffffffffffffff167f00000000000000000000000000000000000000000000000000000000000000000290565b81526020017f000000000000000000000000000000000000000000000000000000000000000067ffffffffffffffff8416029052945060006124a261249b368b90038b018b61460c565b8751612e25565b905083156124bd576124b68a82848b612e78565b96506124cf565b6124c98a82848b61305b565b90975094505b865133907f85496b760a4b7f8d66384b9df21b381f5d1b1e79f229a47aaf4c232edc2fe59a61250160208e018e613c00565b89516020808c01516040805163ffffffff90951685529184019290925282015260600160405180910390a350506002805460ff60a01b1916600160a01b1790555092969195509350915050565b61255661294b565b6001600160a01b0381166125f1576040517f08c379a000000000000000000000000000000000000000000000000000000000815260206004820152602660248201527f4f776e61626c653a206e6577206f776e657220697320746865207a65726f206160448201527f646472657373000000000000000000000000000000000000000000000000000060648201526084015b60405180910390fd5b61200281612bc2565b825460009067ffffffffffffffff1667fffffffffffffffe19810161264b576040517f5a5cc94600000000000000000000000000000000000000000000000000000000815260040160405180910390fd5b8067ffffffffffffffff168367ffffffffffffffff1610156126a75782810367ffffffffffffffff808216908616116126845784612686565b805b865467ffffffffffffffff191681840367ffffffffffffffff161787559250505b509392505050565b60006126e97f000000000000000000000000000000000000000000000000000000000000000083816126e3576126e361463e565b04613257565b92915050565b60008115612729576040517f5d2d4a5b00000000000000000000000000000000000000000000000000000000815260040160405180910390fd5b50600192915050565b6040805160c08082018352600080835260208084018290528385018290526060808501839052608080860184905260a09586018490528651948501875233855263ffffffff8a1685840181905267ffffffffffffffff8a8116878a0152928601859052845260089092529490912054841690931492810192909252821515908201525b9392505050565b60007f7fffffffffffffffffffffffffffffffffffffffffffffffffffffffffffffff82111561286e576040517f08c379a000000000000000000000000000000000000000000000000000000000815260206004820152602860248201527f53616665436173743a2076616c756520646f65736e27742066697420696e206160448201527f6e20696e7432353600000000000000000000000000000000000000000000000060648201526084016125e8565b5090565b60608484848460405160200161288b949392919061466d565b6040516020818303038152906040529050949350505050565b6040517f40c10f190000000000000000000000000000000000000000000000000000000081526001600160a01b038381166004830152602482018390526000917f0000000000000000000000000000000000000000000000000000000000000000909116906340c10f1990604401600060405180830381600087803b15801561292c57600080fd5b505af192505050801561293d575060015b156126e95750600192915050565b6000546001600160a01b03163314611c75576040517f08c379a000000000000000000000000000000000000000000000000000000000815260206004820181905260248201527f4f776e61626c653a2063616c6c6572206973206e6f7420746865206f776e657260448201526064016125e8565b3415612002576040517f3442dd9500000000000000000000000000000000000000000000000000000000815260040160405180910390fd5b6000612a02826126af565b90507f000000000000000000000000000000000000000000000000000000000000000067ffffffffffffffff8216029150612a5f7f00000000000000000000000000000000000000000000000000000000000000008430856132f1565b6040517f42966c68000000000000000000000000000000000000000000000000000000008152600481018390527f00000000000000000000000000000000000000000000000000000000000000006001600160a01b0316906342966c6890602401600060405180830381600087803b158015612ada57600080fd5b505af1158015612aee573d6000803e3d6000fd5b5050505092915050565b815467ffffffffffffffff168115612b6a5767ffffffffffffffff811615612b4c576040517fca2bc39800000000000000000000000000000000000000000000000000000000815260040160405180910390fd5b825467ffffffffffffffff191667ffffffffffffffff178355505050565b67ffffffffffffffff81811614612bad576040517fca2bc39800000000000000000000000000000000000000000000000000000000815260040160405180910390fd5b825467ffffffffffffffff191683555b505050565b600080546001600160a01b0383811673ffffffffffffffffffffffffffffffffffffffff19831681178455604051919092169283917f8be0079c531659141344cd1fd0a4f28419497f9722a3daafe3b4186f6b6457e09190a35050565b815467ffffffffffffffff1667fffffffffffffffe198101612c4057505050565b612c4a82826142fd565b905067fffffffffffffffe1967ffffffffffffffff821601612c98576040517f5a5cc94600000000000000000000000000000000000000000000000000000000815260040160405180910390fd5b825467ffffffffffffffff191667ffffffffffffffff919091161790915550565b612cc5848484846132fd565b612cfb576040517f7c75c3d200000000000000000000000000000000000000000000000000000000815260040160405180910390fd5b50505050565b6000612d0d83836128a4565b905080612bbd576040517f06a6167e00000000000000000000000000000000000000000000000000000000815260040160405180910390fd5b612d51838383613332565b612bbd576040517f7c75c3d200000000000000000000000000000000000000000000000000000000815260040160405180910390fd5b60008080612d9b610c7360c086018661410f565b9250612dab3385604001356129f7565b91506000612dc6612dbf6020870187613c00565b8486612732565b9050612dde81612dd987606001356126af565b613359565b9150612e1d8260086000612df560208a018a613c00565b63ffffffff1663ffffffff16815260200190815260200160002061354e90919063ffffffff16565b509193909250565b60408051808201909152600080825260208201523415612e71576040517febf2eaea00000000000000000000000000000000000000000000000000000000815260040160405180910390fd5b5090919050565b612e806137dc565b602084015115612e9757612e9784602001516135dc565b835115612eee57612eee7f0000000000000000000000000000000000000000000000000000000000000000337f000000000000000000000000000000000000000000000000000000000000000087600001516132f1565b6006546040805160c081019091523381526001600160a01b039091169063ff6fb30090602080820190612f23908a018a613c00565b63ffffffff1681526020898101359082015267ffffffffffffffff87166040820152606001612f5560a08a018a61410f565b8080601f016020809104026020016040519081016040528093929190818152602001838380828437600092019190915250505090825250602001612f9c60808a018a61410f565b8080601f01602080910402602001604051908101604052809392919081815260200183838082843760009201919091525050509152506040517fffffffff0000000000000000000000000000000000000000000000000000000060e084901b16815261300f9190889087906004016146eb565b6080604051808303816000875af115801561302e573d6000803e3d6000fd5b505050506040513d601f19601f82011682018060405250810190613052919061479b565b95945050505050565b6130636137dc565b6040805180820190915260008152606060208201526020850151156130b4576040517fb5e0bf8d00000000000000000000000000000000000000000000000000000000815260040160405180910390fd5b6006546040805160a081019091523381526001600160a01b03909116906385afd453906020808201906130e9908b018b613c00565b63ffffffff16815260208a8101359082015267ffffffffffffffff88166040820152606001600061311d60808c018c61410f565b9190911190915250604080517fffffffff0000000000000000000000000000000000000000000000000000000060e085901b16815282516001600160a01b03166004820152602083015163ffffffff166024820152908201516044820152606082015167ffffffffffffffff1660648201526080909101511515608482015260a4016000604051808303816000875af11580156131be573d6000803e3d6000fd5b505050506040513d6000823e601f3d908101601f191682016040526131e691908101906147b7565b60408201515187519294509092509080821461324c578181111561321a5781810361321386826000613332565b505061324c565b6040517fa028531600000000000000000000000000000000000000000000000000000000815260040160405180910390fd5b505094509492505050565b600067ffffffffffffffff82111561286e576040517f08c379a000000000000000000000000000000000000000000000000000000000815260206004820152602660248201527f53616665436173743a2076616c756520646f65736e27742066697420696e203660448201527f342062697473000000000000000000000000000000000000000000000000000060648201526084016125e8565b612cc58484848461364f565b60006001600160a01b03851661331f57613318848484613332565b905061332a565b613052858585613703565b949350505050565b60008082613340575a613344565b6001545b9050600080600080878986f195945050505050565b600254604080517f43d9564d00000000000000000000000000000000000000000000000000000000815284516001600160a01b039081166004830152602086015163ffffffff1660248301529185015167ffffffffffffffff9081166044830152606086015116606482015260808501511515608482015260a0850151151560a482015260009291909116906343d9564d9060c4016020604051808303816000875af115801561340d573d6000803e3d6000fd5b505050506040513d601f19601f820116820180604052508101906134319190614174565b604084015190915067ffffffffffffffff80821690831610156134b8576134588282614191565b6002805460159061348d9084907501000000000000000000000000000000000000000000900467ffffffffffffffff166142fd565b92506101000a81548167ffffffffffffffff021916908367ffffffffffffffff1602179055506134e6565b8067ffffffffffffffff168267ffffffffffffffff1611156134e65760006134e08284614191565b90920391505b8267ffffffffffffffff168267ffffffffffffffff161080613510575067ffffffffffffffff8216155b15613547576040517fa1e8654500000000000000000000000000000000000000000000000000000000815260040160405180910390fd5b5092915050565b815467ffffffffffffffff1667fffffffffffffffe19810161356f57505050565b8167ffffffffffffffff168167ffffffffffffffff1610156135bd576040517f2b4d0ad500000000000000000000000000000000000000000000000000000000815260040160405180910390fd5b825467ffffffffffffffff191691900367ffffffffffffffff16179055565b6004546001600160a01b03168061361f576040517fb5e0bf8d00000000000000000000000000000000000000000000000000000000815260040160405180910390fd5b61364b81337f0000000000000000000000000000000000000000000000000000000000000000856132f1565b5050565b6040516001600160a01b03808516602483015283166044820152606481018290526000906130529086907f23b872dd00000000000000000000000000000000000000000000000000000000906084015b60408051601f198184030181529190526020810180517bffffffffffffffffffffffffffffffffffffffffffffffffffffffff167fffffffff000000000000000000000000000000000000000000000000000000009093169290921790915261374f565b6040516001600160a01b03831660248201526044810182905260009061332a9085907fa9059cbb000000000000000000000000000000000000000000000000000000009060640161369f565b6000806000846001600160a01b03168460405161376c91906148ac565b6000604051808303816000865af19150503d80600081146137a9576040519150601f19603f3d011682016040523d82523d6000602084013e6137ae565b606091505b5091509150816137bf576000613052565b8051158061305257508080602001905181019061305291906148c8565b604051806060016040528060008019168152602001600067ffffffffffffffff16815260200161381f604051806040016040528060008152602001600081525090565b905290565b803563ffffffff8116811461383857600080fd5b919050565b60008060006040848603121561385257600080fd5b61385b84613824565b9250602084013567ffffffffffffffff8082111561387857600080fd5b818601915086601f83011261388c57600080fd5b81358181111561389b57600080fd5b8760206060830285010111156138b057600080fd5b6020830194508093505050509250925092565b60008151808452602080850194506020840160005b8381101561390f578151805163ffffffff16885283015167ffffffffffffffff1683880152604090960195908201906001016138d8565b509495945050505050565b6020815260006127b560208301846138c3565b600060e0828403121561393f57600080fd5b50919050565b60006020828403121561395757600080fd5b813567ffffffffffffffff81111561396e57600080fd5b61332a8482850161392d565b60005b8381101561399557818101518382015260200161397d565b50506000910152565b600081518084526139b681602086016020860161397a565b601f01601f19169290920160200192915050565b8351815260208085015190820152600060a08201604060a0604085015281865180845260c08601915060c08160051b8701019350602080890160005b83811015613a63578887037fffffffffffffffffffffffffffffffffffffffffffffffffffffffffffffff40018552815180518852830151838801879052613a508789018261399e565b9750509382019390820190600101613a06565b5050875160608801525050506020850151608085015250905061332a565b6020810160028310613abc577f4e487b7100000000000000000000000000000000000000000000000000000000600052602160045260246000fd5b91905290565b60006060828403121561393f57600080fd5b80356001600160a01b038116811461383857600080fd5b67ffffffffffffffff8116811461200257600080fd5b60008083601f840112613b1357600080fd5b50813567ffffffffffffffff811115613b2b57600080fd5b602083019150836020828501011115613b4357600080fd5b9250929050565b60008060008060008060e08789031215613b6357600080fd5b613b6d8888613ac2565b955060608701359450613b8260808801613ad4565b935060a0870135613b9281613aeb565b925060c087013567ffffffffffffffff811115613bae57600080fd5b613bba89828a01613b01565b979a9699509497509295939492505050565b600060208284031215613bde57600080fd5b6127b582613ad4565b600060208284031215613bf957600080fd5b5035919050565b600060208284031215613c1257600080fd5b6127b582613824565b801515811461200257600080fd5b60008060408385031215613c3c57600080fd5b823567ffffffffffffffff811115613c5357600080fd5b613c5f8582860161392d565b9250506020830135613c7081613c1b565b809150509250929050565b8151815260208083015190820152604081016126e9565b60008060408385031215613ca557600080fd5b613cae83613824565b91506020830135613c7081613c1b565b803560ff8116811461383857600080fd5b600080600080600060e08688031215613ce757600080fd5b613cf18787613ac2565b945060608601359350613d0660808701613cbe565b9250613d1460a08701613ad4565b915060c0860135613d2481613aeb565b809150509295509295909350565b600060c0828403121561393f57600080fd5b600080600060408486031215613d5957600080fd5b613d6284613824565b9250602084013567ffffffffffffffff80821115613d7f57600080fd5b818601915086601f830112613d9357600080fd5b813581811115613da257600080fd5b8760208260061b85010111156138b057600080fd5b600080600060608486031215613dcc57600080fd5b613dd584613ad4565b9250613de360208501613ad4565b9150604084013590509250925092565b600080600080600080600060c0888a031215613e0e57600080fd5b87359650613e1e60208901613cbe565b9550613e2c60408901613824565b9450613e3a60608901613ad4565b93506080880135925060a088013567ffffffffffffffff811115613e5d57600080fd5b613e698a828b01613b01565b989b979a50959850939692959293505050565b600060208284031215613e8e57600080fd5b81356127b581613c1b565b60008060008385036080811215613eaf57600080fd5b843567ffffffffffffffff811115613ec657600080fd5b613ed28782880161392d565b9450506040601f1982011215613ee757600080fd5b50602084019150613efa60608501613ad4565b90509250925092565b8051825267ffffffffffffffff60208201511660208301526040810151612bbd604084018280518252602090810151910152565b60c08101613f458285613f03565b82516080830152602083015160a08301526127b5565b60008060408385031215613f6e57600080fd5b613f7783613ad4565b91506020830135613c7081613aeb565b613f918185613f03565b82516080820152602083015160a082015260e060c082015268ffffffffffffffffff82511660e0820152600060208301516040610100840152613fd861012084018261399e565b9695505050505050565b60008060408385031215613ff557600080fd5b8235915061400560208401613cbe565b90509250929050565b7f4e487b7100000000000000000000000000000000000000000000000000000000600052604160045260246000fd5b7f4e487b7100000000000000000000000000000000000000000000000000000000600052603260045260246000fd5b60006020828403121561407e57600080fd5b81356127b581613aeb565b7f4e487b7100000000000000000000000000000000000000000000000000000000600052601160045260246000fd5b60007fffffffffffffffffffffffffffffffffffffffffffffffffffffffffffffffff82036140e9576140e9614089565b5060010190565b63ffffffff8316815260406020820152600061332a60408301846138c3565b60008083357fffffffffffffffffffffffffffffffffffffffffffffffffffffffffffffffe184360301811261414457600080fd5b83018035915067ffffffffffffffff82111561415f57600080fd5b602001915036819003821315613b4357600080fd5b60006020828403121561418657600080fd5b81516127b581613aeb565b67ffffffffffffffff82811682821603908082111561354757613547614089565b808202600082127f8000000000000000000000000000000000000000000000000000000000000000841416156141ea576141ea614089565b81810583148215176126e9576126e9614089565b6001600160a01b038516815283602082015261ffff83166040820152608060608201526000613fd8608083018461399e565b7fffffffff000000000000000000000000000000000000000000000000000000008560e01b1681527fffffffffffffffffffffffffffffffffffffffff0000000000000000000000008460601b1660048201528260188201526000825161429e81603885016020870161397a565b9190910160380195945050505050565b86815260ff8616602082015263ffffffff851660408201526001600160a01b038416606082015282608082015260c060a082015260006142f160c083018461399e565b98975050505050505050565b67ffffffffffffffff81811683821601908082111561354757613547614089565b6001600160a01b03815116825263ffffffff60208201511660208301526040810151604083015267ffffffffffffffff60608201511660608301526000608082015160c0608085015261437460c085018261399e565b905060a083015184820360a0860152613052828261399e565b6040815260006143a0604083018561431e565b905082151560208301529392505050565b6040805190810167ffffffffffffffff811182821017156143d4576143d461400e565b60405290565b604051601f8201601f1916810167ffffffffffffffff811182821017156144035761440361400e565b604052919050565b60006040828403121561441d57600080fd5b6144256143b1565b9050815181526020820151602082015292915050565b60006040828403121561444d57600080fd5b6127b5838361440b565b60c081016001600160a01b038061446d85613ad4565b1683528061447d60208601613ad4565b1660208401528061449060408601613ad4565b166040840152806144a360608601613ad4565b166060840152806144b660808601613ad4565b166080840152806144c960a08601613ad4565b1660a08401525092915050565b63ffffffff848116825260406020808401829052838201859052600092869160608601855b8881101561453b578361450d86613824565b1682528285013561451d81613aeb565b67ffffffffffffffff168284015293850193908501906001016144fb565b509998505050505050505050565b7fffffffff000000000000000000000000000000000000000000000000000000008660e01b1681527fffffffffffffffffffffffffffffffffffffffff0000000000000000000000008560601b1660048201528360188201528183603883013760009101603801908152949350505050565b6001600160a01b038616815284602082015261ffff8416604082015260806060820152816080820152818360a0830137600081830160a090810191909152601f909201601f19160101949350505050565b60006040828403121561461e57600080fd5b6146266143b1565b82358152602083013560208201528091505092915050565b7f4e487b7100000000000000000000000000000000000000000000000000000000600052601260045260246000fd5b7fffffffffffffffff0000000000000000000000000000000000000000000000008560c01b1681527fffffffff000000000000000000000000000000000000000000000000000000008460e01b16600882015282600c820152600082516146db81602c85016020870161397a565b91909101602c0195945050505050565b6080815260006146fe608083018661431e565b9050614717602083018580518252602090810151910152565b6001600160a01b0383166060830152949350505050565b60006080828403121561474057600080fd5b6040516060810181811067ffffffffffffffff821117156147635761476361400e565b806040525080915082518152602083015161477d81613aeb565b602082015261478f846040850161440b565b60408201525092915050565b6000608082840312156147ad57600080fd5b6127b5838361472e565b60008060a083850312156147ca57600080fd5b6147d4848461472e565b9150608083015167ffffffffffffffff808211156147f157600080fd5b908401906040828703121561480557600080fd5b61480d6143b1565b825168ffffffffffffffffff8116811461482657600080fd5b81526020838101518381111561483b57600080fd5b80850194505087601f85011261485057600080fd5b8351838111156148625761486261400e565b61487482601f19601f840116016143da565b9350808452888282870101111561488a57600080fd5b6148998183860184880161397a565b5081019190915292959294509192505050565b600082516148be81846020870161397a565b9190910192915050565b6000602082840312156148da57600080fd5b81516127b581613c1b56fea26469706673582212204093a81471d4bd28c6cad99e9f8ba0c2960c98b66127b989b6c5ffac71b63de964736f6c63430008160033",
  "devdoc": {
    "details": "OFT variant for bridged stablecoin with TIP-20 and ALT endpoints. - Transfers + Burns stablecoin on inflow and mints on outflow",
    "kind": "dev",
    "methods": {
      "addTreasuryFee(uint256)": {
        "details": "Only used for increasing the overall budget for transaction rewardsThe treasuryFee is essentially the reward pool.Rewards are capped to the treasury amount, which limits exposure soStargate does not pay beyond what it's charged.",
        "params": {
          "_amountLD": "The amount to add in LD"
        }
      },
      "approvalRequired()": {
        "details": "Implements the IOFT interface.",
        "returns": {
          "_0": "Whether approval of the underlying token implementation is required"
        }
      },
      "getAddressConfig()": {
        "returns": {
          "_0": "An AddressConfig struct containing the current configuration"
        }
      },
      "oftVersion()": {
        "details": "Implements the IOFT interface.0 version means the message encoding is not compatible with the default OFT.",
        "returns": {
          "interfaceId": "The ERC165 interface ID for this contract",
          "version": "The cross-chain compatible message encoding version."
        }
      },
      "owner()": {
        "details": "Returns the address of the current owner."
      },
      "quoteOFT((uint32,bytes32,uint256,uint256,bytes,bytes,bytes))": {
        "details": "Implements the IOFT interface",
        "params": {
          "_sendParam": "The parameters for the send operation"
        },
        "returns": {
          "limit": "The information on OFT transfer limits",
          "oftFeeDetails": "The details of OFT transaction cost or reward",
          "receipt": "The OFT receipt information, indicating how many tokens would be sent and received"
        }
      },
      "quoteSend((uint32,bytes32,uint256,uint256,bytes,bytes,bytes),bool)": {
        "details": "Implements the IOFT interface.Reverts with InvalidAmount if send mode is drive but value is specified.MessagingFee: LayerZero message fee   - nativeFee: The native fee.   - lzTokenFee: The LZ token fee.",
        "params": {
          "_payInLzToken": "Flag indicating whether the caller is paying in the LZ token",
          "_sendParam": "The parameters for the send() operation"
        },
        "returns": {
          "fee": "The calculated LayerZero messaging fee from the send() operation"
        }
      },
      "receiveCredits(uint32,(uint32,uint64)[])": {
        "details": "Emits CreditsReceived when credits are received",
        "params": {
          "_credits": "An array indicating to which paths and how much credits to add",
          "_srcEid": "The endpoint ID of the source of credits"
        }
      },
      "receiveTokenBus((uint32,bytes32,uint64),bytes32,uint8,address,uint64)": {
        "details": "Emits OFTReceived when the OFT token is correctly receivedEmits UnreceivedTokenCached when the OFT token is not received",
        "params": {
          "_guid": "The global unique ID for this message, useful for composing",
          "_origin": "The Origin struct describing the origin, useful for composing"
        }
      },
      "recoverToken(address,address,uint256)": {
        "details": "Recover tokens sent to this contract by mistake.Only the treasurer can recover the token.Reverts with Stargate_RecoverTokenUnsupported if the treasurer attempts to withdraw StargateBase.token().",
        "params": {
          "_amount": "the amount to send",
          "_to": "the address to send the token to",
          "_token": "the token to recover. if 0x0 then it is native token"
        }
      },
      "renounceOwnership()": {
        "details": "Leaves the contract without owner. It will not be possible to call `onlyOwner` functions. Can only be called by the current owner. NOTE: Renouncing ownership will leave the contract without an owner, thereby disabling any functionality that is only available to the owner."
      },
      "retryReceiveToken(bytes32,uint8,uint32,address,uint256,bytes)": {
        "details": "The message has been delivered by the Messaging layer, so it is ok for anyone to retry.try to receive the token if the previous attempt failed in lzReceiveReverts with UnreceivedTokenNotFound if the message is not found in the cacheEmits OFTReceived if the receive succeeds",
        "params": {
          "_amountLD": "The amount of tokens in LD to transfer to the account",
          "_composeMsg": "The bytes representing the compose message in the message that failed",
          "_guid": "The global unique ID for the message that failed",
          "_index": "The index of the message that failed",
          "_receiver": "The account receiver for the message that failed",
          "_srcEid": "The source endpoint ID for the message that failed"
        }
      },
      "send((uint32,bytes32,uint256,uint256,bytes,bytes,bytes),(uint256,uint256),address)": {
        "details": "Emits OFTSent when the send is successful",
        "params": {
          "_fee": "The MessagingFee object describing the fee to pay",
          "_refundAddress": "The address to refund any LZ fees paid in excess",
          "_sendParam": "The SendParam object detailing the transaction"
        },
        "returns": {
          "msgReceipt": "The receipt proving the message was sent",
          "oftReceipt": "The receipt proving the OFT swap"
        }
      },
      "sendToken((uint32,bytes32,uint256,uint256,bytes,bytes,bytes),(uint256,uint256),address)": {
        "details": "This function is same as `send` in OFT interface but returns the ticket data if in the bus ride mode, which allows the caller to ride and drive the bus in the same transaction."
      },
      "setAddressConfig((address,address,address,address,address,address))": {
        "params": {
          "_config": "An AddressConfig object containing the addresses for the different roles used by Stargate."
        }
      },
      "setOFTPath(uint32,bool)": {
        "details": "Set the path as OFT if the remote chain is using OFT.When migrating from OFT to pool on remote chain (e.g. migrate USDC to circles), reset the path to non-OFT.Reverts with InvalidPath if the destination chain is the same as local.",
        "params": {
          "_dstEid": "The destination chain endpoint ID",
          "_oft": "Whether to set or reset the path"
        }
      },
      "setPause(bool)": {
        "details": "Be careful with this call, as it unsets the re-entry guard.",
        "params": {
          "_paused": "Whether to pause or unpause the stargate"
        }
      },
      "stargateType()": {
        "details": "Fulfills the IStargate interface.",
        "returns": {
          "_0": "The type of Stargate contract"
        }
      },
      "transferOwnership(address)": {
        "details": "Transfers ownership of the contract to a new account (`newOwner`). Can only be called by the current owner."
      },
      "transferTokenOwnership(address)": {
        "params": {
          "_newOwner": "The account to set as owner"
        }
      },
      "withdrawPlannerFee()": {
        "details": "The planner fee is accumulated in StargateBase to avoid the cost of passing msg.value to TokenMessaging."
      },
      "withdrawTreasuryFee(address,uint64)": {
        "params": {
          "_amountSD": "The amount to withdraw in SD",
          "_to": "The destination account"
        }
      }
    },
    "version": 1
  },
  "userdoc": {
    "kind": "user",
    "methods": {
      "addTreasuryFee(uint256)": {
        "notice": "Add tokens to the treasury, from the senders account."
      },
      "approvalRequired()": {
        "notice": "Indicates whether the OFT contract requires approval of the 'token()' to send."
      },
      "feeToken()": {
        "notice": "ERC20 token used by EndpointV2Alt as the \"native\" fee token on this chain."
      },
      "getAddressConfig()": {
        "notice": "Returns the current roles configured."
      },
      "oftVersion()": {
        "notice": "Get the OFT version information"
      },
      "quoteOFT((uint32,bytes32,uint256,uint256,bytes,bytes,bytes))": {
        "notice": "Provides a quote for sending OFT to another chain."
      },
      "quoteSend((uint32,bytes32,uint256,uint256,bytes,bytes,bytes),bool)": {
        "notice": "Provides a quote for the send() operation."
      },
      "receiveCredits(uint32,(uint32,uint64)[])": {
        "notice": "Entrypoint for receiving credits into paths"
      },
      "receiveTokenBus((uint32,bytes32,uint64),bytes32,uint8,address,uint64)": {
        "notice": "Entrypoint for receiving tokens"
      },
      "retryReceiveToken(bytes32,uint8,uint32,address,uint256,bytes)": {
        "notice": "Retry receiving a token that initially failed."
      },
      "send((uint32,bytes32,uint256,uint256,bytes,bytes,bytes),(uint256,uint256),address)": {
        "notice": "Send tokens through the Stargate"
      },
      "setAddressConfig((address,address,address,address,address,address))": {
        "notice": "Configure the roles for this contract."
      },
      "setOFTPath(uint32,bool)": {
        "notice": "Sets a given Path as using OFT or resets it from OFT."
      },
      "setPause(bool)": {
        "notice": "Pause or unpause a Stargate"
      },
      "stargateType()": {
        "notice": "Returns the type of Stargate contract."
      },
      "transferTokenOwnership(address)": {
        "notice": "Transfer ownership of the token to a new owner."
      },
      "withdrawPlannerFee()": {
        "notice": "Withdraw planner fees accumulated in StargateBase."
      },
      "withdrawTreasuryFee(address,uint64)": {
        "notice": "Withdraw from the accrued fees in the treasury."
      }
    },
    "version": 1
  },
  "storageLayout": {
    "storage": [
      {
        "astId": 5203,
        "contract": "src/tip20/StargateOFTTip20.sol:StargateOFTTip20",
        "label": "_owner",
        "offset": 0,
        "slot": "0",
        "type": "t_address"
      },
      {
        "astId": 10582,
        "contract": "src/tip20/StargateOFTTip20.sol:StargateOFTTip20",
        "label": "transferGasLimit",
        "offset": 0,
        "slot": "1",
        "type": "t_uint256"
      },
      {
        "astId": 7839,
        "contract": "src/tip20/StargateOFTTip20.sol:StargateOFTTip20",
        "label": "feeLib",
        "offset": 0,
        "slot": "2",
        "type": "t_address"
      },
      {
        "astId": 7843,
        "contract": "src/tip20/StargateOFTTip20.sol:StargateOFTTip20",
        "label": "status",
        "offset": 20,
        "slot": "2",
        "type": "t_uint8"
      },
      {
        "astId": 7846,
        "contract": "src/tip20/StargateOFTTip20.sol:StargateOFTTip20",
        "label": "treasuryFee",
        "offset": 21,
        "slot": "2",
        "type": "t_uint64"
      },
      {
        "astId": 7848,
        "contract": "src/tip20/StargateOFTTip20.sol:StargateOFTTip20",
        "label": "creditMessaging",
        "offset": 0,
        "slot": "3",
        "type": "t_address"
      },
      {
        "astId": 7850,
        "contract": "src/tip20/StargateOFTTip20.sol:StargateOFTTip20",
        "label": "lzToken",
        "offset": 0,
        "slot": "4",
        "type": "t_address"
      },
      {
        "astId": 7852,
        "contract": "src/tip20/StargateOFTTip20.sol:StargateOFTTip20",
        "label": "planner",
        "offset": 0,
        "slot": "5",
        "type": "t_address"
      },
      {
        "astId": 7854,
        "contract": "src/tip20/StargateOFTTip20.sol:StargateOFTTip20",
        "label": "tokenMessaging",
        "offset": 0,
        "slot": "6",
        "type": "t_address"
      },
      {
        "astId": 7856,
        "contract": "src/tip20/StargateOFTTip20.sol:StargateOFTTip20",
        "label": "treasurer",
        "offset": 0,
        "slot": "7",
        "type": "t_address"
      },
      {
        "astId": 7862,
        "contract": "src/tip20/StargateOFTTip20.sol:StargateOFTTip20",
        "label": "paths",
        "offset": 0,
        "slot": "8",
        "type": "t_mapping(t_uint32,t_struct(Path)10336_storage)"
      },
      {
        "astId": 7869,
        "contract": "src/tip20/StargateOFTTip20.sol:StargateOFTTip20",
        "label": "unreceivedTokens",
        "offset": 0,
        "slot": "9",
        "type": "t_mapping(t_bytes32,t_mapping(t_uint8,t_bytes32))"
      }
    ],
    "types": {
      "t_address": {
        "encoding": "inplace",
        "label": "address",
        "numberOfBytes": "20"
      },
      "t_bytes32": {
        "encoding": "inplace",
        "label": "bytes32",
        "numberOfBytes": "32"
      },
      "t_mapping(t_bytes32,t_mapping(t_uint8,t_bytes32))": {
        "encoding": "mapping",
        "key": "t_bytes32",
        "label": "mapping(bytes32 => mapping(uint8 => bytes32))",
        "numberOfBytes": "32",
        "value": "t_mapping(t_uint8,t_bytes32)"
      },
      "t_mapping(t_uint32,t_struct(Path)10336_storage)": {
        "encoding": "mapping",
        "key": "t_uint32",
        "label": "mapping(uint32 => struct Path)",
        "numberOfBytes": "32",
        "value": "t_struct(Path)10336_storage"
      },
      "t_mapping(t_uint8,t_bytes32)": {
        "encoding": "mapping",
        "key": "t_uint8",
        "label": "mapping(uint8 => bytes32)",
        "numberOfBytes": "32",
        "value": "t_bytes32"
      },
      "t_struct(Path)10336_storage": {
        "encoding": "inplace",
        "label": "struct Path",
        "members": [
          {
            "astId": 10335,
            "contract": "src/tip20/StargateOFTTip20.sol:StargateOFTTip20",
            "label": "credit",
            "offset": 0,
            "slot": "0",
            "type": "t_uint64"
          }
        ],
        "numberOfBytes": "32"
      },
      "t_uint256": {
        "encoding": "inplace",
        "label": "uint256",
        "numberOfBytes": "32"
      },
      "t_uint32": {
        "encoding": "inplace",
        "label": "uint32",
        "numberOfBytes": "4"
      },
      "t_uint64": {
        "encoding": "inplace",
        "label": "uint64",
        "numberOfBytes": "8"
      },
      "t_uint8": {
        "encoding": "inplace",
        "label": "uint8",
        "numberOfBytes": "1"
      }
    }
  }
}