{
  "address": "0x17d65bF79E77B6Ab21d8a0afed3bC8657d8Ee0B2",
  "abi": [
    {
      "inputs": [
        {
          "internalType": "address",
          "name": "_token",
          "type": "address"
        },
        {
          "internalType": "uint8",
          "name": "_sharedDecimals",
          "type": "uint8"
        },
        {
          "internalType": "address",
          "name": "_endpoint",
          "type": "address"
        },
        {
          "internalType": "address",
          "name": "_owner",
          "type": "address"
        }
      ],
      "stateMutability": "nonpayable",
      "type": "constructor"
    },
    {
      "inputs": [],
      "name": "InvalidLocalDecimals",
      "type": "error"
    },
    {
      "inputs": [],
      "name": "Path_AlreadyHasCredit",
      "type": "error"
    },
    {
      "inputs": [],
      "name": "Path_InsufficientCredit",
      "type": "error"
    },
    {
      "inputs": [],
      "name": "Path_UnlimitedCredit",
      "type": "error"
    },
    {
      "inputs": [
        {
          "internalType": "uint256",
          "name": "amountLD",
          "type": "uint256"
        },
        {
          "internalType": "uint256",
          "name": "minAmountLD",
          "type": "uint256"
        }
      ],
      "name": "SlippageExceeded",
      "type": "error"
    },
    {
      "inputs": [],
      "name": "Stargate_InsufficientFare",
      "type": "error"
    },
    {
      "inputs": [],
      "name": "Stargate_InvalidAmount",
      "type": "error"
    },
    {
      "inputs": [],
      "name": "Stargate_InvalidPath",
      "type": "error"
    },
    {
      "inputs": [],
      "name": "Stargate_InvalidTokenDecimals",
      "type": "error"
    },
    {
      "inputs": [],
      "name": "Stargate_LzTokenUnavailable",
      "type": "error"
    },
    {
      "inputs": [],
      "name": "Stargate_OutflowFailed",
      "type": "error"
    },
    {
      "inputs": [],
      "name": "Stargate_Paused",
      "type": "error"
    },
    {
      "inputs": [],
      "name": "Stargate_RecoverTokenUnsupported",
      "type": "error"
    },
    {
      "inputs": [],
      "name": "Stargate_ReentrantCall",
      "type": "error"
    },
    {
      "inputs": [],
      "name": "Stargate_SlippageTooHigh",
      "type": "error"
    },
    {
      "inputs": [],
      "name": "Stargate_Unauthorized",
      "type": "error"
    },
    {
      "inputs": [],
      "name": "Stargate_UnreceivedTokenNotFound",
      "type": "error"
    },
    {
      "inputs": [],
      "name": "Transfer_ApproveFailed",
      "type": "error"
    },
    {
      "inputs": [],
      "name": "Transfer_TransferFailed",
      "type": "error"
    },
    {
      "anonymous": false,
      "inputs": [
        {
          "components": [
            {
              "internalType": "address",
              "name": "feeLib",
              "type": "address"
            },
            {
              "internalType": "address",
              "name": "planner",
              "type": "address"
            },
            {
              "internalType": "address",
              "name": "treasurer",
              "type": "address"
            },
            {
              "internalType": "address",
              "name": "tokenMessaging",
              "type": "address"
            },
            {
              "internalType": "address",
              "name": "creditMessaging",
              "type": "address"
            },
            {
              "internalType": "address",
              "name": "lzToken",
              "type": "address"
            }
          ],
          "indexed": false,
          "internalType": "struct StargateBase.AddressConfig",
          "name": "config",
          "type": "tuple"
        }
      ],
      "name": "AddressConfigSet",
      "type": "event"
    },
    {
      "anonymous": false,
      "inputs": [
        {
          "indexed": false,
          "internalType": "uint32",
          "name": "srcEid",
          "type": "uint32"
        },
        {
          "components": [
            {
              "internalType": "uint32",
              "name": "srcEid",
              "type": "uint32"
            },
            {
              "internalType": "uint64",
              "name": "amount",
              "type": "uint64"
            }
          ],
          "indexed": false,
          "internalType": "struct Credit[]",
          "name": "credits",
          "type": "tuple[]"
        }
      ],
      "name": "CreditsReceived",
      "type": "event"
    },
    {
      "anonymous": false,
      "inputs": [
        {
          "indexed": false,
          "internalType": "uint32",
          "name": "dstEid",
          "type": "uint32"
        },
        {
          "components": [
            {
              "internalType": "uint32",
              "name": "srcEid",
              "type": "uint32"
            },
            {
              "internalType": "uint64",
              "name": "amount",
              "type": "uint64"
            }
          ],
          "indexed": false,
          "internalType": "struct Credit[]",
          "name": "credits",
          "type": "tuple[]"
        }
      ],
      "name": "CreditsSent",
      "type": "event"
    },
    {
      "anonymous": false,
      "inputs": [
        {
          "indexed": false,
          "internalType": "uint32",
          "name": "dstEid",
          "type": "uint32"
        },
        {
          "indexed": false,
          "internalType": "bool",
          "name": "oft",
          "type": "bool"
        }
      ],
      "name": "OFTPathSet",
      "type": "event"
    },
    {
      "anonymous": false,
      "inputs": [
        {
          "indexed": true,
          "internalType": "bytes32",
          "name": "guid",
          "type": "bytes32"
        },
        {
          "indexed": false,
          "internalType": "uint32",
          "name": "srcEid",
          "type": "uint32"
        },
        {
          "indexed": true,
          "internalType": "address",
          "name": "toAddress",
          "type": "address"
        },
        {
          "indexed": false,
          "internalType": "uint256",
          "name": "amountReceivedLD",
          "type": "uint256"
        }
      ],
      "name": "OFTReceived",
      "type": "event"
    },
    {
      "anonymous": false,
      "inputs": [
        {
          "indexed": true,
          "internalType": "bytes32",
          "name": "guid",
          "type": "bytes32"
        },
        {
          "indexed": false,
          "internalType": "uint32",
          "name": "dstEid",
          "type": "uint32"
        },
        {
          "indexed": true,
          "internalType": "address",
          "name": "fromAddress",
          "type": "address"
        },
        {
          "indexed": false,
          "internalType": "uint256",
          "name": "amountSentLD",
          "type": "uint256"
        },
        {
          "indexed": false,
          "internalType": "uint256",
          "name": "amountReceivedLD",
          "type": "uint256"
        }
      ],
      "name": "OFTSent",
      "type": "event"
    },
    {
      "anonymous": false,
      "inputs": [
        {
          "indexed": true,
          "internalType": "address",
          "name": "previousOwner",
          "type": "address"
        },
        {
          "indexed": true,
          "internalType": "address",
          "name": "newOwner",
          "type": "address"
        }
      ],
      "name": "OwnershipTransferred",
      "type": "event"
    },
    {
      "anonymous": false,
      "inputs": [
        {
          "indexed": false,
          "internalType": "bool",
          "name": "paused",
          "type": "bool"
        }
      ],
      "name": "PauseSet",
      "type": "event"
    },
    {
      "anonymous": false,
      "inputs": [
        {
          "indexed": false,
          "internalType": "uint256",
          "name": "amount",
          "type": "uint256"
        }
      ],
      "name": "PlannerFeeWithdrawn",
      "type": "event"
    },
    {
      "anonymous": false,
      "inputs": [
        {
          "indexed": false,
          "internalType": "uint64",
          "name": "amountSD",
          "type": "uint64"
        }
      ],
      "name": "TreasuryFeeAdded",
      "type": "event"
    },
    {
      "anonymous": false,
      "inputs": [
        {
          "indexed": false,
          "internalType": "address",
          "name": "to",
          "type": "address"
        },
        {
          "indexed": false,
          "internalType": "uint64",
          "name": "amountSD",
          "type": "uint64"
        }
      ],
      "name": "TreasuryFeeWithdrawn",
      "type": "event"
    },
    {
      "anonymous": false,
      "inputs": [
        {
          "indexed": false,
          "internalType": "bytes32",
          "name": "guid",
          "type": "bytes32"
        },
        {
          "indexed": false,
          "internalType": "uint8",
          "name": "index",
          "type": "uint8"
        },
        {
          "indexed": false,
          "internalType": "uint32",
          "name": "srcEid",
          "type": "uint32"
        },
        {
          "indexed": false,
          "internalType": "address",
          "name": "receiver",
          "type": "address"
        },
        {
          "indexed": false,
          "internalType": "uint256",
          "name": "amountLD",
          "type": "uint256"
        },
        {
          "indexed": false,
          "internalType": "bytes",
          "name": "composeMsg",
          "type": "bytes"
        }
      ],
      "name": "UnreceivedTokenCached",
      "type": "event"
    },
    {
      "inputs": [
        {
          "internalType": "uint256",
          "name": "_amountLD",
          "type": "uint256"
        }
      ],
      "name": "addTreasuryFee",
      "outputs": [],
      "stateMutability": "payable",
      "type": "function"
    },
    {
      "inputs": [],
      "name": "approvalRequired",
      "outputs": [
        {
          "internalType": "bool",
          "name": "",
          "type": "bool"
        }
      ],
      "stateMutability": "pure",
      "type": "function"
    },
    {
      "inputs": [],
      "name": "endpoint",
      "outputs": [
        {
          "internalType": "contract ILayerZeroEndpointV2",
          "name": "",
          "type": "address"
        }
      ],
      "stateMutability": "view",
      "type": "function"
    },
    {
      "inputs": [],
      "name": "getAddressConfig",
      "outputs": [
        {
          "components": [
            {
              "internalType": "address",
              "name": "feeLib",
              "type": "address"
            },
            {
              "internalType": "address",
              "name": "planner",
              "type": "address"
            },
            {
              "internalType": "address",
              "name": "treasurer",
              "type": "address"
            },
            {
              "internalType": "address",
              "name": "tokenMessaging",
              "type": "address"
            },
            {
              "internalType": "address",
              "name": "creditMessaging",
              "type": "address"
            },
            {
              "internalType": "address",
              "name": "lzToken",
              "type": "address"
            }
          ],
          "internalType": "struct StargateBase.AddressConfig",
          "name": "",
          "type": "tuple"
        }
      ],
      "stateMutability": "view",
      "type": "function"
    },
    {
      "inputs": [],
      "name": "getTransferGasLimit",
      "outputs": [
        {
          "internalType": "uint256",
          "name": "",
          "type": "uint256"
        }
      ],
      "stateMutability": "view",
      "type": "function"
    },
    {
      "inputs": [],
      "name": "localEid",
      "outputs": [
        {
          "internalType": "uint32",
          "name": "",
          "type": "uint32"
        }
      ],
      "stateMutability": "view",
      "type": "function"
    },
    {
      "inputs": [],
      "name": "oftVersion",
      "outputs": [
        {
          "internalType": "bytes4",
          "name": "interfaceId",
          "type": "bytes4"
        },
        {
          "internalType": "uint64",
          "name": "version",
          "type": "uint64"
        }
      ],
      "stateMutability": "pure",
      "type": "function"
    },
    {
      "inputs": [],
      "name": "owner",
      "outputs": [
        {
          "internalType": "address",
          "name": "",
          "type": "address"
        }
      ],
      "stateMutability": "view",
      "type": "function"
    },
    {
      "inputs": [
        {
          "internalType": "uint32",
          "name": "eid",
          "type": "uint32"
        }
      ],
      "name": "paths",
      "outputs": [
        {
          "internalType": "uint64",
          "name": "credit",
          "type": "uint64"
        }
      ],
      "stateMutability": "view",
      "type": "function"
    },
    {
      "inputs": [],
      "name": "plannerFee",
      "outputs": [
        {
          "internalType": "uint256",
          "name": "available",
          "type": "uint256"
        }
      ],
      "stateMutability": "view",
      "type": "function"
    },
    {
      "inputs": [
        {
          "components": [
            {
              "internalType": "uint32",
              "name": "dstEid",
              "type": "uint32"
            },
            {
              "internalType": "bytes32",
              "name": "to",
              "type": "bytes32"
            },
            {
              "internalType": "uint256",
              "name": "amountLD",
              "type": "uint256"
            },
            {
              "internalType": "uint256",
              "name": "minAmountLD",
              "type": "uint256"
            },
            {
              "internalType": "bytes",
              "name": "extraOptions",
              "type": "bytes"
            },
            {
              "internalType": "bytes",
              "name": "composeMsg",
              "type": "bytes"
            },
            {
              "internalType": "bytes",
              "name": "oftCmd",
              "type": "bytes"
            }
          ],
          "internalType": "struct SendParam",
          "name": "_sendParam",
          "type": "tuple"
        }
      ],
      "name": "quoteOFT",
      "outputs": [
        {
          "components": [
            {
              "internalType": "uint256",
              "name": "minAmountLD",
              "type": "uint256"
            },
            {
              "internalType": "uint256",
              "name": "maxAmountLD",
              "type": "uint256"
            }
          ],
          "internalType": "struct OFTLimit",
          "name": "limit",
          "type": "tuple"
        },
        {
          "components": [
            {
              "internalType": "int256",
              "name": "feeAmountLD",
              "type": "int256"
            },
            {
              "internalType": "string",
              "name": "description",
              "type": "string"
            }
          ],
          "internalType": "struct OFTFeeDetail[]",
          "name": "oftFeeDetails",
          "type": "tuple[]"
        },
        {
          "components": [
            {
              "internalType": "uint256",
              "name": "amountSentLD",
              "type": "uint256"
            },
            {
              "internalType": "uint256",
              "name": "amountReceivedLD",
              "type": "uint256"
            }
          ],
          "internalType": "struct OFTReceipt",
          "name": "receipt",
          "type": "tuple"
        }
      ],
      "stateMutability": "view",
      "type": "function"
    },
    {
      "inputs": [
        {
          "components": [
            {
              "internalType": "uint32",
              "name": "dstEid",
              "type": "uint32"
            },
            {
              "internalType": "bytes32",
              "name": "to",
              "type": "bytes32"
            },
            {
              "internalType": "uint256",
              "name": "amountLD",
              "type": "uint256"
            },
            {
              "internalType": "uint256",
              "name": "minAmountLD",
              "type": "uint256"
            },
            {
              "internalType": "bytes",
              "name": "extraOptions",
              "type": "bytes"
            },
            {
              "internalType": "bytes",
              "name": "composeMsg",
              "type": "bytes"
            },
            {
              "internalType": "bytes",
              "name": "oftCmd",
              "type": "bytes"
            }
          ],
          "internalType": "struct SendParam",
          "name": "_sendParam",
          "type": "tuple"
        },
        {
          "internalType": "bool",
          "name": "_payInLzToken",
          "type": "bool"
        }
      ],
      "name": "quoteSend",
      "outputs": [
        {
          "components": [
            {
              "internalType": "uint256",
              "name": "nativeFee",
              "type": "uint256"
            },
            {
              "internalType": "uint256",
              "name": "lzTokenFee",
              "type": "uint256"
            }
          ],
          "internalType": "struct MessagingFee",
          "name": "fee",
          "type": "tuple"
        }
      ],
      "stateMutability": "view",
      "type": "function"
    },
    {
      "inputs": [
        {
          "internalType": "uint32",
          "name": "_srcEid",
          "type": "uint32"
        },
        {
          "components": [
            {
              "internalType": "uint32",
              "name": "srcEid",
              "type": "uint32"
            },
            {
              "internalType": "uint64",
              "name": "amount",
              "type": "uint64"
            }
          ],
          "internalType": "struct Credit[]",
          "name": "_credits",
          "type": "tuple[]"
        }
      ],
      "name": "receiveCredits",
      "outputs": [],
      "stateMutability": "nonpayable",
      "type": "function"
    },
    {
      "inputs": [
        {
          "components": [
            {
              "internalType": "uint32",
              "name": "srcEid",
              "type": "uint32"
            },
            {
              "internalType": "bytes32",
              "name": "sender",
              "type": "bytes32"
            },
            {
              "internalType": "uint64",
              "name": "nonce",
              "type": "uint64"
            }
          ],
          "internalType": "struct Origin",
          "name": "_origin",
          "type": "tuple"
        },
        {
          "internalType": "bytes32",
          "name": "_guid",
          "type": "bytes32"
        },
        {
          "internalType": "uint8",
          "name": "_seatNumber",
          "type": "uint8"
        },
        {
          "internalType": "address",
          "name": "_receiver",
          "type": "address"
        },
        {
          "internalType": "uint64",
          "name": "_amountSD",
          "type": "uint64"
        }
      ],
      "name": "receiveTokenBus",
      "outputs": [],
      "stateMutability": "nonpayable",
      "type": "function"
    },
    {
      "inputs": [
        {
          "components": [
            {
              "internalType": "uint32",
              "name": "srcEid",
              "type": "uint32"
            },
            {
              "internalType": "bytes32",
              "name": "sender",
              "type": "bytes32"
            },
            {
              "internalType": "uint64",
              "name": "nonce",
              "type": "uint64"
            }
          ],
          "internalType": "struct Origin",
          "name": "_origin",
          "type": "tuple"
        },
        {
          "internalType": "bytes32",
          "name": "_guid",
          "type": "bytes32"
        },
        {
          "internalType": "address",
          "name": "_receiver",
          "type": "address"
        },
        {
          "internalType": "uint64",
          "name": "_amountSD",
          "type": "uint64"
        },
        {
          "internalType": "bytes",
          "name": "_composeMsg",
          "type": "bytes"
        }
      ],
      "name": "receiveTokenTaxi",
      "outputs": [],
      "stateMutability": "nonpayable",
      "type": "function"
    },
    {
      "inputs": [
        {
          "internalType": "address",
          "name": "_token",
          "type": "address"
        },
        {
          "internalType": "address",
          "name": "_to",
          "type": "address"
        },
        {
          "internalType": "uint256",
          "name": "_amount",
          "type": "uint256"
        }
      ],
      "name": "recoverToken",
      "outputs": [
        {
          "internalType": "uint256",
          "name": "",
          "type": "uint256"
        }
      ],
      "stateMutability": "nonpayable",
      "type": "function"
    },
    {
      "inputs": [],
      "name": "renounceOwnership",
      "outputs": [],
      "stateMutability": "nonpayable",
      "type": "function"
    },
    {
      "inputs": [
        {
          "internalType": "bytes32",
          "name": "_guid",
          "type": "bytes32"
        },
        {
          "internalType": "uint8",
          "name": "_index",
          "type": "uint8"
        },
        {
          "internalType": "uint32",
          "name": "_srcEid",
          "type": "uint32"
        },
        {
          "internalType": "address",
          "name": "_receiver",
          "type": "address"
        },
        {
          "internalType": "uint256",
          "name": "_amountLD",
          "type": "uint256"
        },
        {
          "internalType": "bytes",
          "name": "_composeMsg",
          "type": "bytes"
        }
      ],
      "name": "retryReceiveToken",
      "outputs": [],
      "stateMutability": "nonpayable",
      "type": "function"
    },
    {
      "inputs": [
        {
          "components": [
            {
              "internalType": "uint32",
              "name": "dstEid",
              "type": "uint32"
            },
            {
              "internalType": "bytes32",
              "name": "to",
              "type": "bytes32"
            },
            {
              "internalType": "uint256",
              "name": "amountLD",
              "type": "uint256"
            },
            {
              "internalType": "uint256",
              "name": "minAmountLD",
              "type": "uint256"
            },
            {
              "internalType": "bytes",
              "name": "extraOptions",
              "type": "bytes"
            },
            {
              "internalType": "bytes",
              "name": "composeMsg",
              "type": "bytes"
            },
            {
              "internalType": "bytes",
              "name": "oftCmd",
              "type": "bytes"
            }
          ],
          "internalType": "struct SendParam",
          "name": "_sendParam",
          "type": "tuple"
        },
        {
          "components": [
            {
              "internalType": "uint256",
              "name": "nativeFee",
              "type": "uint256"
            },
            {
              "internalType": "uint256",
              "name": "lzTokenFee",
              "type": "uint256"
            }
          ],
          "internalType": "struct MessagingFee",
          "name": "_fee",
          "type": "tuple"
        },
        {
          "internalType": "address",
          "name": "_refundAddress",
          "type": "address"
        }
      ],
      "name": "send",
      "outputs": [
        {
          "components": [
            {
              "internalType": "bytes32",
              "name": "guid",
              "type": "bytes32"
            },
            {
              "internalType": "uint64",
              "name": "nonce",
              "type": "uint64"
            },
            {
              "components": [
                {
                  "internalType": "uint256",
                  "name": "nativeFee",
                  "type": "uint256"
                },
                {
                  "internalType": "uint256",
                  "name": "lzTokenFee",
                  "type": "uint256"
                }
              ],
              "internalType": "struct MessagingFee",
              "name": "fee",
              "type": "tuple"
            }
          ],
          "internalType": "struct MessagingReceipt",
          "name": "msgReceipt",
          "type": "tuple"
        },
        {
          "components": [
            {
              "internalType": "uint256",
              "name": "amountSentLD",
              "type": "uint256"
            },
            {
              "internalType": "uint256",
              "name": "amountReceivedLD",
              "type": "uint256"
            }
          ],
          "internalType": "struct OFTReceipt",
          "name": "oftReceipt",
          "type": "tuple"
        }
      ],
      "stateMutability": "payable",
      "type": "function"
    },
    {
      "inputs": [
        {
          "internalType": "uint32",
          "name": "_dstEid",
          "type": "uint32"
        },
        {
          "components": [
            {
              "internalType": "uint32",
              "name": "srcEid",
              "type": "uint32"
            },
            {
              "internalType": "uint64",
              "name": "amount",
              "type": "uint64"
            },
            {
              "internalType": "uint64",
              "name": "minAmount",
              "type": "uint64"
            }
          ],
          "internalType": "struct TargetCredit[]",
          "name": "_credits",
          "type": "tuple[]"
        }
      ],
      "name": "sendCredits",
      "outputs": [
        {
          "components": [
            {
              "internalType": "uint32",
              "name": "srcEid",
              "type": "uint32"
            },
            {
              "internalType": "uint64",
              "name": "amount",
              "type": "uint64"
            }
          ],
          "internalType": "struct Credit[]",
          "name": "",
          "type": "tuple[]"
        }
      ],
      "stateMutability": "nonpayable",
      "type": "function"
    },
    {
      "inputs": [
        {
          "components": [
            {
              "internalType": "uint32",
              "name": "dstEid",
              "type": "uint32"
            },
            {
              "internalType": "bytes32",
              "name": "to",
              "type": "bytes32"
            },
            {
              "internalType": "uint256",
              "name": "amountLD",
              "type": "uint256"
            },
            {
              "internalType": "uint256",
              "name": "minAmountLD",
              "type": "uint256"
            },
            {
              "internalType": "bytes",
              "name": "extraOptions",
              "type": "bytes"
            },
            {
              "internalType": "bytes",
              "name": "composeMsg",
              "type": "bytes"
            },
            {
              "internalType": "bytes",
              "name": "oftCmd",
              "type": "bytes"
            }
          ],
          "internalType": "struct SendParam",
          "name": "_sendParam",
          "type": "tuple"
        },
        {
          "components": [
            {
              "internalType": "uint256",
              "name": "nativeFee",
              "type": "uint256"
            },
            {
              "internalType": "uint256",
              "name": "lzTokenFee",
              "type": "uint256"
            }
          ],
          "internalType": "struct MessagingFee",
          "name": "_fee",
          "type": "tuple"
        },
        {
          "internalType": "address",
          "name": "_refundAddress",
          "type": "address"
        }
      ],
      "name": "sendToken",
      "outputs": [
        {
          "components": [
            {
              "internalType": "bytes32",
              "name": "guid",
              "type": "bytes32"
            },
            {
              "internalType": "uint64",
              "name": "nonce",
              "type": "uint64"
            },
            {
              "components": [
                {
                  "internalType": "uint256",
                  "name": "nativeFee",
                  "type": "uint256"
                },
                {
                  "internalType": "uint256",
                  "name": "lzTokenFee",
                  "type": "uint256"
                }
              ],
              "internalType": "struct MessagingFee",
              "name": "fee",
              "type": "tuple"
            }
          ],
          "internalType": "struct MessagingReceipt",
          "name": "msgReceipt",
          "type": "tuple"
        },
        {
          "components": [
            {
              "internalType": "uint256",
              "name": "amountSentLD",
              "type": "uint256"
            },
            {
              "internalType": "uint256",
              "name": "amountReceivedLD",
              "type": "uint256"
            }
          ],
          "internalType": "struct OFTReceipt",
          "name": "oftReceipt",
          "type": "tuple"
        },
        {
          "components": [
            {
              "internalType": "uint72",
              "name": "ticketId",
              "type": "uint72"
            },
            {
              "internalType": "bytes",
              "name": "passengerBytes",
              "type": "bytes"
            }
          ],
          "internalType": "struct Ticket",
          "name": "ticket",
          "type": "tuple"
        }
      ],
      "stateMutability": "payable",
      "type": "function"
    },
    {
      "inputs": [
        {
          "components": [
            {
              "internalType": "address",
              "name": "feeLib",
              "type": "address"
            },
            {
              "internalType": "address",
              "name": "planner",
              "type": "address"
            },
            {
              "internalType": "address",
              "name": "treasurer",
              "type": "address"
            },
            {
              "internalType": "address",
              "name": "tokenMessaging",
              "type": "address"
            },
            {
              "internalType": "address",
              "name": "creditMessaging",
              "type": "address"
            },
            {
              "internalType": "address",
              "name": "lzToken",
              "type": "address"
            }
          ],
          "internalType": "struct StargateBase.AddressConfig",
          "name": "_config",
          "type": "tuple"
        }
      ],
      "name": "setAddressConfig",
      "outputs": [],
      "stateMutability": "nonpayable",
      "type": "function"
    },
    {
      "inputs": [
        {
          "internalType": "uint32",
          "name": "_dstEid",
          "type": "uint32"
        },
        {
          "internalType": "bool",
          "name": "_oft",
          "type": "bool"
        }
      ],
      "name": "setOFTPath",
      "outputs": [],
      "stateMutability": "nonpayable",
      "type": "function"
    },
    {
      "inputs": [
        {
          "internalType": "bool",
          "name": "_paused",
          "type": "bool"
        }
      ],
      "name": "setPause",
      "outputs": [],
      "stateMutability": "nonpayable",
      "type": "function"
    },
    {
      "inputs": [
        {
          "internalType": "uint256",
          "name": "_gasLimit",
          "type": "uint256"
        }
      ],
      "name": "setTransferGasLimit",
      "outputs": [],
      "stateMutability": "nonpayable",
      "type": "function"
    },
    {
      "inputs": [],
      "name": "sharedDecimals",
      "outputs": [
        {
          "internalType": "uint8",
          "name": "",
          "type": "uint8"
        }
      ],
      "stateMutability": "view",
      "type": "function"
    },
    {
      "inputs": [],
      "name": "stargateType",
      "outputs": [
        {
          "internalType": "enum StargateType",
          "name": "",
          "type": "uint8"
        }
      ],
      "stateMutability": "pure",
      "type": "function"
    },
    {
      "inputs": [],
      "name": "status",
      "outputs": [
        {
          "internalType": "uint8",
          "name": "",
          "type": "uint8"
        }
      ],
      "stateMutability": "view",
      "type": "function"
    },
    {
      "inputs": [],
      "name": "token",
      "outputs": [
        {
          "internalType": "address",
          "name": "",
          "type": "address"
        }
      ],
      "stateMutability": "view",
      "type": "function"
    },
    {
      "inputs": [
        {
          "internalType": "address",
          "name": "newOwner",
          "type": "address"
        }
      ],
      "name": "transferOwnership",
      "outputs": [],
      "stateMutability": "nonpayable",
      "type": "function"
    },
    {
      "inputs": [],
      "name": "treasuryFee",
      "outputs": [
        {
          "internalType": "uint64",
          "name": "",
          "type": "uint64"
        }
      ],
      "stateMutability": "view",
      "type": "function"
    },
    {
      "inputs": [
        {
          "internalType": "bytes32",
          "name": "guid",
          "type": "bytes32"
        },
        {
          "internalType": "uint8",
          "name": "index",
          "type": "uint8"
        }
      ],
      "name": "unreceivedTokens",
      "outputs": [
        {
          "internalType": "bytes32",
          "name": "hash",
          "type": "bytes32"
        }
      ],
      "stateMutability": "view",
      "type": "function"
    },
    {
      "inputs": [],
      "name": "withdrawPlannerFee",
      "outputs": [],
      "stateMutability": "nonpayable",
      "type": "function"
    },
    {
      "inputs": [
        {
          "internalType": "address",
          "name": "_to",
          "type": "address"
        },
        {
          "internalType": "uint64",
          "name": "_amountSD",
          "type": "uint64"
        }
      ],
      "name": "withdrawTreasuryFee",
      "outputs": [],
      "stateMutability": "nonpayable",
      "type": "function"
    }
  ],
  "transactionHash": "0x8968bafba74fbd20ffcb56ccbf699b46bbf2820dab1f1f17df6c3d1ec93c443e",
  "args": [
    "0x362FAE9A75B27BBc550aAc28a7c1F96C8D483120",
    6,
    "0x1a44076050125825900e736c501f859c50fE728c",
    "0x4A79AdC4539905376D339C69b6a7092D0598cc24"
  ],
  "numDeployments": 1,
  "solcInputHash": "d3c0a7dfb839a7f4b7e4c9f781b450f3",
  "bytecode": "0x6101206040526108fc6001556002805460ff60a01b1916600160a01b1790553480156200002b57600080fd5b5060405162004c2238038062004c228339810160408190526200004e916200022e565b83846001600160a01b031663313ce5676040518163ffffffff1660e01b8152600401602060405180830381865afa1580156200008e573d6000803e3d6000fd5b505050506040513d601f19601f82011682018060405250810190620000b491906200028b565b848484620000c233620001af565b6001600160a01b03851660805260ff8084169085161015620000f757604051632e4b554360e01b815260040160405180910390fd5b620001038385620002c6565b6200011090600a620003e5565b60c05260ff831660a0526001600160a01b03821660e08190526040805163416ecebf60e01b8152905163416ecebf916004808201926020929091908290030181865afa15801562000165573d6000803e3d6000fd5b505050506040513d601f19601f820116820180604052508101906200018b9190620003f6565b63ffffffff1661010052620001a081620001af565b5050505050505050506200041e565b600080546001600160a01b038381166001600160a01b0319831681178455604051919092169283917f8be0079c531659141344cd1fd0a4f28419497f9722a3daafe3b4186f6b6457e09190a35050565b80516001600160a01b03811681146200021757600080fd5b919050565b805160ff811681146200021757600080fd5b600080600080608085870312156200024557600080fd5b6200025085620001ff565b935062000260602086016200021c565b92506200027060408601620001ff565b91506200028060608601620001ff565b905092959194509250565b6000602082840312156200029e57600080fd5b620002a9826200021c565b9392505050565b634e487b7160e01b600052601160045260246000fd5b60ff8281168282160390811115620002e257620002e2620002b0565b92915050565b600181815b80851115620003295781600019048211156200030d576200030d620002b0565b808516156200031b57918102915b93841c9390800290620002ed565b509250929050565b6000826200034257506001620002e2565b816200035157506000620002e2565b81600181146200036a5760028114620003755762000395565b6001915050620002e2565b60ff841115620003895762000389620002b0565b50506001821b620002e2565b5060208310610133831016604e8410600b8410161715620003ba575081810a620002e2565b620003c68383620002e8565b8060001904821115620003dd57620003dd620002b0565b029392505050565b6000620002a960ff84168362000331565b6000602082840312156200040957600080fd5b815163ffffffff81168114620002a957600080fd5b60805160a05160c05160e05161010051614741620004e1600039600081816105ab015261165401526000818161054a0152818161113a01528181611f120152613440015260008181610b0801528181610b7301528181610d6b01528181610ec501528181610f6201528181610f8c01528181611064015281816117be015281816121ce015281816123040152818161232e0152818161258c0152612855015260006105f401526000818161082101528181612779015261282d01526147416000f3fe6080604052600436106102195760003560e01c8063857749b01161011d578063b0d7ca5d116100b0578063cbef2aa91161007f578063d621ad3f11610064578063d621ad3f146107b7578063f2fde38b146107ef578063fc0c546a1461080f57600080fd5b8063cbef2aa91461075b578063cc32d1761461077d57600080fd5b8063b0d7ca5d146106e5578063bedb86fb146106fa578063c7c7f5b31461071a578063c859c4831461073b57600080fd5b80639561b12f116100ec5780639561b12f146106695780639f68b96414610689578063a7229fd9146106a5578063a88835d7146106c557600080fd5b8063857749b0146105e257806388543f0e146106165780638c70830b1461062b5780638da5cb5b1461064b57600080fd5b806338da6b8e116101b0578063461bb0b91161017f5780635e280f11116101645780635e280f1114610538578063715018a614610584578063726075371461059957600080fd5b8063461bb0b9146104fb5780635114bf091461051b57600080fd5b806338da6b8e1461043e5780633b6f743b1461048e5780633faa12c5146104bb578063434def55146104db57600080fd5b8063200d2ed2116101ec578063200d2ed2146102e0578063203bd15f146103135780632bc5114c14610335578063341a46481461042b57600080fd5b80630141e41b1461021e5780630d35b41514610254578063156a0d0f1461028357806316909bca146102c4575b600080fd5b34801561022a57600080fd5b5061023e610239366004613663565b610843565b60405161024b9190613740565b60405180910390f35b34801561026057600080fd5b5061027461026f36600461376b565b610ac8565b60405161024b939291906137f0565b34801561028f57600080fd5b50604080517f02e49c2c000000000000000000000000000000000000000000000000000000008152600060208201520161024b565b3480156102d057600080fd5b50600160405161024b91906138a7565b3480156102ec57600080fd5b5060025461030190600160a01b900460ff1681565b60405160ff909116815260200161024b565b34801561031f57600080fd5b5061033361032e366004613970565b610fc4565b005b34801561034157600080fd5b506103ca6040805160c081018252600080825260208201819052918101829052606081018290526080810182905260a0810191909152506040805160c0810182526002546001600160a01b03908116825260055481166020830152600754811692820192909252600654821660608201526003548216608082015260045490911660a082015290565b60405161024b9190600060c0820190506001600160a01b038084511683528060208501511660208401528060408501511660408401528060608501511660608401528060808501511660808401528060a08501511660a08401525092915050565b6103336104393660046139f2565b6112c3565b34801561044a57600080fd5b50610475610459366004613a0b565b60086020526000908152604090205467ffffffffffffffff1681565b60405167ffffffffffffffff909116815260200161024b565b34801561049a57600080fd5b506104ae6104a9366004613a34565b61139d565b60405161024b9190613a86565b3480156104c757600080fd5b506103336104d6366004613a9d565b61164a565b3480156104e757600080fd5b506103336104f6366004613ada565b61171e565b34801561050757600080fd5b50610333610516366004613b3d565b61198c565b34801561052757600080fd5b50475b60405190815260200161024b565b34801561054457600080fd5b5061056c7f000000000000000000000000000000000000000000000000000000000000000081565b6040516001600160a01b03909116815260200161024b565b34801561059057600080fd5b50610333611b3a565b3480156105a557600080fd5b506105cd7f000000000000000000000000000000000000000000000000000000000000000081565b60405163ffffffff909116815260200161024b565b3480156105ee57600080fd5b506103017f000000000000000000000000000000000000000000000000000000000000000081565b34801561062257600080fd5b5060015461052a565b34801561063757600080fd5b506103336106463660046139f2565b611b4e565b34801561065757600080fd5b506000546001600160a01b031661056c565b34801561067557600080fd5b50610333610684366004613b4f565b611b5b565b34801561069557600080fd5b506040516001815260200161024b565b3480156106b157600080fd5b5061052a6106c0366004613bc2565b611cc1565b3480156106d157600080fd5b506103336106e0366004613bfe565b611dbf565b3480156106f157600080fd5b50610333611feb565b34801561070657600080fd5b50610333610715366004613c87565b612054565b61072d610728366004613ca4565b61210f565b60405161024b929190613d42565b34801561074757600080fd5b50610333610756366004613d66565b612143565b61076e610769366004613ca4565b61223e565b60405161024b93929190613d92565b34801561078957600080fd5b50600254610475907501000000000000000000000000000000000000000000900467ffffffffffffffff1681565b3480156107c357600080fd5b5061052a6107d2366004613ded565b600960209081526000928352604080842090915290825290205481565b3480156107fb57600080fd5b5061033361080a366004613e19565b612424565b34801561081b57600080fd5b5061056c7f000000000000000000000000000000000000000000000000000000000000000081565b600254606090600160a01b900460ff166001146108bb57600254600119600160a01b90910460ff1601610889576040516376a9ad7360e01b815260040160405180910390fd5b6040517fdb22c33c00000000000000000000000000000000000000000000000000000000815260040160405180910390fd5b6002805460ff60a01b1916740200000000000000000000000000000000000000001790556003546001600160a01b031633811461090b57604051635bd25eff60e01b815260040160405180910390fd5b60008367ffffffffffffffff81111561092657610926613e34565b60405190808252806020026020018201604052801561096b57816020015b60408051808201909152600080825260208201528152602001906001900390816109445790505b5090506000805b85811015610a6d573687878381811061098d5761098d613e63565b905060600201905060006109f78260200160208101906109ad9190613e92565b6109bd6060850160408601613e92565b600860006109ce6020880188613a0b565b63ffffffff1663ffffffff1681526020019081526020016000206124d09092919063ffffffff16565b905067ffffffffffffffff811615610a63576040805180820190915280610a216020850185613a0b565b63ffffffff16815267ffffffffffffffff83166020909101528585610a4581613ede565b965081518110610a5757610a57613e63565b60200260200101819052505b5050600101610972565b508082527fce105e156370093e6600169f7c01277f740d45fbcf95435227ce6f43ad0c3abd8783604051610aa2929190613f16565b60405180910390a1509150506002805460ff60a01b1916600160a01b1790559392505050565b60408051808201909152600080825260208201526060610afb604051806040016040528060008152602001600081525090565b60408051808201909152807f00000000000000000000000000000000000000000000000000000000000000008152602001610b9660086000886000016020810190610b469190613a0b565b63ffffffff16815260208101919091526040016000205467ffffffffffffffff1667ffffffffffffffff167f00000000000000000000000000000000000000000000000000000000000000000290565b81525092506000610bc38460200151866040013511610bb9578560400135612585565b8460200151612585565b90506000610bf3610bd76020880188613a0b565b83610bee610be860c08b018b613f35565b15919050565b6125c5565b600254604080517f81993cd000000000000000000000000000000000000000000000000000000000815283516001600160a01b039081166004830152602085015163ffffffff1660248301529184015167ffffffffffffffff9081166044830152606085015116606482015260808401511515608482015260a0840151151560a48201529293506000929116906381993cd09060c401602060405180830381865afa158015610ca6573d6000803e3d6000fd5b505050506040513d601f19601f82011682018060405250810190610cca9190613f9a565b90508267ffffffffffffffff168167ffffffffffffffff1614610f475760408051600180825281830190925290816020015b604080518082019091526000815260606020820152815260200190600190039081610cfc5790505094508267ffffffffffffffff168167ffffffffffffffff161015610e1e576040518060400160405280610d93610d8e8487610d5f9190613fb7565b67ffffffffffffffff167f00000000000000000000000000000000000000000000000000000000000000000290565b61264f565b610dbd907fffffffffffffffffffffffffffffffffffffffffffffffffffffffffffffffff613fd8565b81526020016040518060400160405280600c81526020017f70726f746f636f6c20666565000000000000000000000000000000000000000081525081525085600081518110610e0e57610e0e613e63565b6020026020010181905250610f47565b8267ffffffffffffffff168167ffffffffffffffff161115610f47576000610e468483613fb7565b9091039050600067ffffffffffffffff84811690831603610ea7576040805160008082526020820190925290610e9f565b604080518082019091526000815260606020820152815260200190600190039081610e775790505b509550610f45565b6040518060400160405280610ee8610d8e8467ffffffffffffffff167f00000000000000000000000000000000000000000000000000000000000000000290565b81526020016040518060400160405280600681526020017f726577617264000000000000000000000000000000000000000000000000000081525081525086600081518110610f3957610f39613e63565b60200260200101819052505b505b6040518060400160405280610f858567ffffffffffffffff167f00000000000000000000000000000000000000000000000000000000000000000290565b81526020017f000000000000000000000000000000000000000000000000000000000000000067ffffffffffffffff8416029052959794965050505050565b600254600160a01b900460ff1660011461100757600254600119600160a01b90910460ff1601610889576040516376a9ad7360e01b815260040160405180910390fd5b6002805460ff60a01b1916740200000000000000000000000000000000000000001790556006546001600160a01b031633811461105757604051635bd25eff60e01b815260040160405180910390fd5b67ffffffffffffffff84167f00000000000000000000000000000000000000000000000000000000000000000282158015906060906110f0576110ed6110a360608c0160408d01613e92565b6110b060208d018d613a0b565b8589898080601f01602080910402602001604051908101604052809392919081815260200183838082843760009201919091525061270592505050565b90505b60006110fc8985612737565b905080156112055782156111a9576040517f7cb590120000000000000000000000000000000000000000000000000000000081526001600160a01b037f00000000000000000000000000000000000000000000000000000000000000001690637cb5901290611176908c908e906000908890600401614024565b600060405180830381600087803b15801561119057600080fd5b505af11580156111a4573d6000803e3d6000fd5b505050505b6001600160a01b0389168a7fefed6d3500546b29533b128a29e3a94d70788727f0507505ac12eaf2e578fd9c6111e260208f018f613a0b565b6040805163ffffffff9092168252602082018990520160405180910390a36112a3565b61121260208c018c613a0b565b8985846040516020016112289493929190614056565b60408051601f19818403018152918152815160209283012060008d8152600984528281208180528452918220557e7c17198cd078035dc663f9a0961f84cb6265411d0b4c793f96d432f6af4b55918c9190611285908f018f613a0b565b8c888760405161129a969594939291906140d4565b60405180910390a15b50506002805460ff60a01b1916600160a01b179055505050505050505050565b6007546001600160a01b03163381146112ef57604051635bd25eff60e01b815260040160405180910390fd5b6112f8826127de565b60006113043384612816565b905080600260158282829054906101000a900467ffffffffffffffff1661132b9190614123565b92506101000a81548167ffffffffffffffff021916908367ffffffffffffffff1602179055507fa064a2faa279f4d67c85c8fc69d4ebb7de2739a9e6dd864dfdd1b9e066d4bfd081604051611390919067ffffffffffffffff91909116815260200190565b60405180910390a1505050565b604080518082019091526000808252602082015260006113c08460400135612585565b90508067ffffffffffffffff16600003611406576040517f3442dd9500000000000000000000000000000000000000000000000000000000815260040160405180910390fd5b6000611418610be860c0870187613f35565b90508015611586576006546040805160c081019091523381526001600160a01b0390911690633292cf0290602080820190611455908a018a613a0b565b63ffffffff1681526020898101359082015267ffffffffffffffff8616604082015260600161148760a08a018a613f35565b8080601f0160208091040260200160405190810160405280939291908181526020018383808284376000920191909152505050908252506020016114ce60808a018a613f35565b8080601f01602080910402602001604051908101604052809392919081815260200183838082843760009201919091525050509152506040517fffffffff0000000000000000000000000000000000000000000000000000000060e084901b16815261153f919088906004016141b3565b6040805180830381865afa15801561155b573d6000803e3d6000fd5b505050506040513d601f19601f8201168201806040525081019061157f9190614261565b9250611642565b6000806115966080880188613f35565b60065492109250506001600160a01b03166375d2208c6115b96020890189613a0b565b6040517fffffffff0000000000000000000000000000000000000000000000000000000060e084901b16815263ffffffff91909116600482015283151560248201526044016040805180830381865afa15801561161a573d6000803e3d6000fd5b505050506040513d601f19601f8201168201806040525081019061163e9190614261565b9350505b505092915050565b6116526128fc565b7f000000000000000000000000000000000000000000000000000000000000000063ffffffff168263ffffffff16036116b7576040517fada8342400000000000000000000000000000000000000000000000000000000815260040160405180910390fd5b63ffffffff80831660009081526008602052604090206116d991839061297016565b6040805163ffffffff8416815282151560208201527faf6b8dd4c5a827e03f548d06181b36aaba61e22436ff1cfa9bc409d576366a6091015b60405180910390a15050565b600254600160a01b900460ff1660011461176157600254600119600160a01b90910460ff1601610889576040516376a9ad7360e01b815260040160405180910390fd5b6002805460ff60a01b1916740200000000000000000000000000000000000000001790556006546001600160a01b03163381146117b157604051635bd25eff60e01b815260040160405180910390fd5b67ffffffffffffffff82167f00000000000000000000000000000000000000000000000000000000000000000260006117ea8583612737565b9050801561184e576001600160a01b038516877fefed6d3500546b29533b128a29e3a94d70788727f0507505ac12eaf2e578fd9c61182b60208c018c613a0b565b6040805163ffffffff9092168252602082018790520160405180910390a361196f565b61185b6020890189613a0b565b60405160e09190911b7fffffffff00000000000000000000000000000000000000000000000000000000166020820152606086901b7fffffffffffffffffffffffffffffffffffffffff0000000000000000000000001660248201526038810183905260580160408051601f19818403018152918152815160209283012060008a81526009845282812060ff8b168252845291909120557e7c17198cd078035dc663f9a0961f84cb6265411d0b4c793f96d432f6af4b559088908890611923908c018c613a0b565b6040805193845260ff909216602084015263ffffffff16908201526001600160a01b03871660608201526080810184905260c060a0820181905260009082015260e00160405180910390a15b50506002805460ff60a01b1916600160a01b179055505050505050565b6119946128fc565b6119a16020820182613e19565b6002805473ffffffffffffffffffffffffffffffffffffffff19166001600160a01b03929092169190911790556119de6040820160208301613e19565b6005805473ffffffffffffffffffffffffffffffffffffffff19166001600160a01b0392909216919091179055611a1b6060820160408301613e19565b6007805473ffffffffffffffffffffffffffffffffffffffff19166001600160a01b0392909216919091179055611a586080820160608301613e19565b6006805473ffffffffffffffffffffffffffffffffffffffff19166001600160a01b0392909216919091179055611a9560a0820160808301613e19565b6003805473ffffffffffffffffffffffffffffffffffffffff19166001600160a01b0392909216919091179055611ad260c0820160a08301613e19565b6004805473ffffffffffffffffffffffffffffffffffffffff19166001600160a01b03929092169190911790556040517f9774229668135b546675daf425e41c0848f60aa32d0951881245f4f528cc33f090611b2f90839061427d565b60405180910390a150565b611b426128fc565b611b4c6000612a3a565b565b611b566128fc565b600155565b600254600160a01b900460ff16600114611b9e57600254600119600160a01b90910460ff1601610889576040516376a9ad7360e01b815260040160405180910390fd5b6002805460ff60a01b1916740200000000000000000000000000000000000000001790556003546001600160a01b0316338114611bee57604051635bd25eff60e01b815260040160405180910390fd5b60005b82811015611c6c5736848483818110611c0c57611c0c613e63565b9050604002019050611c63816020016020810190611c2a9190613e92565b60086000611c3b6020860186613a0b565b63ffffffff1663ffffffff168152602001908152602001600020612a9790919063ffffffff16565b50600101611bf1565b507f10c5f2b007767d266c6c75c86ae9ed0c74e6320b30bda231af7396a990e7263c848484604051611ca0939291906142fc565b60405180910390a150506002805460ff60a01b1916600160a01b1790555050565b600254600090600160a01b900460ff16600114611d0757600254600119600160a01b90910460ff1601610889576040516376a9ad7360e01b815260040160405180910390fd5b6002805460ff60a01b1916740200000000000000000000000000000000000000001790556007546001600160a01b0316338114611d5757604051635bd25eff60e01b815260040160405180910390fd5b6001600160a01b038516611d97576040517f809fc44b00000000000000000000000000000000000000000000000000000000815260040160405180910390fd5b611da48585856000612b31565b50506002805460ff60a01b1916600160a01b17905592915050565b600254600160a01b900460ff16600114611e0257600254600119600160a01b90910460ff1601610889576040516376a9ad7360e01b815260040160405180910390fd5b6002805460ff60a01b191674020000000000000000000000000000000000000000179055604051611e3f908690869086908690869060200161436f565b60408051601f19818403018152918152815160209283012060008a81526009845282812060ff8b16825290935291205414611ea6576040517faba8b6ef00000000000000000000000000000000000000000000000000000000815260040160405180910390fd5b600087815260096020908152604080832060ff8a168452909152812055611ecd8484612b79565b611edc611ed984612585565b50565b8015611f83576040517f7cb590120000000000000000000000000000000000000000000000000000000081526001600160a01b037f00000000000000000000000000000000000000000000000000000000000000001690637cb5901290611f509087908b90600090889088906004016143e1565b600060405180830381600087803b158015611f6a57600080fd5b505af1158015611f7e573d6000803e3d6000fd5b505050505b6040805163ffffffff87168152602081018590526001600160a01b0386169189917fefed6d3500546b29533b128a29e3a94d70788727f0507505ac12eaf2e578fd9c910160405180910390a350506002805460ff60a01b1916600160a01b1790555050505050565b6005546001600160a01b031633811461201757604051635bd25eff60e01b815260040160405180910390fd5b4761202433826000612bbe565b6040518181527f19e23b96a5e0d494b59baca97d1fe386cf8e80a978dfd8845d25f1a9d5c7e18390602001611712565b6005546001600160a01b031633811461208057604051635bd25eff60e01b815260040160405180910390fd5b600254600119600160a01b90910460ff16016120af576040516376a9ad7360e01b815260040160405180910390fd5b816120bb5760016120be565b60035b6002805460ff92909216600160a01b0260ff60a01b1990921691909117905560405182151581527f878ac8a2ca79520471f8f3c8494fa802c03ce3bf034252aad7f22318984fdbdb90602001611712565b612117613602565b604080518082019091526000808252602082015261213685858561223e565b5090969095509350505050565b6007546001600160a01b031633811461216f57604051635bd25eff60e01b815260040160405180910390fd5b81600260158282829054906101000a900467ffffffffffffffff166121949190613fb7565b92506101000a81548167ffffffffffffffff021916908367ffffffffffffffff1602179055506121f6836121f18467ffffffffffffffff167f00000000000000000000000000000000000000000000000000000000000000000290565b612b79565b604080516001600160a01b038516815267ffffffffffffffff841660208201527fa46907b6b80b882da80d6e36cc905dde57fafff0a5442c8898526fe952d1e6539101611390565b612246613602565b6040805180820190915260008082526020820152604080518082019091526000815260606020820152600254600160a01b900460ff166001146122b257600254600119600160a01b90910460ff1601610889576040516376a9ad7360e01b815260040160405180910390fd5b6002805460ff60a01b191674020000000000000000000000000000000000000000179055600080806122e389612bff565b92509250925060405180604001604052806123278467ffffffffffffffff167f00000000000000000000000000000000000000000000000000000000000000000290565b81526020017f000000000000000000000000000000000000000000000000000000000000000067ffffffffffffffff841602905294506000612378612371368b90038b018b614432565b8751612c9d565b905083156123935761238c8a82848b612cf2565b96506123a5565b61239f8a82848b612e81565b90975094505b865133907f85496b760a4b7f8d66384b9df21b381f5d1b1e79f229a47aaf4c232edc2fe59a6123d760208e018e613a0b565b89516020808c01516040805163ffffffff90951685529184019290925282015260600160405180910390a350506002805460ff60a01b1916600160a01b1790555092969195509350915050565b61242c6128fc565b6001600160a01b0381166124c7576040517f08c379a000000000000000000000000000000000000000000000000000000000815260206004820152602660248201527f4f776e61626c653a206e6577206f776e657220697320746865207a65726f206160448201527f646472657373000000000000000000000000000000000000000000000000000060648201526084015b60405180910390fd5b611ed981612a3a565b825460009067ffffffffffffffff1667fffffffffffffffe198101612521576040517f5a5cc94600000000000000000000000000000000000000000000000000000000815260040160405180910390fd5b8067ffffffffffffffff168367ffffffffffffffff16101561257d5782810367ffffffffffffffff8082169086161161255a578461255c565b805b865467ffffffffffffffff191681840367ffffffffffffffff161787559250505b509392505050565b60006125bf7f000000000000000000000000000000000000000000000000000000000000000083816125b9576125b9614464565b0461307d565b92915050565b6040805160c08082018352600080835260208084018290528385018290526060808501839052608080860184905260a09586018490528651948501875233855263ffffffff8a1685840181905267ffffffffffffffff8a8116878a0152928601859052845260089092529490912054841690931492810192909252821515908201525b9392505050565b60007f7fffffffffffffffffffffffffffffffffffffffffffffffffffffffffffffff821115612701576040517f08c379a000000000000000000000000000000000000000000000000000000000815260206004820152602860248201527f53616665436173743a2076616c756520646f65736e27742066697420696e206160448201527f6e20696e7432353600000000000000000000000000000000000000000000000060648201526084016124be565b5090565b60608484848460405160200161271e9493929190614493565b6040516020818303038152906040529050949350505050565b6040517f40c10f190000000000000000000000000000000000000000000000000000000081526001600160a01b038381166004830152602482018390526000917f0000000000000000000000000000000000000000000000000000000000000000909116906340c10f1990604401600060405180830381600087803b1580156127bf57600080fd5b505af19250505080156127d0575060015b156125bf5750600192915050565b3415611ed9576040517f3442dd9500000000000000000000000000000000000000000000000000000000815260040160405180910390fd5b600061282182612585565b90506001600160a01b037f0000000000000000000000000000000000000000000000000000000000000000166379cc6790847f000000000000000000000000000000000000000000000000000000000000000067ffffffffffffffff8516026040517fffffffff0000000000000000000000000000000000000000000000000000000060e085901b1681526001600160a01b0390921660048301526024820152604401600060405180830381600087803b1580156128de57600080fd5b505af11580156128f2573d6000803e3d6000fd5b5050505092915050565b6000546001600160a01b03163314611b4c576040517f08c379a000000000000000000000000000000000000000000000000000000000815260206004820181905260248201527f4f776e61626c653a2063616c6c6572206973206e6f7420746865206f776e657260448201526064016124be565b815467ffffffffffffffff1681156129e25767ffffffffffffffff8116156129c4576040517fca2bc39800000000000000000000000000000000000000000000000000000000815260040160405180910390fd5b825467ffffffffffffffff191667ffffffffffffffff178355505050565b67ffffffffffffffff81811614612a25576040517fca2bc39800000000000000000000000000000000000000000000000000000000815260040160405180910390fd5b825467ffffffffffffffff191683555b505050565b600080546001600160a01b0383811673ffffffffffffffffffffffffffffffffffffffff19831681178455604051919092169283917f8be0079c531659141344cd1fd0a4f28419497f9722a3daafe3b4186f6b6457e09190a35050565b815467ffffffffffffffff1667fffffffffffffffe198101612ab857505050565b612ac28282614123565b905067fffffffffffffffe1967ffffffffffffffff821601612b10576040517f5a5cc94600000000000000000000000000000000000000000000000000000000815260040160405180910390fd5b825467ffffffffffffffff191667ffffffffffffffff919091161790915550565b612b3d84848484613117565b612b73576040517f7c75c3d200000000000000000000000000000000000000000000000000000000815260040160405180910390fd5b50505050565b6000612b858383612737565b905080612a35576040517f06a6167e00000000000000000000000000000000000000000000000000000000815260040160405180910390fd5b612bc983838361314c565b612a35576040517f7c75c3d200000000000000000000000000000000000000000000000000000000815260040160405180910390fd5b60008080612c13610be860c0860186613f35565b9250612c23338560400135612816565b91506000612c3e612c376020870187613a0b565b84866125c5565b9050612c5681612c518760600135612585565b613173565b9150612c958260086000612c6d60208a018a613a0b565b63ffffffff1663ffffffff16815260200190815260200160002061336890919063ffffffff16565b509193909250565b604080518082019091526000808252602082015282513414612ceb576040517f3442dd9500000000000000000000000000000000000000000000000000000000815260040160405180910390fd5b5090919050565b612cfa613602565b602084015115612d1157612d1184602001516133f6565b60065484516040805160c081019091523381526001600160a01b039092169163ff6fb3009190602080820190612d49908b018b613a0b565b63ffffffff16815260208a8101359082015267ffffffffffffffff88166040820152606001612d7b60a08b018b613f35565b8080601f016020809104026020016040519081016040528093929190818152602001838380828437600092019190915250505090825250602001612dc260808b018b613f35565b8080601f01602080910402602001604051908101604052809392919081815260200183838082843760009201919091525050509152506040517fffffffff0000000000000000000000000000000000000000000000000000000060e085901b168152612e35919089908890600401614511565b60806040518083038185885af1158015612e53573d6000803e3d6000fd5b50505050506040513d601f19601f82011682018060405250810190612e7891906145c1565b95945050505050565b612e89613602565b604080518082019091526000815260606020820152602085015115612eda576040517fb5e0bf8d00000000000000000000000000000000000000000000000000000000815260040160405180910390fd5b6006546040805160a081019091523381526001600160a01b03909116906385afd45390602080820190612f0f908b018b613a0b565b63ffffffff16815260208a8101359082015267ffffffffffffffff881660408201526060016000612f4360808c018c613f35565b9190911190915250604080517fffffffff0000000000000000000000000000000000000000000000000000000060e085901b16815282516001600160a01b03166004820152602083015163ffffffff166024820152908201516044820152606082015167ffffffffffffffff1660648201526080909101511515608482015260a4016000604051808303816000875af1158015612fe4573d6000803e3d6000fd5b505050506040513d6000823e601f3d908101601f1916820160405261300c91908101906145dd565b6040820151518751929450909250908082146130725781811115613040578181036130398682600061314c565b5050613072565b6040517fa028531600000000000000000000000000000000000000000000000000000000815260040160405180910390fd5b505094509492505050565b600067ffffffffffffffff821115612701576040517f08c379a000000000000000000000000000000000000000000000000000000000815260206004820152602660248201527f53616665436173743a2076616c756520646f65736e27742066697420696e203660448201527f342062697473000000000000000000000000000000000000000000000000000060648201526084016124be565b60006001600160a01b0385166131395761313284848461314c565b9050613144565b612e78858585613469565b949350505050565b6000808261315a575a61315e565b6001545b9050600080600080878986f195945050505050565b600254604080517f43d9564d00000000000000000000000000000000000000000000000000000000815284516001600160a01b039081166004830152602086015163ffffffff1660248301529185015167ffffffffffffffff9081166044830152606086015116606482015260808501511515608482015260a0850151151560a482015260009291909116906343d9564d9060c4016020604051808303816000875af1158015613227573d6000803e3d6000fd5b505050506040513d601f19601f8201168201806040525081019061324b9190613f9a565b604084015190915067ffffffffffffffff80821690831610156132d2576132728282613fb7565b600280546015906132a79084907501000000000000000000000000000000000000000000900467ffffffffffffffff16614123565b92506101000a81548167ffffffffffffffff021916908367ffffffffffffffff160217905550613300565b8067ffffffffffffffff168267ffffffffffffffff1611156133005760006132fa8284613fb7565b90920391505b8267ffffffffffffffff168267ffffffffffffffff16108061332a575067ffffffffffffffff8216155b15613361576040517fa1e8654500000000000000000000000000000000000000000000000000000000815260040160405180910390fd5b5092915050565b815467ffffffffffffffff1667fffffffffffffffe19810161338957505050565b8167ffffffffffffffff168167ffffffffffffffff1610156133d7576040517f2b4d0ad500000000000000000000000000000000000000000000000000000000815260040160405180910390fd5b825467ffffffffffffffff191691900367ffffffffffffffff16179055565b6004546001600160a01b031680613439576040517fb5e0bf8d00000000000000000000000000000000000000000000000000000000815260040160405180910390fd5b61346581337f000000000000000000000000000000000000000000000000000000000000000085613515565b5050565b6040516001600160a01b0383166024820152604481018290526000906131449085907fa9059cbb00000000000000000000000000000000000000000000000000000000906064015b60408051601f198184030181529190526020810180517bffffffffffffffffffffffffffffffffffffffffffffffffffffffff167fffffffff0000000000000000000000000000000000000000000000000000000090931692909217909152613521565b612b3d848484846135ae565b6000806000846001600160a01b03168460405161353e91906146d2565b6000604051808303816000865af19150503d806000811461357b576040519150601f19603f3d011682016040523d82523d6000602084013e613580565b606091505b509150915081613591576000612e78565b80511580612e78575080806020019051810190612e7891906146ee565b6040516001600160a01b0380851660248301528316604482015260648101829052600090612e789086907f23b872dd00000000000000000000000000000000000000000000000000000000906084016134b1565b604051806060016040528060008019168152602001600067ffffffffffffffff168152602001613645604051806040016040528060008152602001600081525090565b905290565b803563ffffffff8116811461365e57600080fd5b919050565b60008060006040848603121561367857600080fd5b6136818461364a565b9250602084013567ffffffffffffffff8082111561369e57600080fd5b818601915086601f8301126136b257600080fd5b8135818111156136c157600080fd5b8760206060830285010111156136d657600080fd5b6020830194508093505050509250925092565b60008151808452602080850194506020840160005b83811015613735578151805163ffffffff16885283015167ffffffffffffffff1683880152604090960195908201906001016136fe565b509495945050505050565b60208152600061264860208301846136e9565b600060e0828403121561376557600080fd5b50919050565b60006020828403121561377d57600080fd5b813567ffffffffffffffff81111561379457600080fd5b61314484828501613753565b60005b838110156137bb5781810151838201526020016137a3565b50506000910152565b600081518084526137dc8160208601602086016137a0565b601f01601f19169290920160200192915050565b8351815260208085015190820152600060a08201604060a0604085015281865180845260c08601915060c08160051b8701019350602080890160005b83811015613889578887037fffffffffffffffffffffffffffffffffffffffffffffffffffffffffffffff40018552815180518852830151838801879052613876878901826137c4565b975050938201939082019060010161382c565b50508751606088015250505060208501516080850152509050613144565b60208101600283106138e2577f4e487b7100000000000000000000000000000000000000000000000000000000600052602160045260246000fd5b91905290565b60006060828403121561376557600080fd5b80356001600160a01b038116811461365e57600080fd5b67ffffffffffffffff81168114611ed957600080fd5b60008083601f84011261393957600080fd5b50813567ffffffffffffffff81111561395157600080fd5b60208301915083602082850101111561396957600080fd5b9250929050565b60008060008060008060e0878903121561398957600080fd5b61399388886138e8565b9550606087013594506139a8608088016138fa565b935060a08701356139b881613911565b925060c087013567ffffffffffffffff8111156139d457600080fd5b6139e089828a01613927565b979a9699509497509295939492505050565b600060208284031215613a0457600080fd5b5035919050565b600060208284031215613a1d57600080fd5b6126488261364a565b8015158114611ed957600080fd5b60008060408385031215613a4757600080fd5b823567ffffffffffffffff811115613a5e57600080fd5b613a6a85828601613753565b9250506020830135613a7b81613a26565b809150509250929050565b8151815260208083015190820152604081016125bf565b60008060408385031215613ab057600080fd5b613ab98361364a565b91506020830135613a7b81613a26565b803560ff8116811461365e57600080fd5b600080600080600060e08688031215613af257600080fd5b613afc87876138e8565b945060608601359350613b1160808701613ac9565b9250613b1f60a087016138fa565b915060c0860135613b2f81613911565b809150509295509295909350565b600060c0828403121561376557600080fd5b600080600060408486031215613b6457600080fd5b613b6d8461364a565b9250602084013567ffffffffffffffff80821115613b8a57600080fd5b818601915086601f830112613b9e57600080fd5b813581811115613bad57600080fd5b8760208260061b85010111156136d657600080fd5b600080600060608486031215613bd757600080fd5b613be0846138fa565b9250613bee602085016138fa565b9150604084013590509250925092565b600080600080600080600060c0888a031215613c1957600080fd5b87359650613c2960208901613ac9565b9550613c376040890161364a565b9450613c45606089016138fa565b93506080880135925060a088013567ffffffffffffffff811115613c6857600080fd5b613c748a828b01613927565b989b979a50959850939692959293505050565b600060208284031215613c9957600080fd5b813561264881613a26565b60008060008385036080811215613cba57600080fd5b843567ffffffffffffffff811115613cd157600080fd5b613cdd87828801613753565b9450506040601f1982011215613cf257600080fd5b50602084019150613d05606085016138fa565b90509250925092565b8051825267ffffffffffffffff60208201511660208301526040810151612a35604084018280518252602090810151910152565b60c08101613d508285613d0e565b82516080830152602083015160a0830152612648565b60008060408385031215613d7957600080fd5b613d82836138fa565b91506020830135613a7b81613911565b613d9c8185613d0e565b82516080820152602083015160a082015260e060c082015268ffffffffffffffffff82511660e0820152600060208301516040610100840152613de36101208401826137c4565b9695505050505050565b60008060408385031215613e0057600080fd5b82359150613e1060208401613ac9565b90509250929050565b600060208284031215613e2b57600080fd5b612648826138fa565b7f4e487b7100000000000000000000000000000000000000000000000000000000600052604160045260246000fd5b7f4e487b7100000000000000000000000000000000000000000000000000000000600052603260045260246000fd5b600060208284031215613ea457600080fd5b813561264881613911565b7f4e487b7100000000000000000000000000000000000000000000000000000000600052601160045260246000fd5b60007fffffffffffffffffffffffffffffffffffffffffffffffffffffffffffffffff8203613f0f57613f0f613eaf565b5060010190565b63ffffffff8316815260406020820152600061314460408301846136e9565b60008083357fffffffffffffffffffffffffffffffffffffffffffffffffffffffffffffffe1843603018112613f6a57600080fd5b83018035915067ffffffffffffffff821115613f8557600080fd5b60200191503681900382131561396957600080fd5b600060208284031215613fac57600080fd5b815161264881613911565b67ffffffffffffffff82811682821603908082111561336157613361613eaf565b808202600082127f80000000000000000000000000000000000000000000000000000000000000008414161561401057614010613eaf565b81810583148215176125bf576125bf613eaf565b6001600160a01b038516815283602082015261ffff83166040820152608060608201526000613de360808301846137c4565b7fffffffff000000000000000000000000000000000000000000000000000000008560e01b1681527fffffffffffffffffffffffffffffffffffffffff0000000000000000000000008460601b166004820152826018820152600082516140c48160388501602087016137a0565b9190910160380195945050505050565b86815260ff8616602082015263ffffffff851660408201526001600160a01b038416606082015282608082015260c060a0820152600061411760c08301846137c4565b98975050505050505050565b67ffffffffffffffff81811683821601908082111561336157613361613eaf565b6001600160a01b03815116825263ffffffff60208201511660208301526040810151604083015267ffffffffffffffff60608201511660608301526000608082015160c0608085015261419a60c08501826137c4565b905060a083015184820360a0860152612e7882826137c4565b6040815260006141c66040830185614144565b905082151560208301529392505050565b6040805190810167ffffffffffffffff811182821017156141fa576141fa613e34565b60405290565b604051601f8201601f1916810167ffffffffffffffff8111828210171561422957614229613e34565b604052919050565b60006040828403121561424357600080fd5b61424b6141d7565b9050815181526020820151602082015292915050565b60006040828403121561427357600080fd5b6126488383614231565b60c081016001600160a01b0380614293856138fa565b168352806142a3602086016138fa565b166020840152806142b6604086016138fa565b166040840152806142c9606086016138fa565b166060840152806142dc608086016138fa565b166080840152806142ef60a086016138fa565b1660a08401525092915050565b63ffffffff848116825260406020808401829052838201859052600092869160608601855b8881101561436157836143338661364a565b1682528285013561434381613911565b67ffffffffffffffff16828401529385019390850190600101614321565b509998505050505050505050565b7fffffffff000000000000000000000000000000000000000000000000000000008660e01b1681527fffffffffffffffffffffffffffffffffffffffff0000000000000000000000008560601b1660048201528360188201528183603883013760009101603801908152949350505050565b6001600160a01b038616815284602082015261ffff8416604082015260806060820152816080820152818360a0830137600081830160a090810191909152601f909201601f19160101949350505050565b60006040828403121561444457600080fd5b61444c6141d7565b82358152602083013560208201528091505092915050565b7f4e487b7100000000000000000000000000000000000000000000000000000000600052601260045260246000fd5b7fffffffffffffffff0000000000000000000000000000000000000000000000008560c01b1681527fffffffff000000000000000000000000000000000000000000000000000000008460e01b16600882015282600c8201526000825161450181602c8501602087016137a0565b91909101602c0195945050505050565b6080815260006145246080830186614144565b905061453d602083018580518252602090810151910152565b6001600160a01b0383166060830152949350505050565b60006080828403121561456657600080fd5b6040516060810181811067ffffffffffffffff8211171561458957614589613e34565b80604052508091508251815260208301516145a381613911565b60208201526145b58460408501614231565b60408201525092915050565b6000608082840312156145d357600080fd5b6126488383614554565b60008060a083850312156145f057600080fd5b6145fa8484614554565b9150608083015167ffffffffffffffff8082111561461757600080fd5b908401906040828703121561462b57600080fd5b6146336141d7565b825168ffffffffffffffffff8116811461464c57600080fd5b81526020838101518381111561466157600080fd5b80850194505087601f85011261467657600080fd5b83518381111561468857614688613e34565b61469a82601f19601f84011601614200565b935080845288828287010111156146b057600080fd5b6146bf818386018488016137a0565b5081019190915292959294509192505050565b600082516146e48184602087016137a0565b9190910192915050565b60006020828403121561470057600080fd5b815161264881613a2656fea2646970667358221220e9244025063a7f881893b6ca6c1be0fa7ef2f15d10f90ff230c869d5c0b43cc264736f6c63430008160033",
  "devdoc": {
    "kind": "dev",
    "methods": {
      "addTreasuryFee(uint256)": {
        "details": "Only used for increasing the overall budget for transaction rewardsThe treasuryFee is essentially the reward pool.Rewards are capped to the treasury amount, which limits exposure soStargate does not pay beyond what it's charged.",
        "params": {
          "_amountLD": "The amount to add in LD"
        }
      },
      "approvalRequired()": {
        "details": "Implements the IOFT interface.",
        "returns": {
          "_0": "Whether approval of the underlying token implementation is required"
        }
      },
      "constructor": {
        "params": {
          "_endpoint": "The LZ endpoint address",
          "_owner": "The account owning this contract",
          "_sharedDecimals": "The minimum number of decimals used to represent value in this OFT",
          "_token": "The OFT to administer"
        }
      },
      "getAddressConfig()": {
        "returns": {
          "_0": "An AddressConfig struct containing the current configuration"
        }
      },
      "oftVersion()": {
        "details": "Implements the IOFT interface.0 version means the message encoding is not compatible with the default OFT.",
        "returns": {
          "interfaceId": "The ERC165 interface ID for this contract",
          "version": "The cross-chain compatible message encoding version."
        }
      },
      "owner()": {
        "details": "Returns the address of the current owner."
      },
      "quoteOFT((uint32,bytes32,uint256,uint256,bytes,bytes,bytes))": {
        "details": "Implements the IOFT interface",
        "params": {
          "_sendParam": "The parameters for the send operation"
        },
        "returns": {
          "limit": "The information on OFT transfer limits",
          "oftFeeDetails": "The details of OFT transaction cost or reward",
          "receipt": "The OFT receipt information, indicating how many tokens would be sent and received"
        }
      },
      "quoteSend((uint32,bytes32,uint256,uint256,bytes,bytes,bytes),bool)": {
        "details": "Implements the IOFT interface.Reverts with InvalidAmount if send mode is drive but value is specified.MessagingFee: LayerZero message fee   - nativeFee: The native fee.   - lzTokenFee: The LZ token fee.",
        "params": {
          "_payInLzToken": "Flag indicating whether the caller is paying in the LZ token",
          "_sendParam": "The parameters for the send() operation"
        },
        "returns": {
          "fee": "The calculated LayerZero messaging fee from the send() operation"
        }
      },
      "receiveCredits(uint32,(uint32,uint64)[])": {
        "details": "Emits CreditsReceived when credits are received",
        "params": {
          "_credits": "An array indicating to which paths and how much credits to add",
          "_srcEid": "The endpoint ID of the source of credits"
        }
      },
      "receiveTokenBus((uint32,bytes32,uint64),bytes32,uint8,address,uint64)": {
        "details": "Emits OFTReceived when the OFT token is correctly receivedEmits UnreceivedTokenCached when the OFT token is not received",
        "params": {
          "_guid": "The global unique ID for this message, useful for composing",
          "_origin": "The Origin struct describing the origin, useful for composing"
        }
      },
      "recoverToken(address,address,uint256)": {
        "details": "Recover tokens sent to this contract by mistake.Only the treasurer can recover the token.Reverts with Stargate_RecoverTokenUnsupported if the treasurer attempts to withdraw StargateBase.token().",
        "params": {
          "_amount": "the amount to send",
          "_to": "the address to send the token to",
          "_token": "the token to recover. if 0x0 then it is native token"
        }
      },
      "renounceOwnership()": {
        "details": "Leaves the contract without owner. It will not be possible to call `onlyOwner` functions. Can only be called by the current owner. NOTE: Renouncing ownership will leave the contract without an owner, thereby disabling any functionality that is only available to the owner."
      },
      "retryReceiveToken(bytes32,uint8,uint32,address,uint256,bytes)": {
        "details": "The message has been delivered by the Messaging layer, so it is ok for anyone to retry.try to receive the token if the previous attempt failed in lzReceiveReverts with UnreceivedTokenNotFound if the message is not found in the cacheEmits OFTReceived if the receive succeeds",
        "params": {
          "_amountLD": "The amount of tokens in LD to transfer to the account",
          "_composeMsg": "The bytes representing the compose message in the message that failed",
          "_guid": "The global unique ID for the message that failed",
          "_index": "The index of the message that failed",
          "_receiver": "The account receiver for the message that failed",
          "_srcEid": "The source endpoint ID for the message that failed"
        }
      },
      "send((uint32,bytes32,uint256,uint256,bytes,bytes,bytes),(uint256,uint256),address)": {
        "details": "Emits OFTSent when the send is successful",
        "params": {
          "_fee": "The MessagingFee object describing the fee to pay",
          "_refundAddress": "The address to refund any LZ fees paid in excess",
          "_sendParam": "The SendParam object detailing the transaction"
        },
        "returns": {
          "msgReceipt": "The receipt proving the message was sent",
          "oftReceipt": "The receipt proving the OFT swap"
        }
      },
      "sendToken((uint32,bytes32,uint256,uint256,bytes,bytes,bytes),(uint256,uint256),address)": {
        "details": "This function is same as `send` in OFT interface but returns the ticket data if in the bus ride mode, which allows the caller to ride and drive the bus in the same transaction."
      },
      "setAddressConfig((address,address,address,address,address,address))": {
        "params": {
          "_config": "An AddressConfig object containing the addresses for the different roles used by Stargate."
        }
      },
      "setOFTPath(uint32,bool)": {
        "details": "Set the path as OFT if the remote chain is using OFT.When migrating from OFT to pool on remote chain (e.g. migrate USDC to circles), reset the path to non-OFT.Reverts with InvalidPath if the destination chain is the same as local.",
        "params": {
          "_dstEid": "The destination chain endpoint ID",
          "_oft": "Whether to set or reset the path"
        }
      },
      "setPause(bool)": {
        "details": "Be careful with this call, as it unsets the re-entry guard.",
        "params": {
          "_paused": "Whether to pause or unpause the stargate"
        }
      },
      "stargateType()": {
        "details": "Fulfills the IStargate interface.",
        "returns": {
          "_0": "The type of Stargate contract"
        }
      },
      "transferOwnership(address)": {
        "details": "Transfers ownership of the contract to a new account (`newOwner`). Can only be called by the current owner."
      },
      "withdrawPlannerFee()": {
        "details": "The planner fee is accumulated in StargateBase to avoid the cost of passing msg.value to TokenMessaging."
      },
      "withdrawTreasuryFee(address,uint64)": {
        "params": {
          "_amountSD": "The amount to withdraw in SD",
          "_to": "The destination account"
        }
      }
    },
    "title": "A Stargate contract representing an OFT. This contract will burn OFTs when sending tokensto other chains and mint tokens when receiving them from other chains.",
    "version": 1
  },
  "userdoc": {
    "kind": "user",
    "methods": {
      "addTreasuryFee(uint256)": {
        "notice": "Add tokens to the treasury, from the senders account."
      },
      "approvalRequired()": {
        "notice": "Indicates whether the OFT contract requires approval of the 'token()' to send."
      },
      "constructor": {
        "notice": "Create a StargateOFT contract administering an OFT."
      },
      "getAddressConfig()": {
        "notice": "Returns the current roles configured."
      },
      "oftVersion()": {
        "notice": "Get the OFT version information"
      },
      "quoteOFT((uint32,bytes32,uint256,uint256,bytes,bytes,bytes))": {
        "notice": "Provides a quote for sending OFT to another chain."
      },
      "quoteSend((uint32,bytes32,uint256,uint256,bytes,bytes,bytes),bool)": {
        "notice": "Provides a quote for the send() operation."
      },
      "receiveCredits(uint32,(uint32,uint64)[])": {
        "notice": "Entrypoint for receiving credits into paths"
      },
      "receiveTokenBus((uint32,bytes32,uint64),bytes32,uint8,address,uint64)": {
        "notice": "Entrypoint for receiving tokens"
      },
      "retryReceiveToken(bytes32,uint8,uint32,address,uint256,bytes)": {
        "notice": "Retry receiving a token that initially failed."
      },
      "send((uint32,bytes32,uint256,uint256,bytes,bytes,bytes),(uint256,uint256),address)": {
        "notice": "Send tokens through the Stargate"
      },
      "setAddressConfig((address,address,address,address,address,address))": {
        "notice": "Configure the roles for this contract."
      },
      "setOFTPath(uint32,bool)": {
        "notice": "Sets a given Path as using OFT or resets it from OFT."
      },
      "setPause(bool)": {
        "notice": "Pause or unpause a Stargate"
      },
      "stargateType()": {
        "notice": "Returns the type of Stargate contract."
      },
      "withdrawPlannerFee()": {
        "notice": "Withdraw planner fees accumulated in StargateBase."
      },
      "withdrawTreasuryFee(address,uint64)": {
        "notice": "Withdraw from the accrued fees in the treasury."
      }
    },
    "version": 1
  },
  "storageLayout": {
    "storage": [
      {
        "astId": 2988,
        "contract": "src/StargateOFT.sol:StargateOFT",
        "label": "_owner",
        "offset": 0,
        "slot": "0",
        "type": "t_address"
      },
      {
        "astId": 13687,
        "contract": "src/StargateOFT.sol:StargateOFT",
        "label": "transferGasLimit",
        "offset": 0,
        "slot": "1",
        "type": "t_uint256"
      },
      {
        "astId": 8554,
        "contract": "src/StargateOFT.sol:StargateOFT",
        "label": "feeLib",
        "offset": 0,
        "slot": "2",
        "type": "t_address"
      },
      {
        "astId": 8558,
        "contract": "src/StargateOFT.sol:StargateOFT",
        "label": "status",
        "offset": 20,
        "slot": "2",
        "type": "t_uint8"
      },
      {
        "astId": 8561,
        "contract": "src/StargateOFT.sol:StargateOFT",
        "label": "treasuryFee",
        "offset": 21,
        "slot": "2",
        "type": "t_uint64"
      },
      {
        "astId": 8563,
        "contract": "src/StargateOFT.sol:StargateOFT",
        "label": "creditMessaging",
        "offset": 0,
        "slot": "3",
        "type": "t_address"
      },
      {
        "astId": 8565,
        "contract": "src/StargateOFT.sol:StargateOFT",
        "label": "lzToken",
        "offset": 0,
        "slot": "4",
        "type": "t_address"
      },
      {
        "astId": 8567,
        "contract": "src/StargateOFT.sol:StargateOFT",
        "label": "planner",
        "offset": 0,
        "slot": "5",
        "type": "t_address"
      },
      {
        "astId": 8569,
        "contract": "src/StargateOFT.sol:StargateOFT",
        "label": "tokenMessaging",
        "offset": 0,
        "slot": "6",
        "type": "t_address"
      },
      {
        "astId": 8571,
        "contract": "src/StargateOFT.sol:StargateOFT",
        "label": "treasurer",
        "offset": 0,
        "slot": "7",
        "type": "t_address"
      },
      {
        "astId": 8577,
        "contract": "src/StargateOFT.sol:StargateOFT",
        "label": "paths",
        "offset": 0,
        "slot": "8",
        "type": "t_mapping(t_uint32,t_struct(Path)13298_storage)"
      },
      {
        "astId": 8584,
        "contract": "src/StargateOFT.sol:StargateOFT",
        "label": "unreceivedTokens",
        "offset": 0,
        "slot": "9",
        "type": "t_mapping(t_bytes32,t_mapping(t_uint8,t_bytes32))"
      }
    ],
    "types": {
      "t_address": {
        "encoding": "inplace",
        "label": "address",
        "numberOfBytes": "20"
      },
      "t_bytes32": {
        "encoding": "inplace",
        "label": "bytes32",
        "numberOfBytes": "32"
      },
      "t_mapping(t_bytes32,t_mapping(t_uint8,t_bytes32))": {
        "encoding": "mapping",
        "key": "t_bytes32",
        "label": "mapping(bytes32 => mapping(uint8 => bytes32))",
        "numberOfBytes": "32",
        "value": "t_mapping(t_uint8,t_bytes32)"
      },
      "t_mapping(t_uint32,t_struct(Path)13298_storage)": {
        "encoding": "mapping",
        "key": "t_uint32",
        "label": "mapping(uint32 => struct Path)",
        "numberOfBytes": "32",
        "value": "t_struct(Path)13298_storage"
      },
      "t_mapping(t_uint8,t_bytes32)": {
        "encoding": "mapping",
        "key": "t_uint8",
        "label": "mapping(uint8 => bytes32)",
        "numberOfBytes": "32",
        "value": "t_bytes32"
      },
      "t_struct(Path)13298_storage": {
        "encoding": "inplace",
        "label": "struct Path",
        "members": [
          {
            "astId": 13297,
            "contract": "src/StargateOFT.sol:StargateOFT",
            "label": "credit",
            "offset": 0,
            "slot": "0",
            "type": "t_uint64"
          }
        ],
        "numberOfBytes": "32"
      },
      "t_uint256": {
        "encoding": "inplace",
        "label": "uint256",
        "numberOfBytes": "32"
      },
      "t_uint32": {
        "encoding": "inplace",
        "label": "uint32",
        "numberOfBytes": "4"
      },
      "t_uint64": {
        "encoding": "inplace",
        "label": "uint64",
        "numberOfBytes": "8"
      },
      "t_uint8": {
        "encoding": "inplace",
        "label": "uint8",
        "numberOfBytes": "1"
      }
    }
  }
}