{
  "address": "0x3AdAE7Ad0449e26ad2e95059e08CC29ECB93E194",
  "abi": [
    {
      "anonymous": false,
      "inputs": [
        {
          "indexed": true,
          "internalType": "address",
          "name": "owner",
          "type": "address"
        },
        {
          "indexed": true,
          "internalType": "address",
          "name": "spender",
          "type": "address"
        },
        {
          "indexed": false,
          "internalType": "uint256",
          "name": "value",
          "type": "uint256"
        }
      ],
      "name": "Approval",
      "type": "event"
    },
    {
      "anonymous": false,
      "inputs": [
        {
          "indexed": true,
          "internalType": "address",
          "name": "authorizer",
          "type": "address"
        },
        {
          "indexed": true,
          "internalType": "bytes32",
          "name": "nonce",
          "type": "bytes32"
        }
      ],
      "name": "AuthorizationCanceled",
      "type": "event"
    },
    {
      "anonymous": false,
      "inputs": [
        {
          "indexed": true,
          "internalType": "address",
          "name": "authorizer",
          "type": "address"
        },
        {
          "indexed": true,
          "internalType": "bytes32",
          "name": "nonce",
          "type": "bytes32"
        }
      ],
      "name": "AuthorizationUsed",
      "type": "event"
    },
    {
      "anonymous": false,
      "inputs": [
        {
          "indexed": true,
          "internalType": "address",
          "name": "_account",
          "type": "address"
        }
      ],
      "name": "Blacklisted",
      "type": "event"
    },
    {
      "anonymous": false,
      "inputs": [
        {
          "indexed": true,
          "internalType": "address",
          "name": "newBlacklister",
          "type": "address"
        }
      ],
      "name": "BlacklisterChanged",
      "type": "event"
    },
    {
      "anonymous": false,
      "inputs": [
        {
          "indexed": true,
          "internalType": "address",
          "name": "burner",
          "type": "address"
        },
        {
          "indexed": false,
          "internalType": "uint256",
          "name": "amount",
          "type": "uint256"
        }
      ],
      "name": "Burn",
      "type": "event"
    },
    {
      "anonymous": false,
      "inputs": [
        {
          "indexed": true,
          "internalType": "address",
          "name": "newMasterMinter",
          "type": "address"
        }
      ],
      "name": "MasterMinterChanged",
      "type": "event"
    },
    {
      "anonymous": false,
      "inputs": [
        {
          "indexed": true,
          "internalType": "address",
          "name": "minter",
          "type": "address"
        },
        {
          "indexed": true,
          "internalType": "address",
          "name": "to",
          "type": "address"
        },
        {
          "indexed": false,
          "internalType": "uint256",
          "name": "amount",
          "type": "uint256"
        }
      ],
      "name": "Mint",
      "type": "event"
    },
    {
      "anonymous": false,
      "inputs": [
        {
          "indexed": true,
          "internalType": "address",
          "name": "minter",
          "type": "address"
        },
        {
          "indexed": false,
          "internalType": "uint256",
          "name": "minterAllowedAmount",
          "type": "uint256"
        }
      ],
      "name": "MinterConfigured",
      "type": "event"
    },
    {
      "anonymous": false,
      "inputs": [
        {
          "indexed": true,
          "internalType": "address",
          "name": "oldMinter",
          "type": "address"
        }
      ],
      "name": "MinterRemoved",
      "type": "event"
    },
    {
      "anonymous": false,
      "inputs": [
        {
          "indexed": false,
          "internalType": "address",
          "name": "previousOwner",
          "type": "address"
        },
        {
          "indexed": false,
          "internalType": "address",
          "name": "newOwner",
          "type": "address"
        }
      ],
      "name": "OwnershipTransferred",
      "type": "event"
    },
    {
      "anonymous": false,
      "inputs": [],
      "name": "Pause",
      "type": "event"
    },
    {
      "anonymous": false,
      "inputs": [
        {
          "indexed": true,
          "internalType": "address",
          "name": "newAddress",
          "type": "address"
        }
      ],
      "name": "PauserChanged",
      "type": "event"
    },
    {
      "anonymous": false,
      "inputs": [
        {
          "indexed": true,
          "internalType": "address",
          "name": "newRescuer",
          "type": "address"
        }
      ],
      "name": "RescuerChanged",
      "type": "event"
    },
    {
      "anonymous": false,
      "inputs": [
        {
          "indexed": true,
          "internalType": "address",
          "name": "from",
          "type": "address"
        },
        {
          "indexed": true,
          "internalType": "address",
          "name": "to",
          "type": "address"
        },
        {
          "indexed": false,
          "internalType": "uint256",
          "name": "value",
          "type": "uint256"
        }
      ],
      "name": "Transfer",
      "type": "event"
    },
    {
      "anonymous": false,
      "inputs": [
        {
          "indexed": true,
          "internalType": "address",
          "name": "_account",
          "type": "address"
        }
      ],
      "name": "UnBlacklisted",
      "type": "event"
    },
    {
      "anonymous": false,
      "inputs": [],
      "name": "Unpause",
      "type": "event"
    },
    {
      "inputs": [],
      "name": "CANCEL_AUTHORIZATION_TYPEHASH",
      "outputs": [
        {
          "internalType": "bytes32",
          "name": "",
          "type": "bytes32"
        }
      ],
      "stateMutability": "view",
      "type": "function"
    },
    {
      "inputs": [],
      "name": "DOMAIN_SEPARATOR",
      "outputs": [
        {
          "internalType": "bytes32",
          "name": "",
          "type": "bytes32"
        }
      ],
      "stateMutability": "view",
      "type": "function"
    },
    {
      "inputs": [],
      "name": "PERMIT_TYPEHASH",
      "outputs": [
        {
          "internalType": "bytes32",
          "name": "",
          "type": "bytes32"
        }
      ],
      "stateMutability": "view",
      "type": "function"
    },
    {
      "inputs": [],
      "name": "RECEIVE_WITH_AUTHORIZATION_TYPEHASH",
      "outputs": [
        {
          "internalType": "bytes32",
          "name": "",
          "type": "bytes32"
        }
      ],
      "stateMutability": "view",
      "type": "function"
    },
    {
      "inputs": [],
      "name": "TRANSFER_WITH_AUTHORIZATION_TYPEHASH",
      "outputs": [
        {
          "internalType": "bytes32",
          "name": "",
          "type": "bytes32"
        }
      ],
      "stateMutability": "view",
      "type": "function"
    },
    {
      "inputs": [
        {
          "internalType": "address",
          "name": "owner",
          "type": "address"
        },
        {
          "internalType": "address",
          "name": "spender",
          "type": "address"
        }
      ],
      "name": "allowance",
      "outputs": [
        {
          "internalType": "uint256",
          "name": "",
          "type": "uint256"
        }
      ],
      "stateMutability": "view",
      "type": "function"
    },
    {
      "inputs": [
        {
          "internalType": "address",
          "name": "spender",
          "type": "address"
        },
        {
          "internalType": "uint256",
          "name": "value",
          "type": "uint256"
        }
      ],
      "name": "approve",
      "outputs": [
        {
          "internalType": "bool",
          "name": "",
          "type": "bool"
        }
      ],
      "stateMutability": "nonpayable",
      "type": "function"
    },
    {
      "inputs": [
        {
          "internalType": "address",
          "name": "authorizer",
          "type": "address"
        },
        {
          "internalType": "bytes32",
          "name": "nonce",
          "type": "bytes32"
        }
      ],
      "name": "authorizationState",
      "outputs": [
        {
          "internalType": "bool",
          "name": "",
          "type": "bool"
        }
      ],
      "stateMutability": "view",
      "type": "function"
    },
    {
      "inputs": [
        {
          "internalType": "address",
          "name": "account",
          "type": "address"
        }
      ],
      "name": "balanceOf",
      "outputs": [
        {
          "internalType": "uint256",
          "name": "",
          "type": "uint256"
        }
      ],
      "stateMutability": "view",
      "type": "function"
    },
    {
      "inputs": [
        {
          "internalType": "address",
          "name": "_account",
          "type": "address"
        }
      ],
      "name": "blacklist",
      "outputs": [],
      "stateMutability": "nonpayable",
      "type": "function"
    },
    {
      "inputs": [],
      "name": "blacklister",
      "outputs": [
        {
          "internalType": "address",
          "name": "",
          "type": "address"
        }
      ],
      "stateMutability": "view",
      "type": "function"
    },
    {
      "inputs": [
        {
          "internalType": "uint256",
          "name": "_amount",
          "type": "uint256"
        }
      ],
      "name": "burn",
      "outputs": [],
      "stateMutability": "nonpayable",
      "type": "function"
    },
    {
      "inputs": [
        {
          "internalType": "address",
          "name": "authorizer",
          "type": "address"
        },
        {
          "internalType": "bytes32",
          "name": "nonce",
          "type": "bytes32"
        },
        {
          "internalType": "uint8",
          "name": "v",
          "type": "uint8"
        },
        {
          "internalType": "bytes32",
          "name": "r",
          "type": "bytes32"
        },
        {
          "internalType": "bytes32",
          "name": "s",
          "type": "bytes32"
        }
      ],
      "name": "cancelAuthorization",
      "outputs": [],
      "stateMutability": "nonpayable",
      "type": "function"
    },
    {
      "inputs": [
        {
          "internalType": "address",
          "name": "authorizer",
          "type": "address"
        },
        {
          "internalType": "bytes32",
          "name": "nonce",
          "type": "bytes32"
        },
        {
          "internalType": "bytes",
          "name": "signature",
          "type": "bytes"
        }
      ],
      "name": "cancelAuthorization",
      "outputs": [],
      "stateMutability": "nonpayable",
      "type": "function"
    },
    {
      "inputs": [
        {
          "internalType": "address",
          "name": "minter",
          "type": "address"
        },
        {
          "internalType": "uint256",
          "name": "minterAllowedAmount",
          "type": "uint256"
        }
      ],
      "name": "configureMinter",
      "outputs": [
        {
          "internalType": "bool",
          "name": "",
          "type": "bool"
        }
      ],
      "stateMutability": "nonpayable",
      "type": "function"
    },
    {
      "inputs": [],
      "name": "currency",
      "outputs": [
        {
          "internalType": "string",
          "name": "",
          "type": "string"
        }
      ],
      "stateMutability": "view",
      "type": "function"
    },
    {
      "inputs": [],
      "name": "decimals",
      "outputs": [
        {
          "internalType": "uint8",
          "name": "",
          "type": "uint8"
        }
      ],
      "stateMutability": "view",
      "type": "function"
    },
    {
      "inputs": [
        {
          "internalType": "address",
          "name": "spender",
          "type": "address"
        },
        {
          "internalType": "uint256",
          "name": "decrement",
          "type": "uint256"
        }
      ],
      "name": "decreaseAllowance",
      "outputs": [
        {
          "internalType": "bool",
          "name": "",
          "type": "bool"
        }
      ],
      "stateMutability": "nonpayable",
      "type": "function"
    },
    {
      "inputs": [
        {
          "internalType": "address",
          "name": "spender",
          "type": "address"
        },
        {
          "internalType": "uint256",
          "name": "increment",
          "type": "uint256"
        }
      ],
      "name": "increaseAllowance",
      "outputs": [
        {
          "internalType": "bool",
          "name": "",
          "type": "bool"
        }
      ],
      "stateMutability": "nonpayable",
      "type": "function"
    },
    {
      "inputs": [
        {
          "internalType": "string",
          "name": "tokenName",
          "type": "string"
        },
        {
          "internalType": "string",
          "name": "tokenSymbol",
          "type": "string"
        },
        {
          "internalType": "string",
          "name": "tokenCurrency",
          "type": "string"
        },
        {
          "internalType": "uint8",
          "name": "tokenDecimals",
          "type": "uint8"
        },
        {
          "internalType": "address",
          "name": "newMasterMinter",
          "type": "address"
        },
        {
          "internalType": "address",
          "name": "newPauser",
          "type": "address"
        },
        {
          "internalType": "address",
          "name": "newBlacklister",
          "type": "address"
        },
        {
          "internalType": "address",
          "name": "newOwner",
          "type": "address"
        }
      ],
      "name": "initialize",
      "outputs": [],
      "stateMutability": "nonpayable",
      "type": "function"
    },
    {
      "inputs": [
        {
          "internalType": "string",
          "name": "newName",
          "type": "string"
        }
      ],
      "name": "initializeV2",
      "outputs": [],
      "stateMutability": "nonpayable",
      "type": "function"
    },
    {
      "inputs": [
        {
          "internalType": "address",
          "name": "lostAndFound",
          "type": "address"
        }
      ],
      "name": "initializeV2_1",
      "outputs": [],
      "stateMutability": "nonpayable",
      "type": "function"
    },
    {
      "inputs": [
        {
          "internalType": "address[]",
          "name": "accountsToBlacklist",
          "type": "address[]"
        },
        {
          "internalType": "string",
          "name": "newSymbol",
          "type": "string"
        }
      ],
      "name": "initializeV2_2",
      "outputs": [],
      "stateMutability": "nonpayable",
      "type": "function"
    },
    {
      "inputs": [
        {
          "internalType": "address",
          "name": "_account",
          "type": "address"
        }
      ],
      "name": "isBlacklisted",
      "outputs": [
        {
          "internalType": "bool",
          "name": "",
          "type": "bool"
        }
      ],
      "stateMutability": "view",
      "type": "function"
    },
    {
      "inputs": [
        {
          "internalType": "address",
          "name": "account",
          "type": "address"
        }
      ],
      "name": "isMinter",
      "outputs": [
        {
          "internalType": "bool",
          "name": "",
          "type": "bool"
        }
      ],
      "stateMutability": "view",
      "type": "function"
    },
    {
      "inputs": [],
      "name": "masterMinter",
      "outputs": [
        {
          "internalType": "address",
          "name": "",
          "type": "address"
        }
      ],
      "stateMutability": "view",
      "type": "function"
    },
    {
      "inputs": [
        {
          "internalType": "address",
          "name": "_to",
          "type": "address"
        },
        {
          "internalType": "uint256",
          "name": "_amount",
          "type": "uint256"
        }
      ],
      "name": "mint",
      "outputs": [
        {
          "internalType": "bool",
          "name": "",
          "type": "bool"
        }
      ],
      "stateMutability": "nonpayable",
      "type": "function"
    },
    {
      "inputs": [
        {
          "internalType": "address",
          "name": "minter",
          "type": "address"
        }
      ],
      "name": "minterAllowance",
      "outputs": [
        {
          "internalType": "uint256",
          "name": "",
          "type": "uint256"
        }
      ],
      "stateMutability": "view",
      "type": "function"
    },
    {
      "inputs": [],
      "name": "name",
      "outputs": [
        {
          "internalType": "string",
          "name": "",
          "type": "string"
        }
      ],
      "stateMutability": "view",
      "type": "function"
    },
    {
      "inputs": [
        {
          "internalType": "address",
          "name": "owner",
          "type": "address"
        }
      ],
      "name": "nonces",
      "outputs": [
        {
          "internalType": "uint256",
          "name": "",
          "type": "uint256"
        }
      ],
      "stateMutability": "view",
      "type": "function"
    },
    {
      "inputs": [],
      "name": "owner",
      "outputs": [
        {
          "internalType": "address",
          "name": "",
          "type": "address"
        }
      ],
      "stateMutability": "view",
      "type": "function"
    },
    {
      "inputs": [],
      "name": "pause",
      "outputs": [],
      "stateMutability": "nonpayable",
      "type": "function"
    },
    {
      "inputs": [],
      "name": "paused",
      "outputs": [
        {
          "internalType": "bool",
          "name": "",
          "type": "bool"
        }
      ],
      "stateMutability": "view",
      "type": "function"
    },
    {
      "inputs": [],
      "name": "pauser",
      "outputs": [
        {
          "internalType": "address",
          "name": "",
          "type": "address"
        }
      ],
      "stateMutability": "view",
      "type": "function"
    },
    {
      "inputs": [
        {
          "internalType": "address",
          "name": "owner",
          "type": "address"
        },
        {
          "internalType": "address",
          "name": "spender",
          "type": "address"
        },
        {
          "internalType": "uint256",
          "name": "value",
          "type": "uint256"
        },
        {
          "internalType": "uint256",
          "name": "deadline",
          "type": "uint256"
        },
        {
          "internalType": "bytes",
          "name": "signature",
          "type": "bytes"
        }
      ],
      "name": "permit",
      "outputs": [],
      "stateMutability": "nonpayable",
      "type": "function"
    },
    {
      "inputs": [
        {
          "internalType": "address",
          "name": "owner",
          "type": "address"
        },
        {
          "internalType": "address",
          "name": "spender",
          "type": "address"
        },
        {
          "internalType": "uint256",
          "name": "value",
          "type": "uint256"
        },
        {
          "internalType": "uint256",
          "name": "deadline",
          "type": "uint256"
        },
        {
          "internalType": "uint8",
          "name": "v",
          "type": "uint8"
        },
        {
          "internalType": "bytes32",
          "name": "r",
          "type": "bytes32"
        },
        {
          "internalType": "bytes32",
          "name": "s",
          "type": "bytes32"
        }
      ],
      "name": "permit",
      "outputs": [],
      "stateMutability": "nonpayable",
      "type": "function"
    },
    {
      "inputs": [
        {
          "internalType": "address",
          "name": "from",
          "type": "address"
        },
        {
          "internalType": "address",
          "name": "to",
          "type": "address"
        },
        {
          "internalType": "uint256",
          "name": "value",
          "type": "uint256"
        },
        {
          "internalType": "uint256",
          "name": "validAfter",
          "type": "uint256"
        },
        {
          "internalType": "uint256",
          "name": "validBefore",
          "type": "uint256"
        },
        {
          "internalType": "bytes32",
          "name": "nonce",
          "type": "bytes32"
        },
        {
          "internalType": "bytes",
          "name": "signature",
          "type": "bytes"
        }
      ],
      "name": "receiveWithAuthorization",
      "outputs": [],
      "stateMutability": "nonpayable",
      "type": "function"
    },
    {
      "inputs": [
        {
          "internalType": "address",
          "name": "from",
          "type": "address"
        },
        {
          "internalType": "address",
          "name": "to",
          "type": "address"
        },
        {
          "internalType": "uint256",
          "name": "value",
          "type": "uint256"
        },
        {
          "internalType": "uint256",
          "name": "validAfter",
          "type": "uint256"
        },
        {
          "internalType": "uint256",
          "name": "validBefore",
          "type": "uint256"
        },
        {
          "internalType": "bytes32",
          "name": "nonce",
          "type": "bytes32"
        },
        {
          "internalType": "uint8",
          "name": "v",
          "type": "uint8"
        },
        {
          "internalType": "bytes32",
          "name": "r",
          "type": "bytes32"
        },
        {
          "internalType": "bytes32",
          "name": "s",
          "type": "bytes32"
        }
      ],
      "name": "receiveWithAuthorization",
      "outputs": [],
      "stateMutability": "nonpayable",
      "type": "function"
    },
    {
      "inputs": [
        {
          "internalType": "address",
          "name": "minter",
          "type": "address"
        }
      ],
      "name": "removeMinter",
      "outputs": [
        {
          "internalType": "bool",
          "name": "",
          "type": "bool"
        }
      ],
      "stateMutability": "nonpayable",
      "type": "function"
    },
    {
      "inputs": [
        {
          "internalType": "contract IERC20",
          "name": "tokenContract",
          "type": "address"
        },
        {
          "internalType": "address",
          "name": "to",
          "type": "address"
        },
        {
          "internalType": "uint256",
          "name": "amount",
          "type": "uint256"
        }
      ],
      "name": "rescueERC20",
      "outputs": [],
      "stateMutability": "nonpayable",
      "type": "function"
    },
    {
      "inputs": [],
      "name": "rescuer",
      "outputs": [
        {
          "internalType": "address",
          "name": "",
          "type": "address"
        }
      ],
      "stateMutability": "view",
      "type": "function"
    },
    {
      "inputs": [],
      "name": "symbol",
      "outputs": [
        {
          "internalType": "string",
          "name": "",
          "type": "string"
        }
      ],
      "stateMutability": "view",
      "type": "function"
    },
    {
      "inputs": [],
      "name": "totalSupply",
      "outputs": [
        {
          "internalType": "uint256",
          "name": "",
          "type": "uint256"
        }
      ],
      "stateMutability": "view",
      "type": "function"
    },
    {
      "inputs": [
        {
          "internalType": "address",
          "name": "to",
          "type": "address"
        },
        {
          "internalType": "uint256",
          "name": "value",
          "type": "uint256"
        }
      ],
      "name": "transfer",
      "outputs": [
        {
          "internalType": "bool",
          "name": "",
          "type": "bool"
        }
      ],
      "stateMutability": "nonpayable",
      "type": "function"
    },
    {
      "inputs": [
        {
          "internalType": "address",
          "name": "from",
          "type": "address"
        },
        {
          "internalType": "address",
          "name": "to",
          "type": "address"
        },
        {
          "internalType": "uint256",
          "name": "value",
          "type": "uint256"
        }
      ],
      "name": "transferFrom",
      "outputs": [
        {
          "internalType": "bool",
          "name": "",
          "type": "bool"
        }
      ],
      "stateMutability": "nonpayable",
      "type": "function"
    },
    {
      "inputs": [
        {
          "internalType": "address",
          "name": "newOwner",
          "type": "address"
        }
      ],
      "name": "transferOwnership",
      "outputs": [],
      "stateMutability": "nonpayable",
      "type": "function"
    },
    {
      "inputs": [
        {
          "internalType": "address",
          "name": "from",
          "type": "address"
        },
        {
          "internalType": "address",
          "name": "to",
          "type": "address"
        },
        {
          "internalType": "uint256",
          "name": "value",
          "type": "uint256"
        },
        {
          "internalType": "uint256",
          "name": "validAfter",
          "type": "uint256"
        },
        {
          "internalType": "uint256",
          "name": "validBefore",
          "type": "uint256"
        },
        {
          "internalType": "bytes32",
          "name": "nonce",
          "type": "bytes32"
        },
        {
          "internalType": "bytes",
          "name": "signature",
          "type": "bytes"
        }
      ],
      "name": "transferWithAuthorization",
      "outputs": [],
      "stateMutability": "nonpayable",
      "type": "function"
    },
    {
      "inputs": [
        {
          "internalType": "address",
          "name": "from",
          "type": "address"
        },
        {
          "internalType": "address",
          "name": "to",
          "type": "address"
        },
        {
          "internalType": "uint256",
          "name": "value",
          "type": "uint256"
        },
        {
          "internalType": "uint256",
          "name": "validAfter",
          "type": "uint256"
        },
        {
          "internalType": "uint256",
          "name": "validBefore",
          "type": "uint256"
        },
        {
          "internalType": "bytes32",
          "name": "nonce",
          "type": "bytes32"
        },
        {
          "internalType": "uint8",
          "name": "v",
          "type": "uint8"
        },
        {
          "internalType": "bytes32",
          "name": "r",
          "type": "bytes32"
        },
        {
          "internalType": "bytes32",
          "name": "s",
          "type": "bytes32"
        }
      ],
      "name": "transferWithAuthorization",
      "outputs": [],
      "stateMutability": "nonpayable",
      "type": "function"
    },
    {
      "inputs": [
        {
          "internalType": "address",
          "name": "_account",
          "type": "address"
        }
      ],
      "name": "unBlacklist",
      "outputs": [],
      "stateMutability": "nonpayable",
      "type": "function"
    },
    {
      "inputs": [],
      "name": "unpause",
      "outputs": [],
      "stateMutability": "nonpayable",
      "type": "function"
    },
    {
      "inputs": [
        {
          "internalType": "address",
          "name": "_newBlacklister",
          "type": "address"
        }
      ],
      "name": "updateBlacklister",
      "outputs": [],
      "stateMutability": "nonpayable",
      "type": "function"
    },
    {
      "inputs": [
        {
          "internalType": "address",
          "name": "_newMasterMinter",
          "type": "address"
        }
      ],
      "name": "updateMasterMinter",
      "outputs": [],
      "stateMutability": "nonpayable",
      "type": "function"
    },
    {
      "inputs": [
        {
          "internalType": "address",
          "name": "_newPauser",
          "type": "address"
        }
      ],
      "name": "updatePauser",
      "outputs": [],
      "stateMutability": "nonpayable",
      "type": "function"
    },
    {
      "inputs": [
        {
          "internalType": "address",
          "name": "newRescuer",
          "type": "address"
        }
      ],
      "name": "updateRescuer",
      "outputs": [],
      "stateMutability": "nonpayable",
      "type": "function"
    },
    {
      "inputs": [],
      "name": "version",
      "outputs": [
        {
          "internalType": "string",
          "name": "",
          "type": "string"
        }
      ],
      "stateMutability": "pure",
      "type": "function"
    }
  ],
  "transactionHash": "0x455bfcf5eee8e6ccb78996dadeff76cefe50d6f29c71b73b9f6be614e6b49e61",
  "args": [],
  "numDeployments": 1,
  "solcInputHash": "a3fc5640a65f0e195b92076c2832325d",
  "bytecode": "0x60806040526001805460ff60a01b191690556000600b5534801561002257600080fd5b50600080546001600160a01b03191633179055614d6e806100446000396000f3fe608060405234801561001057600080fd5b506004361061036d5760003560e01c80638456cb59116101d3578063b7b7289911610104578063e3ee160e116100a2578063ef55bec61161007c578063ef55bec614610848578063f2fde38b1461085b578063f9f92be41461086e578063fe575a871461088157600080fd5b8063e3ee160e146107f4578063e5a6b10f14610807578063e94a01021461080f57600080fd5b8063d505accf116100de578063d505accf1461076e578063d608ea6414610781578063d916948714610794578063dd62ed3e146107bb57600080fd5b8063b7b7289914610735578063bd10243014610748578063cf0929951461075b57600080fd5b8063a0cc6a6811610171578063aa20e1e41161014b578063aa20e1e4146106d0578063aa271e1a146106e3578063ad38bf221461070f578063b2118a8d1461072257600080fd5b8063a0cc6a6814610683578063a457c2d7146106aa578063a9059cbb146106bd57600080fd5b80638da5cb5b116101ad5780638da5cb5b1461064457806395d89b41146106555780639fd0506d1461065d5780639fd5a6cf1461067057600080fd5b80638456cb591461060057806388b7ab63146106085780638a6db9c31461061b57600080fd5b806338a63183116102ad57806354fd4d501161024b5780635c975abb116102255780635c975abb1461058957806370a082311461059d5780637ecebe00146105b05780637f2eecc3146105d957600080fd5b806354fd4d501461052a578063554bab3c146105635780635a049a701461057657600080fd5b806340c10f191161028757806340c10f19146104de57806342966c68146104f1578063430239b4146105045780634e44d9561461051757600080fd5b806338a63183146104b257806339509351146104c35780633f4ba83a146104d657600080fd5b80632fc81e091161031a578063313ce567116102f4578063313ce5671461044d5780633357162b1461046c57806335d99f351461047f5780633644e515146104aa57600080fd5b80632fc81e09146104005780633092afd51461041357806330adf81f1461042657600080fd5b80631a8952661161034b5780631a895266146103c557806323b872dd146103da5780632ab60045146103ed57600080fd5b806306fdde0314610372578063095ea7b31461039057806318160ddd146103b3575b600080fd5b61037a610894565b6040516103879190614394565b60405180910390f35b6103a361039e3660046143ce565b610922565b6040519015158152602001610387565b600b545b604051908152602001610387565b6103d86103d33660046143fa565b61098c565b005b6103a36103e8366004614417565b610a4c565b6103d86103fb3660046143fa565b610d07565b6103d861040e3660046143fa565b610e3f565b6103a36104213660046143fa565b610eae565b6103b77f6e71edae12b1b97f4d1f60370fef10105fa2faae0126114a169c64845d6126c981565b60065461045a9060ff1681565b60405160ff9091168152602001610387565b6103d861047a366004614525565b610f8d565b600854610492906001600160a01b031681565b6040516001600160a01b039091168152602001610387565b6103b76112cd565b600e546001600160a01b0316610492565b6103a36104d13660046143ce565b6112dc565b6103d8611337565b6103a36104ec3660046143ce565b61140a565b6103d86104ff366004614601565b611850565b6103d8610512366004614663565b611b3f565b6103a36105253660046143ce565b611ce0565b60408051808201909152600181527f3200000000000000000000000000000000000000000000000000000000000000602082015261037a565b6103d86105713660046143fa565b611e1a565b6103d86105843660046146fd565b611f52565b6001546103a390600160a01b900460ff1681565b6103b76105ab3660046143fa565b611fb3565b6103b76105be3660046143fa565b6001600160a01b031660009081526011602052604090205490565b6103b77fd099cc98ef71107a616c4f0f941f04c322d8e254fe26b3c6668db87aae413de881565b6103d8611ff3565b6103d861061636600461474d565b6120cc565b6103b76106293660046143fa565b6001600160a01b03166000908152600d602052604090205490565b6000546001600160a01b0316610492565b61037a612229565b600154610492906001600160a01b031681565b6103d861067e3660046147d6565b612236565b6103b77f7c7c6cdb67a18743f49ec6fa9b35f50d52ed05cbed4cc592e13b44501c1a226781565b6103a36106b83660046143ce565b612290565b6103a36106cb3660046143ce565b6122eb565b6103d86106de3660046143fa565b61243c565b6103a36106f13660046143fa565b6001600160a01b03166000908152600c602052604090205460ff1690565b6103d861071d3660046143fa565b612574565b6103d8610730366004614417565b6126ac565b6103d861074336600461484c565b612744565b600254610492906001600160a01b031681565b6103d861076936600461474d565b61279c565b6103d861077c3660046148a5565b6128ee565b6103d861078f366004614913565b612953565b6103b77f158b0a9edf7a828aad02f63cd515c68ef2f50ba807396f6d12842833a159742981565b6103b76107c9366004614955565b6001600160a01b039182166000908152600a6020908152604080832093909416825291909152205490565b6103d861080236600461498e565b612a0e565b61037a612b6f565b6103a361081d3660046143ce565b6001600160a01b03919091166000908152601060209081526040808320938352929052205460ff1690565b6103d861085636600461498e565b612b7c565b6103d86108693660046143fa565b612cd0565b6103d861087c3660046143fa565b612e26565b6103a361088f3660046143fa565b612ee6565b600480546108a190614a10565b80601f01602080910402602001604051908101604052809291908181526020018280546108cd90614a10565b801561091a5780601f106108ef5761010080835404028352916020019161091a565b820191906000526020600020905b8154815290600101906020018083116108fd57829003601f168201915b505050505081565b600154600090600160a01b900460ff16156109775760405162461bcd60e51b815260206004820152601060248201526f14185d5cd8589b194e881c185d5cd95960821b60448201526064015b60405180910390fd5b610982338484612f0a565b5060015b92915050565b6002546001600160a01b03163314610a0c5760405162461bcd60e51b815260206004820152602c60248201527f426c61636b6c69737461626c653a2063616c6c6572206973206e6f742074686560448201527f20626c61636b6c69737465720000000000000000000000000000000000000000606482015260840161096e565b610a158161305a565b6040516001600160a01b038216907f117e3210bb9aa7d9baff172026820255c6f6c30ba8999d1c2fd88e2848137c4e90600090a250565b600154600090600160a01b900460ff1615610a9c5760405162461bcd60e51b815260206004820152601060248201526f14185d5cd8589b194e881c185d5cd95960821b604482015260640161096e565b3360008181526009602052604090205460ff1c600103610b0c5760405162461bcd60e51b815260206004820152602560248201527f426c61636b6c69737461626c653a206163636f756e7420697320626c61636b6c6044820152641a5cdd195960da1b606482015260840161096e565b6001600160a01b038516600090815260096020526040902054859060ff1c600103610b875760405162461bcd60e51b815260206004820152602560248201527f426c61636b6c69737461626c653a206163636f756e7420697320626c61636b6c6044820152641a5cdd195960da1b606482015260840161096e565b6001600160a01b038516600090815260096020526040902054859060ff1c600103610c025760405162461bcd60e51b815260206004820152602560248201527f426c61636b6c69737461626c653a206163636f756e7420697320626c61636b6c6044820152641a5cdd195960da1b606482015260840161096e565b6001600160a01b0387166000908152600a60209081526040808320338452909152902054851115610c9b5760405162461bcd60e51b815260206004820152602860248201527f45524332303a207472616e7366657220616d6f756e742065786365656473206160448201527f6c6c6f77616e6365000000000000000000000000000000000000000000000000606482015260840161096e565b610ca6878787613065565b6001600160a01b0387166000908152600a60209081526040808320338452909152902054610cd5908690614a92565b6001600160a01b0388166000908152600a60209081526040808320338452909152902055600193505050509392505050565b6000546001600160a01b03163314610d615760405162461bcd60e51b815260206004820181905260248201527f4f776e61626c653a2063616c6c6572206973206e6f7420746865206f776e6572604482015260640161096e565b6001600160a01b038116610ddd5760405162461bcd60e51b815260206004820152602a60248201527f526573637561626c653a206e6577207265736375657220697320746865207a6560448201527f726f206164647265737300000000000000000000000000000000000000000000606482015260840161096e565b600e80547fffffffffffffffffffffffff0000000000000000000000000000000000000000166001600160a01b0383169081179091556040517fe475e580d85111348e40d8ca33cfdd74c30fe1655c2d8537a13abc10065ffa5a90600090a250565b60125460ff16600114610e5157600080fd5b306000908152600960205260409020547f7fffffffffffffffffffffffffffffffffffffffffffffffffffffffffffffff168015610e9457610e94308383613065565b610e9d306132e8565b50506012805460ff19166002179055565b6008546000906001600160a01b03163314610f315760405162461bcd60e51b815260206004820152602960248201527f46696174546f6b656e3a2063616c6c6572206973206e6f7420746865206d617360448201527f7465724d696e7465720000000000000000000000000000000000000000000000606482015260840161096e565b6001600160a01b0382166000818152600c60209081526040808320805460ff19169055600d909152808220829055517fe94479a9f7e1952cc78f2d6baab678adc1b772d936c6583def489e524cb666929190a25060015b919050565b600854600160a01b900460ff161561100d5760405162461bcd60e51b815260206004820152602a60248201527f46696174546f6b656e3a20636f6e747261637420697320616c7265616479206960448201527f6e697469616c697a656400000000000000000000000000000000000000000000606482015260840161096e565b6001600160a01b0384166110895760405162461bcd60e51b815260206004820152602f60248201527f46696174546f6b656e3a206e6577206d61737465724d696e746572206973207460448201527f6865207a65726f20616464726573730000000000000000000000000000000000606482015260840161096e565b6001600160a01b0383166111055760405162461bcd60e51b815260206004820152602960248201527f46696174546f6b656e3a206e65772070617573657220697320746865207a657260448201527f6f20616464726573730000000000000000000000000000000000000000000000606482015260840161096e565b6001600160a01b0382166111815760405162461bcd60e51b815260206004820152602e60248201527f46696174546f6b656e3a206e657720626c61636b6c697374657220697320746860448201527f65207a65726f2061646472657373000000000000000000000000000000000000606482015260840161096e565b6001600160a01b0381166111fd5760405162461bcd60e51b815260206004820152602860248201527f46696174546f6b656e3a206e6577206f776e657220697320746865207a65726f60448201527f2061646472657373000000000000000000000000000000000000000000000000606482015260840161096e565b60046112098982614aed565b5060056112168882614aed565b5060076112238782614aed565b506006805460ff191660ff8716179055600880547fffffffffffffffffffffffff00000000000000000000000000000000000000009081166001600160a01b0387811691909117909255600180548216868416179055600280548216858416179055600080549091169183169190911790555050600880547fffffffffffffffffffffff00ffffffffffffffffffffffffffffffffffffffff16600160a01b179055505050505050565b60006112d76132f3565b905090565b600154600090600160a01b900460ff161561132c5760405162461bcd60e51b815260206004820152601060248201526f14185d5cd8589b194e881c185d5cd95960821b604482015260640161096e565b610982338484613434565b6001546001600160a01b031633146113b75760405162461bcd60e51b815260206004820152602260248201527f5061757361626c653a2063616c6c6572206973206e6f7420746865207061757360448201527f6572000000000000000000000000000000000000000000000000000000000000606482015260840161096e565b600180547fffffffffffffffffffffff00ffffffffffffffffffffffffffffffffffffffff1690556040517f7805862f689e2f13df9f062ff482ad3ad112aca9e0847911ed832e158c525b3390600090a1565b600154600090600160a01b900460ff161561145a5760405162461bcd60e51b815260206004820152601060248201526f14185d5cd8589b194e881c185d5cd95960821b604482015260640161096e565b336000908152600c602052604090205460ff166114df5760405162461bcd60e51b815260206004820152602160248201527f46696174546f6b656e3a2063616c6c6572206973206e6f742061206d696e746560448201527f7200000000000000000000000000000000000000000000000000000000000000606482015260840161096e565b3360008181526009602052604090205460ff1c60010361154f5760405162461bcd60e51b815260206004820152602560248201527f426c61636b6c69737461626c653a206163636f756e7420697320626c61636b6c6044820152641a5cdd195960da1b606482015260840161096e565b6001600160a01b038416600090815260096020526040902054849060ff1c6001036115ca5760405162461bcd60e51b815260206004820152602560248201527f426c61636b6c69737461626c653a206163636f756e7420697320626c61636b6c6044820152641a5cdd195960da1b606482015260840161096e565b6001600160a01b0385166116465760405162461bcd60e51b815260206004820152602360248201527f46696174546f6b656e3a206d696e7420746f20746865207a65726f206164647260448201527f6573730000000000000000000000000000000000000000000000000000000000606482015260840161096e565b600084116116bc5760405162461bcd60e51b815260206004820152602960248201527f46696174546f6b656e3a206d696e7420616d6f756e74206e6f7420677265617460448201527f6572207468616e20300000000000000000000000000000000000000000000000606482015260840161096e565b336000908152600d6020526040902054808511156117425760405162461bcd60e51b815260206004820152602e60248201527f46696174546f6b656e3a206d696e7420616d6f756e742065786365656473206d60448201527f696e746572416c6c6f77616e6365000000000000000000000000000000000000606482015260840161096e565b84600b546117509190614bad565b600b556117a88686611799826001600160a01b03166000908152600960205260409020547f7fffffffffffffffffffffffffffffffffffffffffffffffffffffffffffffff1690565b6117a39190614bad565b613472565b6117b28582614a92565b336000818152600d602090815260409182902093909355518781526001600160a01b038916927fab8530f87dc9b59234c4623bf917212bb2536d647574c8e7e5da92c2ede0c9f8910160405180910390a36040518581526001600160a01b038716906000907fddf252ad1be2c89b69c2b068fc378daa952ba7f163c4a11628f55a4df523b3ef9060200160405180910390a350600195945050505050565b600154600160a01b900460ff161561189d5760405162461bcd60e51b815260206004820152601060248201526f14185d5cd8589b194e881c185d5cd95960821b604482015260640161096e565b336000908152600c602052604090205460ff166119225760405162461bcd60e51b815260206004820152602160248201527f46696174546f6b656e3a2063616c6c6572206973206e6f742061206d696e746560448201527f7200000000000000000000000000000000000000000000000000000000000000606482015260840161096e565b3360008181526009602052604090205460ff1c6001036119925760405162461bcd60e51b815260206004820152602560248201527f426c61636b6c69737461626c653a206163636f756e7420697320626c61636b6c6044820152641a5cdd195960da1b606482015260840161096e565b336000908152600960205260409020547f7fffffffffffffffffffffffffffffffffffffffffffffffffffffffffffffff1682611a375760405162461bcd60e51b815260206004820152602960248201527f46696174546f6b656e3a206275726e20616d6f756e74206e6f7420677265617460448201527f6572207468616e20300000000000000000000000000000000000000000000000606482015260840161096e565b82811015611aad5760405162461bcd60e51b815260206004820152602660248201527f46696174546f6b656e3a206275726e20616d6f756e742065786365656473206260448201527f616c616e63650000000000000000000000000000000000000000000000000000606482015260840161096e565b82600b54611abb9190614a92565b600b55611acc336117a38584614a92565b60405183815233907fcc16f5dbb4873280815c1ee09dbd06736cffcc184412cf7a71a0fdb75d397ca59060200160405180910390a260405183815260009033907fddf252ad1be2c89b69c2b068fc378daa952ba7f163c4a11628f55a4df523b3ef906020015b60405180910390a3505050565b60125460ff16600214611b5157600080fd5b6005611b5e828483614bc0565b5060005b83811015611ca75760036000868684818110611b8057611b80614c80565b9050602002016020810190611b9591906143fa565b6001600160a01b0316815260208101919091526040016000205460ff16611c245760405162461bcd60e51b815260206004820152603d60248201527f46696174546f6b656e56325f323a20426c61636b6c697374696e67207072657660448201527f696f75736c7920756e626c61636b6c6973746564206163636f756e7421000000606482015260840161096e565b611c53858583818110611c3957611c39614c80565b9050602002016020810190611c4e91906143fa565b6132e8565b60036000868684818110611c6957611c69614c80565b9050602002016020810190611c7e91906143fa565b6001600160a01b031681526020810191909152604001600020805460ff19169055600101611b62565b50611cb1306132e8565b5050306000908152600360208190526040909120805460ff199081169091556012805490911690911790555050565b600154600090600160a01b900460ff1615611d305760405162461bcd60e51b815260206004820152601060248201526f14185d5cd8589b194e881c185d5cd95960821b604482015260640161096e565b6008546001600160a01b03163314611db05760405162461bcd60e51b815260206004820152602960248201527f46696174546f6b656e3a2063616c6c6572206973206e6f7420746865206d617360448201527f7465724d696e7465720000000000000000000000000000000000000000000000606482015260840161096e565b6001600160a01b0383166000818152600c60209081526040808320805460ff19166001179055600d82529182902085905590518481527f46980fca912ef9bcdbd36877427b6b90e860769f604e89c0e67720cece530d20910160405180910390a250600192915050565b6000546001600160a01b03163314611e745760405162461bcd60e51b815260206004820181905260248201527f4f776e61626c653a2063616c6c6572206973206e6f7420746865206f776e6572604482015260640161096e565b6001600160a01b038116611ef05760405162461bcd60e51b815260206004820152602860248201527f5061757361626c653a206e65772070617573657220697320746865207a65726f60448201527f2061646472657373000000000000000000000000000000000000000000000000606482015260840161096e565b600180547fffffffffffffffffffffffff0000000000000000000000000000000000000000166001600160a01b0383169081179091556040517fb80482a293ca2e013eda8683c9bd7fc8347cfdaeea5ede58cba46df502c2a60490600090a250565b600154600160a01b900460ff1615611f9f5760405162461bcd60e51b815260206004820152601060248201526f14185d5cd8589b194e881c185d5cd95960821b604482015260640161096e565b611fac858585858561359d565b5050505050565b6001600160a01b0381166000908152600960205260408120547f7fffffffffffffffffffffffffffffffffffffffffffffffffffffffffffffff16610986565b6001546001600160a01b031633146120735760405162461bcd60e51b815260206004820152602260248201527f5061757361626c653a2063616c6c6572206973206e6f7420746865207061757360448201527f6572000000000000000000000000000000000000000000000000000000000000606482015260840161096e565b600180547fffffffffffffffffffffff00ffffffffffffffffffffffffffffffffffffffff16600160a01b1790556040517f6985a02210a168e66602d3235cb6db0e70f92b3ba4d376a33c0f3d9434bff62590600090a1565b600154600160a01b900460ff16156121195760405162461bcd60e51b815260206004820152601060248201526f14185d5cd8589b194e881c185d5cd95960821b604482015260640161096e565b6001600160a01b038716600090815260096020526040902054879060ff1c6001036121945760405162461bcd60e51b815260206004820152602560248201527f426c61636b6c69737461626c653a206163636f756e7420697320626c61636b6c6044820152641a5cdd195960da1b606482015260840161096e565b6001600160a01b038716600090815260096020526040902054879060ff1c60010361220f5760405162461bcd60e51b815260206004820152602560248201527f426c61636b6c69737461626c653a206163636f756e7420697320626c61636b6c6044820152641a5cdd195960da1b606482015260840161096e565b61221e898989898989896135f9565b505050505050505050565b600580546108a190614a10565b600154600160a01b900460ff16156122835760405162461bcd60e51b815260206004820152601060248201526f14185d5cd8589b194e881c185d5cd95960821b604482015260640161096e565b611fac858585858561371f565b600154600090600160a01b900460ff16156122e05760405162461bcd60e51b815260206004820152601060248201526f14185d5cd8589b194e881c185d5cd95960821b604482015260640161096e565b610982338484613959565b600154600090600160a01b900460ff161561233b5760405162461bcd60e51b815260206004820152601060248201526f14185d5cd8589b194e881c185d5cd95960821b604482015260640161096e565b3360008181526009602052604090205460ff1c6001036123ab5760405162461bcd60e51b815260206004820152602560248201527f426c61636b6c69737461626c653a206163636f756e7420697320626c61636b6c6044820152641a5cdd195960da1b606482015260840161096e565b6001600160a01b038416600090815260096020526040902054849060ff1c6001036124265760405162461bcd60e51b815260206004820152602560248201527f426c61636b6c69737461626c653a206163636f756e7420697320626c61636b6c6044820152641a5cdd195960da1b606482015260840161096e565b612431338686613065565b506001949350505050565b6000546001600160a01b031633146124965760405162461bcd60e51b815260206004820181905260248201527f4f776e61626c653a2063616c6c6572206973206e6f7420746865206f776e6572604482015260640161096e565b6001600160a01b0381166125125760405162461bcd60e51b815260206004820152602f60248201527f46696174546f6b656e3a206e6577206d61737465724d696e746572206973207460448201527f6865207a65726f20616464726573730000000000000000000000000000000000606482015260840161096e565b600880547fffffffffffffffffffffffff0000000000000000000000000000000000000000166001600160a01b0383169081179091556040517fdb66dfa9c6b8f5226fe9aac7e51897ae8ee94ac31dc70bb6c9900b2574b707e690600090a250565b6000546001600160a01b031633146125ce5760405162461bcd60e51b815260206004820181905260248201527f4f776e61626c653a2063616c6c6572206973206e6f7420746865206f776e6572604482015260640161096e565b6001600160a01b03811661264a5760405162461bcd60e51b815260206004820152603260248201527f426c61636b6c69737461626c653a206e657720626c61636b6c6973746572206960448201527f7320746865207a65726f20616464726573730000000000000000000000000000606482015260840161096e565b600280547fffffffffffffffffffffffff0000000000000000000000000000000000000000166001600160a01b0383169081179091556040517fc67398012c111ce95ecb7429b933096c977380ee6c421175a71a4a4c6c88c06e90600090a250565b600e546001600160a01b0316331461272b5760405162461bcd60e51b8152602060048201526024808201527f526573637561626c653a2063616c6c6572206973206e6f74207468652072657360448201527f6375657200000000000000000000000000000000000000000000000000000000606482015260840161096e565b61273f6001600160a01b0384168383613a34565b505050565b600154600160a01b900460ff16156127915760405162461bcd60e51b815260206004820152601060248201526f14185d5cd8589b194e881c185d5cd95960821b604482015260640161096e565b61273f838383613ab4565b600154600160a01b900460ff16156127e95760405162461bcd60e51b815260206004820152601060248201526f14185d5cd8589b194e881c185d5cd95960821b604482015260640161096e565b6001600160a01b038716600090815260096020526040902054879060ff1c6001036128645760405162461bcd60e51b815260206004820152602560248201527f426c61636b6c69737461626c653a206163636f756e7420697320626c61636b6c6044820152641a5cdd195960da1b606482015260840161096e565b6001600160a01b038716600090815260096020526040902054879060ff1c6001036128df5760405162461bcd60e51b815260206004820152602560248201527f426c61636b6c69737461626c653a206163636f756e7420697320626c61636b6c6044820152641a5cdd195960da1b606482015260840161096e565b61221e89898989898989613b69565b600154600160a01b900460ff161561293b5760405162461bcd60e51b815260206004820152601060248201526f14185d5cd8589b194e881c185d5cd95960821b604482015260640161096e565b61294a87878787878787613be4565b50505050505050565b600854600160a01b900460ff16801561296f575060125460ff16155b61297857600080fd5b6004612985828483614bc0565b506129fa82828080601f0160208091040260200160405190810160405280939291908181526020018383808284376000920191909152505060408051808201909152600181527f320000000000000000000000000000000000000000000000000000000000000060208201529150613c4a9050565b600f5550506012805460ff19166001179055565b600154600160a01b900460ff1615612a5b5760405162461bcd60e51b815260206004820152601060248201526f14185d5cd8589b194e881c185d5cd95960821b604482015260640161096e565b6001600160a01b038916600090815260096020526040902054899060ff1c600103612ad65760405162461bcd60e51b815260206004820152602560248201527f426c61636b6c69737461626c653a206163636f756e7420697320626c61636b6c6044820152641a5cdd195960da1b606482015260840161096e565b6001600160a01b038916600090815260096020526040902054899060ff1c600103612b515760405162461bcd60e51b815260206004820152602560248201527f426c61636b6c69737461626c653a206163636f756e7420697320626c61636b6c6044820152641a5cdd195960da1b606482015260840161096e565b612b628b8b8b8b8b8b8b8b8b613ccf565b5050505050505050505050565b600780546108a190614a10565b600154600160a01b900460ff1615612bc95760405162461bcd60e51b815260206004820152601060248201526f14185d5cd8589b194e881c185d5cd95960821b604482015260640161096e565b6001600160a01b038916600090815260096020526040902054899060ff1c600103612c445760405162461bcd60e51b815260206004820152602560248201527f426c61636b6c69737461626c653a206163636f756e7420697320626c61636b6c6044820152641a5cdd195960da1b606482015260840161096e565b6001600160a01b038916600090815260096020526040902054899060ff1c600103612cbf5760405162461bcd60e51b815260206004820152602560248201527f426c61636b6c69737461626c653a206163636f756e7420697320626c61636b6c6044820152641a5cdd195960da1b606482015260840161096e565b612b628b8b8b8b8b8b8b8b8b613d37565b6000546001600160a01b03163314612d2a5760405162461bcd60e51b815260206004820181905260248201527f4f776e61626c653a2063616c6c6572206973206e6f7420746865206f776e6572604482015260640161096e565b6001600160a01b038116612da65760405162461bcd60e51b815260206004820152602660248201527f4f776e61626c653a206e6577206f776e657220697320746865207a65726f206160448201527f6464726573730000000000000000000000000000000000000000000000000000606482015260840161096e565b600054604080516001600160a01b03928316815291831660208301527f8be0079c531659141344cd1fd0a4f28419497f9722a3daafe3b4186f6b6457e0910160405180910390a1600080547fffffffffffffffffffffffff0000000000000000000000000000000000000000166001600160a01b03831617905550565b50565b6002546001600160a01b03163314612ea65760405162461bcd60e51b815260206004820152602c60248201527f426c61636b6c69737461626c653a2063616c6c6572206973206e6f742074686560448201527f20626c61636b6c69737465720000000000000000000000000000000000000000606482015260840161096e565b612eaf816132e8565b6040516001600160a01b038216907fffa4e6181777692565cf28528fc88fd1516ea86b56da075235fa575af6a4b85590600090a250565b6001600160a01b03811660009081526009602052604081205460ff1c600114610986565b6001600160a01b038316612f855760405162461bcd60e51b8152602060048201526024808201527f45524332303a20617070726f76652066726f6d20746865207a65726f2061646460448201527f7265737300000000000000000000000000000000000000000000000000000000606482015260840161096e565b6001600160a01b0382166130015760405162461bcd60e51b815260206004820152602260248201527f45524332303a20617070726f766520746f20746865207a65726f20616464726560448201527f7373000000000000000000000000000000000000000000000000000000000000606482015260840161096e565b6001600160a01b038381166000818152600a602090815260408083209487168084529482529182902085905590518481527f8c5be1e5ebec7d5bd14f71427d1e84f3dd0314c0f7b2291e5b200ac8c7c3b9259101611b32565b612e23816000613d9f565b6001600160a01b0383166130e15760405162461bcd60e51b815260206004820152602560248201527f45524332303a207472616e736665722066726f6d20746865207a65726f20616460448201527f6472657373000000000000000000000000000000000000000000000000000000606482015260840161096e565b6001600160a01b03821661315d5760405162461bcd60e51b815260206004820152602360248201527f45524332303a207472616e7366657220746f20746865207a65726f206164647260448201527f6573730000000000000000000000000000000000000000000000000000000000606482015260840161096e565b6001600160a01b0383166000908152600960205260409020547f7fffffffffffffffffffffffffffffffffffffffffffffffffffffffffffffff1681111561320d5760405162461bcd60e51b815260206004820152602660248201527f45524332303a207472616e7366657220616d6f756e742065786365656473206260448201527f616c616e63650000000000000000000000000000000000000000000000000000606482015260840161096e565b61325d8382613253866001600160a01b03166000908152600960205260409020547f7fffffffffffffffffffffffffffffffffffffffffffffffffffffffffffffff1690565b6117a39190614a92565b6132a38282611799856001600160a01b03166000908152600960205260409020547f7fffffffffffffffffffffffffffffffffffffffffffffffffffffffffffffff1690565b816001600160a01b0316836001600160a01b03167fddf252ad1be2c89b69c2b068fc378daa952ba7f163c4a11628f55a4df523b3ef83604051611b3291815260200190565b612e23816001613d9f565b60006112d76004805461330590614a10565b80601f016020809104026020016040519081016040528092919081815260200182805461333190614a10565b801561337e5780601f106133535761010080835404028352916020019161337e565b820191906000526020600020905b81548152906001019060200180831161336157829003601f168201915b50505050506040518060400160405280600181526020017f32000000000000000000000000000000000000000000000000000000000000008152506133c04690565b8251602093840120825192840192909220604080517f8b73c3c69bb8fe3d512ecc4cf759cc79239f7b179b0ffacaa9a75d522b39400f8187015280820194909452606084019190915260808301919091523060a0808401919091528151808403909101815260c09092019052805191012090565b6001600160a01b038084166000908152600a602090815260408083209386168352929052205461273f908490849061346d908590614bad565b612f0a565b7f7fffffffffffffffffffffffffffffffffffffffffffffffffffffffffffffff8111156135085760405162461bcd60e51b815260206004820152602a60248201527f46696174546f6b656e56325f323a2042616c616e63652065786365656473202860448201527f325e323535202d20312900000000000000000000000000000000000000000000606482015260840161096e565b6001600160a01b03821660009081526009602052604090205460ff1c6001036135815760405162461bcd60e51b815260206004820152602560248201527f46696174546f6b656e56325f323a204163636f756e7420697320626c61636b6c6044820152641a5cdd195960da1b606482015260840161096e565b6001600160a01b03909116600090815260096020526040902055565b60408051602081018490529081018290527fff0000000000000000000000000000000000000000000000000000000000000060f885901b166060820152611fac9086908690606101604051602081830303815290604052613ab4565b6001600160a01b03861633146136775760405162461bcd60e51b815260206004820152602560248201527f46696174546f6b656e56323a2063616c6c6572206d757374206265207468652060448201527f7061796565000000000000000000000000000000000000000000000000000000606482015260840161096e565b61368387838686613e40565b604080517fd099cc98ef71107a616c4f0f941f04c322d8e254fe26b3c6668db87aae413de860208201526001600160a01b03808a169282019290925290871660608201526080810186905260a0810185905260c0810184905260e0810183905261370a908890610100015b6040516020818303038152906040528051906020012083613f34565b6137148783614041565b61294a878787613065565b60001982148061372f5750428210155b61377b5760405162461bcd60e51b815260206004820152601e60248201527f46696174546f6b656e56323a207065726d697420697320657870697265640000604482015260640161096e565b60006138626137886132f3565b6001600160a01b038816600090815260116020526040812080547f6e71edae12b1b97f4d1f60370fef10105fa2faae0126114a169c64845d6126c9928b928b928b929091906137d683614caf565b909155506040805160208101969096526001600160a01b0394851690860152929091166060840152608083015260a082015260c0810186905260e001604051602081830303815290604052805190602001206040517f19010000000000000000000000000000000000000000000000000000000000008152600281019290925260228201526042902090565b6040517f6ccea65200000000000000000000000000000000000000000000000000000000815290915073f6f832466Cd6C21967E0D954109403f36Bc8ceaA90636ccea652906138b990899085908790600401614cc9565b602060405180830381865af41580156138d6573d6000803e3d6000fd5b505050506040513d601f19601f820116820180604052508101906138fa9190614cfa565b6139465760405162461bcd60e51b815260206004820152601a60248201527f454950323631323a20696e76616c6964207369676e6174757265000000000000604482015260640161096e565b613951868686612f0a565b505050505050565b6001600160a01b038084166000908152600a6020908152604080832093861683529290522054808211156139f55760405162461bcd60e51b815260206004820152602560248201527f45524332303a2064656372656173656420616c6c6f77616e63652062656c6f7760448201527f207a65726f000000000000000000000000000000000000000000000000000000606482015260840161096e565b6001600160a01b038085166000908152600a6020908152604080832093871683529290522054613a2e908590859061346d908690614a92565b50505050565b604080516001600160a01b038416602482015260448082018490528251808303909101815260649091019091526020810180517bffffffffffffffffffffffffffffffffffffffffffffffffffffffff167fa9059cbb0000000000000000000000000000000000000000000000000000000017905261273f90849061409b565b613abe8383614183565b604080517f158b0a9edf7a828aad02f63cd515c68ef2f50ba807396f6d12842833a159742960208201526001600160a01b0385169181019190915260608101839052613b0e9084906080016136ee565b6001600160a01b0383166000818152601060209081526040808320868452909152808220805460ff19166001179055518492917f1cdd46ff242716cdaa72d159d339a485b3438398348d68f09d7c8c0a59353d8191a3505050565b613b7587838686613e40565b604080517f7c7c6cdb67a18743f49ec6fa9b35f50d52ed05cbed4cc592e13b44501c1a226760208201526001600160a01b03808a169282019290925290871660608201526080810186905260a0810185905260c0810184905260e0810183905261370a908890610100016136ee565b61294a87878787868689604051602001613c3693929190928352602083019190915260f81b7fff0000000000000000000000000000000000000000000000000000000000000016604082015260410190565b60405160208183030381529060405261371f565b600046613cc78484838251602093840120825192840192909220604080517f8b73c3c69bb8fe3d512ecc4cf759cc79239f7b179b0ffacaa9a75d522b39400f8187015280820194909452606084019190915260808301919091523060a0808401919091528151808403909101815260c09092019052805191012090565b949350505050565b61221e89898989898988888b604051602001613d2393929190928352602083019190915260f81b7fff0000000000000000000000000000000000000000000000000000000000000016604082015260410190565b604051602081830303815290604052613b69565b61221e89898989898988888b604051602001613d8b93929190928352602083019190915260f81b7fff0000000000000000000000000000000000000000000000000000000000000016604082015260410190565b6040516020818303038152906040526135f9565b80613de4576001600160a01b0382166000908152600960205260409020547f7fffffffffffffffffffffffffffffffffffffffffffffffffffffffffffffff16613e20565b6001600160a01b0382166000908152600960205260409020547f8000000000000000000000000000000000000000000000000000000000000000175b6001600160a01b0390921660009081526009602052604090209190915550565b814211613eb55760405162461bcd60e51b815260206004820152602b60248201527f46696174546f6b656e56323a20617574686f72697a6174696f6e206973206e6f60448201527f74207965742076616c6964000000000000000000000000000000000000000000606482015260840161096e565b804210613f2a5760405162461bcd60e51b815260206004820152602560248201527f46696174546f6b656e56323a20617574686f72697a6174696f6e20697320657860448201527f7069726564000000000000000000000000000000000000000000000000000000606482015260840161096e565b613a2e8484614183565b73f6f832466Cd6C21967E0D954109403f36Bc8ceaA636ccea65284613f95613f5a6132f3565b866040517f19010000000000000000000000000000000000000000000000000000000000008152600281019290925260228201526042902090565b846040518463ffffffff1660e01b8152600401613fb493929190614cc9565b602060405180830381865af4158015613fd1573d6000803e3d6000fd5b505050506040513d601f19601f82011682018060405250810190613ff59190614cfa565b61273f5760405162461bcd60e51b815260206004820152601e60248201527f46696174546f6b656e56323a20696e76616c6964207369676e61747572650000604482015260640161096e565b6001600160a01b0382166000818152601060209081526040808320858452909152808220805460ff19166001179055518392917f98de503528ee59b575ef0c0a2576a82497bfc029a5685b209e9ec333479b10a591a35050565b60006140f0826040518060400160405280602081526020017f5361666545524332303a206c6f772d6c6576656c2063616c6c206661696c6564815250856001600160a01b03166142219092919063ffffffff16565b90508051600014806141115750808060200190518101906141119190614cfa565b61273f5760405162461bcd60e51b815260206004820152602a60248201527f5361666545524332303a204552433230206f7065726174696f6e20646964206e60448201527f6f74207375636365656400000000000000000000000000000000000000000000606482015260840161096e565b6001600160a01b038216600090815260106020908152604080832084845290915290205460ff161561421d5760405162461bcd60e51b815260206004820152602e60248201527f46696174546f6b656e56323a20617574686f72697a6174696f6e20697320757360448201527f6564206f722063616e63656c6564000000000000000000000000000000000000606482015260840161096e565b5050565b6060613cc7848460008585600080866001600160a01b031685876040516142489190614d1c565b60006040518083038185875af1925050503d8060008114614285576040519150601f19603f3d011682016040523d82523d6000602084013e61428a565b606091505b509150915061429b878383876142a6565b979650505050505050565b6060831561431557825160000361430e576001600160a01b0385163b61430e5760405162461bcd60e51b815260206004820152601d60248201527f416464726573733a2063616c6c20746f206e6f6e2d636f6e7472616374000000604482015260640161096e565b5081613cc7565b613cc7838381511561432a5781518083602001fd5b8060405162461bcd60e51b815260040161096e9190614394565b60005b8381101561435f578181015183820152602001614347565b50506000910152565b60008151808452614380816020860160208601614344565b601f01601f19169290920160200192915050565b6020815260006143a76020830184614368565b9392505050565b6001600160a01b0381168114612e2357600080fd5b8035610f88816143ae565b600080604083850312156143e157600080fd5b82356143ec816143ae565b946020939093013593505050565b60006020828403121561440c57600080fd5b81356143a7816143ae565b60008060006060848603121561442c57600080fd5b8335614437816143ae565b92506020840135614447816143ae565b929592945050506040919091013590565b7f4e487b7100000000000000000000000000000000000000000000000000000000600052604160045260246000fd5b600082601f83011261449857600080fd5b813567ffffffffffffffff808211156144b3576144b3614458565b604051601f8301601f19908116603f011681019082821181831017156144db576144db614458565b816040528381528660208588010111156144f457600080fd5b836020870160208301376000602085830101528094505050505092915050565b803560ff81168114610f8857600080fd5b600080600080600080600080610100898b03121561454257600080fd5b883567ffffffffffffffff8082111561455a57600080fd5b6145668c838d01614487565b995060208b013591508082111561457c57600080fd5b6145888c838d01614487565b985060408b013591508082111561459e57600080fd5b506145ab8b828c01614487565b9650506145ba60608a01614514565b94506145c860808a016143c3565b93506145d660a08a016143c3565b92506145e460c08a016143c3565b91506145f260e08a016143c3565b90509295985092959890939650565b60006020828403121561461357600080fd5b5035919050565b60008083601f84011261462c57600080fd5b50813567ffffffffffffffff81111561464457600080fd5b60208301915083602082850101111561465c57600080fd5b9250929050565b6000806000806040858703121561467957600080fd5b843567ffffffffffffffff8082111561469157600080fd5b818701915087601f8301126146a557600080fd5b8135818111156146b457600080fd5b8860208260051b85010111156146c957600080fd5b6020928301965094509086013590808211156146e457600080fd5b506146f18782880161461a565b95989497509550505050565b600080600080600060a0868803121561471557600080fd5b8535614720816143ae565b94506020860135935061473560408701614514565b94979396509394606081013594506080013592915050565b600080600080600080600060e0888a03121561476857600080fd5b8735614773816143ae565b96506020880135614783816143ae565b955060408801359450606088013593506080880135925060a0880135915060c088013567ffffffffffffffff8111156147bb57600080fd5b6147c78a828b01614487565b91505092959891949750929550565b600080600080600060a086880312156147ee57600080fd5b85356147f9816143ae565b94506020860135614809816143ae565b93506040860135925060608601359150608086013567ffffffffffffffff81111561483357600080fd5b61483f88828901614487565b9150509295509295909350565b60008060006060848603121561486157600080fd5b833561486c816143ae565b925060208401359150604084013567ffffffffffffffff81111561488f57600080fd5b61489b86828701614487565b9150509250925092565b600080600080600080600060e0888a0312156148c057600080fd5b87356148cb816143ae565b965060208801356148db816143ae565b955060408801359450606088013593506148f760808901614514565b925060a0880135915060c0880135905092959891949750929550565b6000806020838503121561492657600080fd5b823567ffffffffffffffff81111561493d57600080fd5b6149498582860161461a565b90969095509350505050565b6000806040838503121561496857600080fd5b8235614973816143ae565b91506020830135614983816143ae565b809150509250929050565b60008060008060008060008060006101208a8c0312156149ad57600080fd5b89356149b8816143ae565b985060208a01356149c8816143ae565b975060408a0135965060608a0135955060808a0135945060a08a013593506149f260c08b01614514565b925060e08a013591506101008a013590509295985092959850929598565b600181811c90821680614a2457607f821691505b602082108103614a5d577f4e487b7100000000000000000000000000000000000000000000000000000000600052602260045260246000fd5b50919050565b7f4e487b7100000000000000000000000000000000000000000000000000000000600052601160045260246000fd5b8181038181111561098657610986614a63565b601f82111561273f576000816000526020600020601f850160051c81016020861015614ace5750805b601f850160051c820191505b8181101561395157828155600101614ada565b815167ffffffffffffffff811115614b0757614b07614458565b614b1b81614b158454614a10565b84614aa5565b602080601f831160018114614b505760008415614b385750858301515b600019600386901b1c1916600185901b178555613951565b600085815260208120601f198616915b82811015614b7f57888601518255948401946001909101908401614b60565b5085821015614b9d5787850151600019600388901b60f8161c191681555b5050505050600190811b01905550565b8082018082111561098657610986614a63565b67ffffffffffffffff831115614bd857614bd8614458565b614bec83614be68354614a10565b83614aa5565b6000601f841160018114614c205760008515614c085750838201355b600019600387901b1c1916600186901b178355611fac565b600083815260209020601f19861690835b82811015614c515786850135825560209485019460019092019101614c31565b5086821015614c6e5760001960f88860031b161c19848701351681555b505060018560011b0183555050505050565b7f4e487b7100000000000000000000000000000000000000000000000000000000600052603260045260246000fd5b60006000198203614cc257614cc2614a63565b5060010190565b6001600160a01b0384168152826020820152606060408201526000614cf16060830184614368565b95945050505050565b600060208284031215614d0c57600080fd5b815180151581146143a757600080fd5b60008251614d2e818460208701614344565b919091019291505056fea2646970667358221220fc10824b7b6c8f74952dc37f6680cbd148036d1d952b783841fdd84c229ec25f64736f6c63430008160033",
  "deployedBytecode": "0x608060405234801561001057600080fd5b506004361061036d5760003560e01c80638456cb59116101d3578063b7b7289911610104578063e3ee160e116100a2578063ef55bec61161007c578063ef55bec614610848578063f2fde38b1461085b578063f9f92be41461086e578063fe575a871461088157600080fd5b8063e3ee160e146107f4578063e5a6b10f14610807578063e94a01021461080f57600080fd5b8063d505accf116100de578063d505accf1461076e578063d608ea6414610781578063d916948714610794578063dd62ed3e146107bb57600080fd5b8063b7b7289914610735578063bd10243014610748578063cf0929951461075b57600080fd5b8063a0cc6a6811610171578063aa20e1e41161014b578063aa20e1e4146106d0578063aa271e1a146106e3578063ad38bf221461070f578063b2118a8d1461072257600080fd5b8063a0cc6a6814610683578063a457c2d7146106aa578063a9059cbb146106bd57600080fd5b80638da5cb5b116101ad5780638da5cb5b1461064457806395d89b41146106555780639fd0506d1461065d5780639fd5a6cf1461067057600080fd5b80638456cb591461060057806388b7ab63146106085780638a6db9c31461061b57600080fd5b806338a63183116102ad57806354fd4d501161024b5780635c975abb116102255780635c975abb1461058957806370a082311461059d5780637ecebe00146105b05780637f2eecc3146105d957600080fd5b806354fd4d501461052a578063554bab3c146105635780635a049a701461057657600080fd5b806340c10f191161028757806340c10f19146104de57806342966c68146104f1578063430239b4146105045780634e44d9561461051757600080fd5b806338a63183146104b257806339509351146104c35780633f4ba83a146104d657600080fd5b80632fc81e091161031a578063313ce567116102f4578063313ce5671461044d5780633357162b1461046c57806335d99f351461047f5780633644e515146104aa57600080fd5b80632fc81e09146104005780633092afd51461041357806330adf81f1461042657600080fd5b80631a8952661161034b5780631a895266146103c557806323b872dd146103da5780632ab60045146103ed57600080fd5b806306fdde0314610372578063095ea7b31461039057806318160ddd146103b3575b600080fd5b61037a610894565b6040516103879190614394565b60405180910390f35b6103a361039e3660046143ce565b610922565b6040519015158152602001610387565b600b545b604051908152602001610387565b6103d86103d33660046143fa565b61098c565b005b6103a36103e8366004614417565b610a4c565b6103d86103fb3660046143fa565b610d07565b6103d861040e3660046143fa565b610e3f565b6103a36104213660046143fa565b610eae565b6103b77f6e71edae12b1b97f4d1f60370fef10105fa2faae0126114a169c64845d6126c981565b60065461045a9060ff1681565b60405160ff9091168152602001610387565b6103d861047a366004614525565b610f8d565b600854610492906001600160a01b031681565b6040516001600160a01b039091168152602001610387565b6103b76112cd565b600e546001600160a01b0316610492565b6103a36104d13660046143ce565b6112dc565b6103d8611337565b6103a36104ec3660046143ce565b61140a565b6103d86104ff366004614601565b611850565b6103d8610512366004614663565b611b3f565b6103a36105253660046143ce565b611ce0565b60408051808201909152600181527f3200000000000000000000000000000000000000000000000000000000000000602082015261037a565b6103d86105713660046143fa565b611e1a565b6103d86105843660046146fd565b611f52565b6001546103a390600160a01b900460ff1681565b6103b76105ab3660046143fa565b611fb3565b6103b76105be3660046143fa565b6001600160a01b031660009081526011602052604090205490565b6103b77fd099cc98ef71107a616c4f0f941f04c322d8e254fe26b3c6668db87aae413de881565b6103d8611ff3565b6103d861061636600461474d565b6120cc565b6103b76106293660046143fa565b6001600160a01b03166000908152600d602052604090205490565b6000546001600160a01b0316610492565b61037a612229565b600154610492906001600160a01b031681565b6103d861067e3660046147d6565b612236565b6103b77f7c7c6cdb67a18743f49ec6fa9b35f50d52ed05cbed4cc592e13b44501c1a226781565b6103a36106b83660046143ce565b612290565b6103a36106cb3660046143ce565b6122eb565b6103d86106de3660046143fa565b61243c565b6103a36106f13660046143fa565b6001600160a01b03166000908152600c602052604090205460ff1690565b6103d861071d3660046143fa565b612574565b6103d8610730366004614417565b6126ac565b6103d861074336600461484c565b612744565b600254610492906001600160a01b031681565b6103d861076936600461474d565b61279c565b6103d861077c3660046148a5565b6128ee565b6103d861078f366004614913565b612953565b6103b77f158b0a9edf7a828aad02f63cd515c68ef2f50ba807396f6d12842833a159742981565b6103b76107c9366004614955565b6001600160a01b039182166000908152600a6020908152604080832093909416825291909152205490565b6103d861080236600461498e565b612a0e565b61037a612b6f565b6103a361081d3660046143ce565b6001600160a01b03919091166000908152601060209081526040808320938352929052205460ff1690565b6103d861085636600461498e565b612b7c565b6103d86108693660046143fa565b612cd0565b6103d861087c3660046143fa565b612e26565b6103a361088f3660046143fa565b612ee6565b600480546108a190614a10565b80601f01602080910402602001604051908101604052809291908181526020018280546108cd90614a10565b801561091a5780601f106108ef5761010080835404028352916020019161091a565b820191906000526020600020905b8154815290600101906020018083116108fd57829003601f168201915b505050505081565b600154600090600160a01b900460ff16156109775760405162461bcd60e51b815260206004820152601060248201526f14185d5cd8589b194e881c185d5cd95960821b60448201526064015b60405180910390fd5b610982338484612f0a565b5060015b92915050565b6002546001600160a01b03163314610a0c5760405162461bcd60e51b815260206004820152602c60248201527f426c61636b6c69737461626c653a2063616c6c6572206973206e6f742074686560448201527f20626c61636b6c69737465720000000000000000000000000000000000000000606482015260840161096e565b610a158161305a565b6040516001600160a01b038216907f117e3210bb9aa7d9baff172026820255c6f6c30ba8999d1c2fd88e2848137c4e90600090a250565b600154600090600160a01b900460ff1615610a9c5760405162461bcd60e51b815260206004820152601060248201526f14185d5cd8589b194e881c185d5cd95960821b604482015260640161096e565b3360008181526009602052604090205460ff1c600103610b0c5760405162461bcd60e51b815260206004820152602560248201527f426c61636b6c69737461626c653a206163636f756e7420697320626c61636b6c6044820152641a5cdd195960da1b606482015260840161096e565b6001600160a01b038516600090815260096020526040902054859060ff1c600103610b875760405162461bcd60e51b815260206004820152602560248201527f426c61636b6c69737461626c653a206163636f756e7420697320626c61636b6c6044820152641a5cdd195960da1b606482015260840161096e565b6001600160a01b038516600090815260096020526040902054859060ff1c600103610c025760405162461bcd60e51b815260206004820152602560248201527f426c61636b6c69737461626c653a206163636f756e7420697320626c61636b6c6044820152641a5cdd195960da1b606482015260840161096e565b6001600160a01b0387166000908152600a60209081526040808320338452909152902054851115610c9b5760405162461bcd60e51b815260206004820152602860248201527f45524332303a207472616e7366657220616d6f756e742065786365656473206160448201527f6c6c6f77616e6365000000000000000000000000000000000000000000000000606482015260840161096e565b610ca6878787613065565b6001600160a01b0387166000908152600a60209081526040808320338452909152902054610cd5908690614a92565b6001600160a01b0388166000908152600a60209081526040808320338452909152902055600193505050509392505050565b6000546001600160a01b03163314610d615760405162461bcd60e51b815260206004820181905260248201527f4f776e61626c653a2063616c6c6572206973206e6f7420746865206f776e6572604482015260640161096e565b6001600160a01b038116610ddd5760405162461bcd60e51b815260206004820152602a60248201527f526573637561626c653a206e6577207265736375657220697320746865207a6560448201527f726f206164647265737300000000000000000000000000000000000000000000606482015260840161096e565b600e80547fffffffffffffffffffffffff0000000000000000000000000000000000000000166001600160a01b0383169081179091556040517fe475e580d85111348e40d8ca33cfdd74c30fe1655c2d8537a13abc10065ffa5a90600090a250565b60125460ff16600114610e5157600080fd5b306000908152600960205260409020547f7fffffffffffffffffffffffffffffffffffffffffffffffffffffffffffffff168015610e9457610e94308383613065565b610e9d306132e8565b50506012805460ff19166002179055565b6008546000906001600160a01b03163314610f315760405162461bcd60e51b815260206004820152602960248201527f46696174546f6b656e3a2063616c6c6572206973206e6f7420746865206d617360448201527f7465724d696e7465720000000000000000000000000000000000000000000000606482015260840161096e565b6001600160a01b0382166000818152600c60209081526040808320805460ff19169055600d909152808220829055517fe94479a9f7e1952cc78f2d6baab678adc1b772d936c6583def489e524cb666929190a25060015b919050565b600854600160a01b900460ff161561100d5760405162461bcd60e51b815260206004820152602a60248201527f46696174546f6b656e3a20636f6e747261637420697320616c7265616479206960448201527f6e697469616c697a656400000000000000000000000000000000000000000000606482015260840161096e565b6001600160a01b0384166110895760405162461bcd60e51b815260206004820152602f60248201527f46696174546f6b656e3a206e6577206d61737465724d696e746572206973207460448201527f6865207a65726f20616464726573730000000000000000000000000000000000606482015260840161096e565b6001600160a01b0383166111055760405162461bcd60e51b815260206004820152602960248201527f46696174546f6b656e3a206e65772070617573657220697320746865207a657260448201527f6f20616464726573730000000000000000000000000000000000000000000000606482015260840161096e565b6001600160a01b0382166111815760405162461bcd60e51b815260206004820152602e60248201527f46696174546f6b656e3a206e657720626c61636b6c697374657220697320746860448201527f65207a65726f2061646472657373000000000000000000000000000000000000606482015260840161096e565b6001600160a01b0381166111fd5760405162461bcd60e51b815260206004820152602860248201527f46696174546f6b656e3a206e6577206f776e657220697320746865207a65726f60448201527f2061646472657373000000000000000000000000000000000000000000000000606482015260840161096e565b60046112098982614aed565b5060056112168882614aed565b5060076112238782614aed565b506006805460ff191660ff8716179055600880547fffffffffffffffffffffffff00000000000000000000000000000000000000009081166001600160a01b0387811691909117909255600180548216868416179055600280548216858416179055600080549091169183169190911790555050600880547fffffffffffffffffffffff00ffffffffffffffffffffffffffffffffffffffff16600160a01b179055505050505050565b60006112d76132f3565b905090565b600154600090600160a01b900460ff161561132c5760405162461bcd60e51b815260206004820152601060248201526f14185d5cd8589b194e881c185d5cd95960821b604482015260640161096e565b610982338484613434565b6001546001600160a01b031633146113b75760405162461bcd60e51b815260206004820152602260248201527f5061757361626c653a2063616c6c6572206973206e6f7420746865207061757360448201527f6572000000000000000000000000000000000000000000000000000000000000606482015260840161096e565b600180547fffffffffffffffffffffff00ffffffffffffffffffffffffffffffffffffffff1690556040517f7805862f689e2f13df9f062ff482ad3ad112aca9e0847911ed832e158c525b3390600090a1565b600154600090600160a01b900460ff161561145a5760405162461bcd60e51b815260206004820152601060248201526f14185d5cd8589b194e881c185d5cd95960821b604482015260640161096e565b336000908152600c602052604090205460ff166114df5760405162461bcd60e51b815260206004820152602160248201527f46696174546f6b656e3a2063616c6c6572206973206e6f742061206d696e746560448201527f7200000000000000000000000000000000000000000000000000000000000000606482015260840161096e565b3360008181526009602052604090205460ff1c60010361154f5760405162461bcd60e51b815260206004820152602560248201527f426c61636b6c69737461626c653a206163636f756e7420697320626c61636b6c6044820152641a5cdd195960da1b606482015260840161096e565b6001600160a01b038416600090815260096020526040902054849060ff1c6001036115ca5760405162461bcd60e51b815260206004820152602560248201527f426c61636b6c69737461626c653a206163636f756e7420697320626c61636b6c6044820152641a5cdd195960da1b606482015260840161096e565b6001600160a01b0385166116465760405162461bcd60e51b815260206004820152602360248201527f46696174546f6b656e3a206d696e7420746f20746865207a65726f206164647260448201527f6573730000000000000000000000000000000000000000000000000000000000606482015260840161096e565b600084116116bc5760405162461bcd60e51b815260206004820152602960248201527f46696174546f6b656e3a206d696e7420616d6f756e74206e6f7420677265617460448201527f6572207468616e20300000000000000000000000000000000000000000000000606482015260840161096e565b336000908152600d6020526040902054808511156117425760405162461bcd60e51b815260206004820152602e60248201527f46696174546f6b656e3a206d696e7420616d6f756e742065786365656473206d60448201527f696e746572416c6c6f77616e6365000000000000000000000000000000000000606482015260840161096e565b84600b546117509190614bad565b600b556117a88686611799826001600160a01b03166000908152600960205260409020547f7fffffffffffffffffffffffffffffffffffffffffffffffffffffffffffffff1690565b6117a39190614bad565b613472565b6117b28582614a92565b336000818152600d602090815260409182902093909355518781526001600160a01b038916927fab8530f87dc9b59234c4623bf917212bb2536d647574c8e7e5da92c2ede0c9f8910160405180910390a36040518581526001600160a01b038716906000907fddf252ad1be2c89b69c2b068fc378daa952ba7f163c4a11628f55a4df523b3ef9060200160405180910390a350600195945050505050565b600154600160a01b900460ff161561189d5760405162461bcd60e51b815260206004820152601060248201526f14185d5cd8589b194e881c185d5cd95960821b604482015260640161096e565b336000908152600c602052604090205460ff166119225760405162461bcd60e51b815260206004820152602160248201527f46696174546f6b656e3a2063616c6c6572206973206e6f742061206d696e746560448201527f7200000000000000000000000000000000000000000000000000000000000000606482015260840161096e565b3360008181526009602052604090205460ff1c6001036119925760405162461bcd60e51b815260206004820152602560248201527f426c61636b6c69737461626c653a206163636f756e7420697320626c61636b6c6044820152641a5cdd195960da1b606482015260840161096e565b336000908152600960205260409020547f7fffffffffffffffffffffffffffffffffffffffffffffffffffffffffffffff1682611a375760405162461bcd60e51b815260206004820152602960248201527f46696174546f6b656e3a206275726e20616d6f756e74206e6f7420677265617460448201527f6572207468616e20300000000000000000000000000000000000000000000000606482015260840161096e565b82811015611aad5760405162461bcd60e51b815260206004820152602660248201527f46696174546f6b656e3a206275726e20616d6f756e742065786365656473206260448201527f616c616e63650000000000000000000000000000000000000000000000000000606482015260840161096e565b82600b54611abb9190614a92565b600b55611acc336117a38584614a92565b60405183815233907fcc16f5dbb4873280815c1ee09dbd06736cffcc184412cf7a71a0fdb75d397ca59060200160405180910390a260405183815260009033907fddf252ad1be2c89b69c2b068fc378daa952ba7f163c4a11628f55a4df523b3ef906020015b60405180910390a3505050565b60125460ff16600214611b5157600080fd5b6005611b5e828483614bc0565b5060005b83811015611ca75760036000868684818110611b8057611b80614c80565b9050602002016020810190611b9591906143fa565b6001600160a01b0316815260208101919091526040016000205460ff16611c245760405162461bcd60e51b815260206004820152603d60248201527f46696174546f6b656e56325f323a20426c61636b6c697374696e67207072657660448201527f696f75736c7920756e626c61636b6c6973746564206163636f756e7421000000606482015260840161096e565b611c53858583818110611c3957611c39614c80565b9050602002016020810190611c4e91906143fa565b6132e8565b60036000868684818110611c6957611c69614c80565b9050602002016020810190611c7e91906143fa565b6001600160a01b031681526020810191909152604001600020805460ff19169055600101611b62565b50611cb1306132e8565b5050306000908152600360208190526040909120805460ff199081169091556012805490911690911790555050565b600154600090600160a01b900460ff1615611d305760405162461bcd60e51b815260206004820152601060248201526f14185d5cd8589b194e881c185d5cd95960821b604482015260640161096e565b6008546001600160a01b03163314611db05760405162461bcd60e51b815260206004820152602960248201527f46696174546f6b656e3a2063616c6c6572206973206e6f7420746865206d617360448201527f7465724d696e7465720000000000000000000000000000000000000000000000606482015260840161096e565b6001600160a01b0383166000818152600c60209081526040808320805460ff19166001179055600d82529182902085905590518481527f46980fca912ef9bcdbd36877427b6b90e860769f604e89c0e67720cece530d20910160405180910390a250600192915050565b6000546001600160a01b03163314611e745760405162461bcd60e51b815260206004820181905260248201527f4f776e61626c653a2063616c6c6572206973206e6f7420746865206f776e6572604482015260640161096e565b6001600160a01b038116611ef05760405162461bcd60e51b815260206004820152602860248201527f5061757361626c653a206e65772070617573657220697320746865207a65726f60448201527f2061646472657373000000000000000000000000000000000000000000000000606482015260840161096e565b600180547fffffffffffffffffffffffff0000000000000000000000000000000000000000166001600160a01b0383169081179091556040517fb80482a293ca2e013eda8683c9bd7fc8347cfdaeea5ede58cba46df502c2a60490600090a250565b600154600160a01b900460ff1615611f9f5760405162461bcd60e51b815260206004820152601060248201526f14185d5cd8589b194e881c185d5cd95960821b604482015260640161096e565b611fac858585858561359d565b5050505050565b6001600160a01b0381166000908152600960205260408120547f7fffffffffffffffffffffffffffffffffffffffffffffffffffffffffffffff16610986565b6001546001600160a01b031633146120735760405162461bcd60e51b815260206004820152602260248201527f5061757361626c653a2063616c6c6572206973206e6f7420746865207061757360448201527f6572000000000000000000000000000000000000000000000000000000000000606482015260840161096e565b600180547fffffffffffffffffffffff00ffffffffffffffffffffffffffffffffffffffff16600160a01b1790556040517f6985a02210a168e66602d3235cb6db0e70f92b3ba4d376a33c0f3d9434bff62590600090a1565b600154600160a01b900460ff16156121195760405162461bcd60e51b815260206004820152601060248201526f14185d5cd8589b194e881c185d5cd95960821b604482015260640161096e565b6001600160a01b038716600090815260096020526040902054879060ff1c6001036121945760405162461bcd60e51b815260206004820152602560248201527f426c61636b6c69737461626c653a206163636f756e7420697320626c61636b6c6044820152641a5cdd195960da1b606482015260840161096e565b6001600160a01b038716600090815260096020526040902054879060ff1c60010361220f5760405162461bcd60e51b815260206004820152602560248201527f426c61636b6c69737461626c653a206163636f756e7420697320626c61636b6c6044820152641a5cdd195960da1b606482015260840161096e565b61221e898989898989896135f9565b505050505050505050565b600580546108a190614a10565b600154600160a01b900460ff16156122835760405162461bcd60e51b815260206004820152601060248201526f14185d5cd8589b194e881c185d5cd95960821b604482015260640161096e565b611fac858585858561371f565b600154600090600160a01b900460ff16156122e05760405162461bcd60e51b815260206004820152601060248201526f14185d5cd8589b194e881c185d5cd95960821b604482015260640161096e565b610982338484613959565b600154600090600160a01b900460ff161561233b5760405162461bcd60e51b815260206004820152601060248201526f14185d5cd8589b194e881c185d5cd95960821b604482015260640161096e565b3360008181526009602052604090205460ff1c6001036123ab5760405162461bcd60e51b815260206004820152602560248201527f426c61636b6c69737461626c653a206163636f756e7420697320626c61636b6c6044820152641a5cdd195960da1b606482015260840161096e565b6001600160a01b038416600090815260096020526040902054849060ff1c6001036124265760405162461bcd60e51b815260206004820152602560248201527f426c61636b6c69737461626c653a206163636f756e7420697320626c61636b6c6044820152641a5cdd195960da1b606482015260840161096e565b612431338686613065565b506001949350505050565b6000546001600160a01b031633146124965760405162461bcd60e51b815260206004820181905260248201527f4f776e61626c653a2063616c6c6572206973206e6f7420746865206f776e6572604482015260640161096e565b6001600160a01b0381166125125760405162461bcd60e51b815260206004820152602f60248201527f46696174546f6b656e3a206e6577206d61737465724d696e746572206973207460448201527f6865207a65726f20616464726573730000000000000000000000000000000000606482015260840161096e565b600880547fffffffffffffffffffffffff0000000000000000000000000000000000000000166001600160a01b0383169081179091556040517fdb66dfa9c6b8f5226fe9aac7e51897ae8ee94ac31dc70bb6c9900b2574b707e690600090a250565b6000546001600160a01b031633146125ce5760405162461bcd60e51b815260206004820181905260248201527f4f776e61626c653a2063616c6c6572206973206e6f7420746865206f776e6572604482015260640161096e565b6001600160a01b03811661264a5760405162461bcd60e51b815260206004820152603260248201527f426c61636b6c69737461626c653a206e657720626c61636b6c6973746572206960448201527f7320746865207a65726f20616464726573730000000000000000000000000000606482015260840161096e565b600280547fffffffffffffffffffffffff0000000000000000000000000000000000000000166001600160a01b0383169081179091556040517fc67398012c111ce95ecb7429b933096c977380ee6c421175a71a4a4c6c88c06e90600090a250565b600e546001600160a01b0316331461272b5760405162461bcd60e51b8152602060048201526024808201527f526573637561626c653a2063616c6c6572206973206e6f74207468652072657360448201527f6375657200000000000000000000000000000000000000000000000000000000606482015260840161096e565b61273f6001600160a01b0384168383613a34565b505050565b600154600160a01b900460ff16156127915760405162461bcd60e51b815260206004820152601060248201526f14185d5cd8589b194e881c185d5cd95960821b604482015260640161096e565b61273f838383613ab4565b600154600160a01b900460ff16156127e95760405162461bcd60e51b815260206004820152601060248201526f14185d5cd8589b194e881c185d5cd95960821b604482015260640161096e565b6001600160a01b038716600090815260096020526040902054879060ff1c6001036128645760405162461bcd60e51b815260206004820152602560248201527f426c61636b6c69737461626c653a206163636f756e7420697320626c61636b6c6044820152641a5cdd195960da1b606482015260840161096e565b6001600160a01b038716600090815260096020526040902054879060ff1c6001036128df5760405162461bcd60e51b815260206004820152602560248201527f426c61636b6c69737461626c653a206163636f756e7420697320626c61636b6c6044820152641a5cdd195960da1b606482015260840161096e565b61221e89898989898989613b69565b600154600160a01b900460ff161561293b5760405162461bcd60e51b815260206004820152601060248201526f14185d5cd8589b194e881c185d5cd95960821b604482015260640161096e565b61294a87878787878787613be4565b50505050505050565b600854600160a01b900460ff16801561296f575060125460ff16155b61297857600080fd5b6004612985828483614bc0565b506129fa82828080601f0160208091040260200160405190810160405280939291908181526020018383808284376000920191909152505060408051808201909152600181527f320000000000000000000000000000000000000000000000000000000000000060208201529150613c4a9050565b600f5550506012805460ff19166001179055565b600154600160a01b900460ff1615612a5b5760405162461bcd60e51b815260206004820152601060248201526f14185d5cd8589b194e881c185d5cd95960821b604482015260640161096e565b6001600160a01b038916600090815260096020526040902054899060ff1c600103612ad65760405162461bcd60e51b815260206004820152602560248201527f426c61636b6c69737461626c653a206163636f756e7420697320626c61636b6c6044820152641a5cdd195960da1b606482015260840161096e565b6001600160a01b038916600090815260096020526040902054899060ff1c600103612b515760405162461bcd60e51b815260206004820152602560248201527f426c61636b6c69737461626c653a206163636f756e7420697320626c61636b6c6044820152641a5cdd195960da1b606482015260840161096e565b612b628b8b8b8b8b8b8b8b8b613ccf565b5050505050505050505050565b600780546108a190614a10565b600154600160a01b900460ff1615612bc95760405162461bcd60e51b815260206004820152601060248201526f14185d5cd8589b194e881c185d5cd95960821b604482015260640161096e565b6001600160a01b038916600090815260096020526040902054899060ff1c600103612c445760405162461bcd60e51b815260206004820152602560248201527f426c61636b6c69737461626c653a206163636f756e7420697320626c61636b6c6044820152641a5cdd195960da1b606482015260840161096e565b6001600160a01b038916600090815260096020526040902054899060ff1c600103612cbf5760405162461bcd60e51b815260206004820152602560248201527f426c61636b6c69737461626c653a206163636f756e7420697320626c61636b6c6044820152641a5cdd195960da1b606482015260840161096e565b612b628b8b8b8b8b8b8b8b8b613d37565b6000546001600160a01b03163314612d2a5760405162461bcd60e51b815260206004820181905260248201527f4f776e61626c653a2063616c6c6572206973206e6f7420746865206f776e6572604482015260640161096e565b6001600160a01b038116612da65760405162461bcd60e51b815260206004820152602660248201527f4f776e61626c653a206e6577206f776e657220697320746865207a65726f206160448201527f6464726573730000000000000000000000000000000000000000000000000000606482015260840161096e565b600054604080516001600160a01b03928316815291831660208301527f8be0079c531659141344cd1fd0a4f28419497f9722a3daafe3b4186f6b6457e0910160405180910390a1600080547fffffffffffffffffffffffff0000000000000000000000000000000000000000166001600160a01b03831617905550565b50565b6002546001600160a01b03163314612ea65760405162461bcd60e51b815260206004820152602c60248201527f426c61636b6c69737461626c653a2063616c6c6572206973206e6f742074686560448201527f20626c61636b6c69737465720000000000000000000000000000000000000000606482015260840161096e565b612eaf816132e8565b6040516001600160a01b038216907fffa4e6181777692565cf28528fc88fd1516ea86b56da075235fa575af6a4b85590600090a250565b6001600160a01b03811660009081526009602052604081205460ff1c600114610986565b6001600160a01b038316612f855760405162461bcd60e51b8152602060048201526024808201527f45524332303a20617070726f76652066726f6d20746865207a65726f2061646460448201527f7265737300000000000000000000000000000000000000000000000000000000606482015260840161096e565b6001600160a01b0382166130015760405162461bcd60e51b815260206004820152602260248201527f45524332303a20617070726f766520746f20746865207a65726f20616464726560448201527f7373000000000000000000000000000000000000000000000000000000000000606482015260840161096e565b6001600160a01b038381166000818152600a602090815260408083209487168084529482529182902085905590518481527f8c5be1e5ebec7d5bd14f71427d1e84f3dd0314c0f7b2291e5b200ac8c7c3b9259101611b32565b612e23816000613d9f565b6001600160a01b0383166130e15760405162461bcd60e51b815260206004820152602560248201527f45524332303a207472616e736665722066726f6d20746865207a65726f20616460448201527f6472657373000000000000000000000000000000000000000000000000000000606482015260840161096e565b6001600160a01b03821661315d5760405162461bcd60e51b815260206004820152602360248201527f45524332303a207472616e7366657220746f20746865207a65726f206164647260448201527f6573730000000000000000000000000000000000000000000000000000000000606482015260840161096e565b6001600160a01b0383166000908152600960205260409020547f7fffffffffffffffffffffffffffffffffffffffffffffffffffffffffffffff1681111561320d5760405162461bcd60e51b815260206004820152602660248201527f45524332303a207472616e7366657220616d6f756e742065786365656473206260448201527f616c616e63650000000000000000000000000000000000000000000000000000606482015260840161096e565b61325d8382613253866001600160a01b03166000908152600960205260409020547f7fffffffffffffffffffffffffffffffffffffffffffffffffffffffffffffff1690565b6117a39190614a92565b6132a38282611799856001600160a01b03166000908152600960205260409020547f7fffffffffffffffffffffffffffffffffffffffffffffffffffffffffffffff1690565b816001600160a01b0316836001600160a01b03167fddf252ad1be2c89b69c2b068fc378daa952ba7f163c4a11628f55a4df523b3ef83604051611b3291815260200190565b612e23816001613d9f565b60006112d76004805461330590614a10565b80601f016020809104026020016040519081016040528092919081815260200182805461333190614a10565b801561337e5780601f106133535761010080835404028352916020019161337e565b820191906000526020600020905b81548152906001019060200180831161336157829003601f168201915b50505050506040518060400160405280600181526020017f32000000000000000000000000000000000000000000000000000000000000008152506133c04690565b8251602093840120825192840192909220604080517f8b73c3c69bb8fe3d512ecc4cf759cc79239f7b179b0ffacaa9a75d522b39400f8187015280820194909452606084019190915260808301919091523060a0808401919091528151808403909101815260c09092019052805191012090565b6001600160a01b038084166000908152600a602090815260408083209386168352929052205461273f908490849061346d908590614bad565b612f0a565b7f7fffffffffffffffffffffffffffffffffffffffffffffffffffffffffffffff8111156135085760405162461bcd60e51b815260206004820152602a60248201527f46696174546f6b656e56325f323a2042616c616e63652065786365656473202860448201527f325e323535202d20312900000000000000000000000000000000000000000000606482015260840161096e565b6001600160a01b03821660009081526009602052604090205460ff1c6001036135815760405162461bcd60e51b815260206004820152602560248201527f46696174546f6b656e56325f323a204163636f756e7420697320626c61636b6c6044820152641a5cdd195960da1b606482015260840161096e565b6001600160a01b03909116600090815260096020526040902055565b60408051602081018490529081018290527fff0000000000000000000000000000000000000000000000000000000000000060f885901b166060820152611fac9086908690606101604051602081830303815290604052613ab4565b6001600160a01b03861633146136775760405162461bcd60e51b815260206004820152602560248201527f46696174546f6b656e56323a2063616c6c6572206d757374206265207468652060448201527f7061796565000000000000000000000000000000000000000000000000000000606482015260840161096e565b61368387838686613e40565b604080517fd099cc98ef71107a616c4f0f941f04c322d8e254fe26b3c6668db87aae413de860208201526001600160a01b03808a169282019290925290871660608201526080810186905260a0810185905260c0810184905260e0810183905261370a908890610100015b6040516020818303038152906040528051906020012083613f34565b6137148783614041565b61294a878787613065565b60001982148061372f5750428210155b61377b5760405162461bcd60e51b815260206004820152601e60248201527f46696174546f6b656e56323a207065726d697420697320657870697265640000604482015260640161096e565b60006138626137886132f3565b6001600160a01b038816600090815260116020526040812080547f6e71edae12b1b97f4d1f60370fef10105fa2faae0126114a169c64845d6126c9928b928b928b929091906137d683614caf565b909155506040805160208101969096526001600160a01b0394851690860152929091166060840152608083015260a082015260c0810186905260e001604051602081830303815290604052805190602001206040517f19010000000000000000000000000000000000000000000000000000000000008152600281019290925260228201526042902090565b6040517f6ccea65200000000000000000000000000000000000000000000000000000000815290915073__$4aa58fbb4121ecfaea545b1f4293c2e7c7$__90636ccea652906138b990899085908790600401614cc9565b602060405180830381865af41580156138d6573d6000803e3d6000fd5b505050506040513d601f19601f820116820180604052508101906138fa9190614cfa565b6139465760405162461bcd60e51b815260206004820152601a60248201527f454950323631323a20696e76616c6964207369676e6174757265000000000000604482015260640161096e565b613951868686612f0a565b505050505050565b6001600160a01b038084166000908152600a6020908152604080832093861683529290522054808211156139f55760405162461bcd60e51b815260206004820152602560248201527f45524332303a2064656372656173656420616c6c6f77616e63652062656c6f7760448201527f207a65726f000000000000000000000000000000000000000000000000000000606482015260840161096e565b6001600160a01b038085166000908152600a6020908152604080832093871683529290522054613a2e908590859061346d908690614a92565b50505050565b604080516001600160a01b038416602482015260448082018490528251808303909101815260649091019091526020810180517bffffffffffffffffffffffffffffffffffffffffffffffffffffffff167fa9059cbb0000000000000000000000000000000000000000000000000000000017905261273f90849061409b565b613abe8383614183565b604080517f158b0a9edf7a828aad02f63cd515c68ef2f50ba807396f6d12842833a159742960208201526001600160a01b0385169181019190915260608101839052613b0e9084906080016136ee565b6001600160a01b0383166000818152601060209081526040808320868452909152808220805460ff19166001179055518492917f1cdd46ff242716cdaa72d159d339a485b3438398348d68f09d7c8c0a59353d8191a3505050565b613b7587838686613e40565b604080517f7c7c6cdb67a18743f49ec6fa9b35f50d52ed05cbed4cc592e13b44501c1a226760208201526001600160a01b03808a169282019290925290871660608201526080810186905260a0810185905260c0810184905260e0810183905261370a908890610100016136ee565b61294a87878787868689604051602001613c3693929190928352602083019190915260f81b7fff0000000000000000000000000000000000000000000000000000000000000016604082015260410190565b60405160208183030381529060405261371f565b600046613cc78484838251602093840120825192840192909220604080517f8b73c3c69bb8fe3d512ecc4cf759cc79239f7b179b0ffacaa9a75d522b39400f8187015280820194909452606084019190915260808301919091523060a0808401919091528151808403909101815260c09092019052805191012090565b949350505050565b61221e89898989898988888b604051602001613d2393929190928352602083019190915260f81b7fff0000000000000000000000000000000000000000000000000000000000000016604082015260410190565b604051602081830303815290604052613b69565b61221e89898989898988888b604051602001613d8b93929190928352602083019190915260f81b7fff0000000000000000000000000000000000000000000000000000000000000016604082015260410190565b6040516020818303038152906040526135f9565b80613de4576001600160a01b0382166000908152600960205260409020547f7fffffffffffffffffffffffffffffffffffffffffffffffffffffffffffffff16613e20565b6001600160a01b0382166000908152600960205260409020547f8000000000000000000000000000000000000000000000000000000000000000175b6001600160a01b0390921660009081526009602052604090209190915550565b814211613eb55760405162461bcd60e51b815260206004820152602b60248201527f46696174546f6b656e56323a20617574686f72697a6174696f6e206973206e6f60448201527f74207965742076616c6964000000000000000000000000000000000000000000606482015260840161096e565b804210613f2a5760405162461bcd60e51b815260206004820152602560248201527f46696174546f6b656e56323a20617574686f72697a6174696f6e20697320657860448201527f7069726564000000000000000000000000000000000000000000000000000000606482015260840161096e565b613a2e8484614183565b73__$4aa58fbb4121ecfaea545b1f4293c2e7c7$__636ccea65284613f95613f5a6132f3565b866040517f19010000000000000000000000000000000000000000000000000000000000008152600281019290925260228201526042902090565b846040518463ffffffff1660e01b8152600401613fb493929190614cc9565b602060405180830381865af4158015613fd1573d6000803e3d6000fd5b505050506040513d601f19601f82011682018060405250810190613ff59190614cfa565b61273f5760405162461bcd60e51b815260206004820152601e60248201527f46696174546f6b656e56323a20696e76616c6964207369676e61747572650000604482015260640161096e565b6001600160a01b0382166000818152601060209081526040808320858452909152808220805460ff19166001179055518392917f98de503528ee59b575ef0c0a2576a82497bfc029a5685b209e9ec333479b10a591a35050565b60006140f0826040518060400160405280602081526020017f5361666545524332303a206c6f772d6c6576656c2063616c6c206661696c6564815250856001600160a01b03166142219092919063ffffffff16565b90508051600014806141115750808060200190518101906141119190614cfa565b61273f5760405162461bcd60e51b815260206004820152602a60248201527f5361666545524332303a204552433230206f7065726174696f6e20646964206e60448201527f6f74207375636365656400000000000000000000000000000000000000000000606482015260840161096e565b6001600160a01b038216600090815260106020908152604080832084845290915290205460ff161561421d5760405162461bcd60e51b815260206004820152602e60248201527f46696174546f6b656e56323a20617574686f72697a6174696f6e20697320757360448201527f6564206f722063616e63656c6564000000000000000000000000000000000000606482015260840161096e565b5050565b6060613cc7848460008585600080866001600160a01b031685876040516142489190614d1c565b60006040518083038185875af1925050503d8060008114614285576040519150601f19603f3d011682016040523d82523d6000602084013e61428a565b606091505b509150915061429b878383876142a6565b979650505050505050565b6060831561431557825160000361430e576001600160a01b0385163b61430e5760405162461bcd60e51b815260206004820152601d60248201527f416464726573733a2063616c6c20746f206e6f6e2d636f6e7472616374000000604482015260640161096e565b5081613cc7565b613cc7838381511561432a5781518083602001fd5b8060405162461bcd60e51b815260040161096e9190614394565b60005b8381101561435f578181015183820152602001614347565b50506000910152565b60008151808452614380816020860160208601614344565b601f01601f19169290920160200192915050565b6020815260006143a76020830184614368565b9392505050565b6001600160a01b0381168114612e2357600080fd5b8035610f88816143ae565b600080604083850312156143e157600080fd5b82356143ec816143ae565b946020939093013593505050565b60006020828403121561440c57600080fd5b81356143a7816143ae565b60008060006060848603121561442c57600080fd5b8335614437816143ae565b92506020840135614447816143ae565b929592945050506040919091013590565b7f4e487b7100000000000000000000000000000000000000000000000000000000600052604160045260246000fd5b600082601f83011261449857600080fd5b813567ffffffffffffffff808211156144b3576144b3614458565b604051601f8301601f19908116603f011681019082821181831017156144db576144db614458565b816040528381528660208588010111156144f457600080fd5b836020870160208301376000602085830101528094505050505092915050565b803560ff81168114610f8857600080fd5b600080600080600080600080610100898b03121561454257600080fd5b883567ffffffffffffffff8082111561455a57600080fd5b6145668c838d01614487565b995060208b013591508082111561457c57600080fd5b6145888c838d01614487565b985060408b013591508082111561459e57600080fd5b506145ab8b828c01614487565b9650506145ba60608a01614514565b94506145c860808a016143c3565b93506145d660a08a016143c3565b92506145e460c08a016143c3565b91506145f260e08a016143c3565b90509295985092959890939650565b60006020828403121561461357600080fd5b5035919050565b60008083601f84011261462c57600080fd5b50813567ffffffffffffffff81111561464457600080fd5b60208301915083602082850101111561465c57600080fd5b9250929050565b6000806000806040858703121561467957600080fd5b843567ffffffffffffffff8082111561469157600080fd5b818701915087601f8301126146a557600080fd5b8135818111156146b457600080fd5b8860208260051b85010111156146c957600080fd5b6020928301965094509086013590808211156146e457600080fd5b506146f18782880161461a565b95989497509550505050565b600080600080600060a0868803121561471557600080fd5b8535614720816143ae565b94506020860135935061473560408701614514565b94979396509394606081013594506080013592915050565b600080600080600080600060e0888a03121561476857600080fd5b8735614773816143ae565b96506020880135614783816143ae565b955060408801359450606088013593506080880135925060a0880135915060c088013567ffffffffffffffff8111156147bb57600080fd5b6147c78a828b01614487565b91505092959891949750929550565b600080600080600060a086880312156147ee57600080fd5b85356147f9816143ae565b94506020860135614809816143ae565b93506040860135925060608601359150608086013567ffffffffffffffff81111561483357600080fd5b61483f88828901614487565b9150509295509295909350565b60008060006060848603121561486157600080fd5b833561486c816143ae565b925060208401359150604084013567ffffffffffffffff81111561488f57600080fd5b61489b86828701614487565b9150509250925092565b600080600080600080600060e0888a0312156148c057600080fd5b87356148cb816143ae565b965060208801356148db816143ae565b955060408801359450606088013593506148f760808901614514565b925060a0880135915060c0880135905092959891949750929550565b6000806020838503121561492657600080fd5b823567ffffffffffffffff81111561493d57600080fd5b6149498582860161461a565b90969095509350505050565b6000806040838503121561496857600080fd5b8235614973816143ae565b91506020830135614983816143ae565b809150509250929050565b60008060008060008060008060006101208a8c0312156149ad57600080fd5b89356149b8816143ae565b985060208a01356149c8816143ae565b975060408a0135965060608a0135955060808a0135945060a08a013593506149f260c08b01614514565b925060e08a013591506101008a013590509295985092959850929598565b600181811c90821680614a2457607f821691505b602082108103614a5d577f4e487b7100000000000000000000000000000000000000000000000000000000600052602260045260246000fd5b50919050565b7f4e487b7100000000000000000000000000000000000000000000000000000000600052601160045260246000fd5b8181038181111561098657610986614a63565b601f82111561273f576000816000526020600020601f850160051c81016020861015614ace5750805b601f850160051c820191505b8181101561395157828155600101614ada565b815167ffffffffffffffff811115614b0757614b07614458565b614b1b81614b158454614a10565b84614aa5565b602080601f831160018114614b505760008415614b385750858301515b600019600386901b1c1916600185901b178555613951565b600085815260208120601f198616915b82811015614b7f57888601518255948401946001909101908401614b60565b5085821015614b9d5787850151600019600388901b60f8161c191681555b5050505050600190811b01905550565b8082018082111561098657610986614a63565b67ffffffffffffffff831115614bd857614bd8614458565b614bec83614be68354614a10565b83614aa5565b6000601f841160018114614c205760008515614c085750838201355b600019600387901b1c1916600186901b178355611fac565b600083815260209020601f19861690835b82811015614c515786850135825560209485019460019092019101614c31565b5086821015614c6e5760001960f88860031b161c19848701351681555b505060018560011b0183555050505050565b7f4e487b7100000000000000000000000000000000000000000000000000000000600052603260045260246000fd5b60006000198203614cc257614cc2614a63565b5060010190565b6001600160a01b0384168152826020820152606060408201526000614cf16060830184614368565b95945050505050565b600060208284031215614d0c57600080fd5b815180151581146143a757600080fd5b60008251614d2e818460208701614344565b919091019291505056fea2646970667358221220fc10824b7b6c8f74952dc37f6680cbd148036d1d952b783841fdd84c229ec25f64736f6c63430008160033",
  "libraries": {
    "SignatureChecker": "0xf6f832466Cd6C21967E0D954109403f36Bc8ceaA"
  },
  "devdoc": {
    "events": {
      "Approval(address,address,uint256)": {
        "details": "Emitted when the allowance of a `spender` for an `owner` is set by a call to {approve}. `value` is the new allowance."
      },
      "OwnershipTransferred(address,address)": {
        "details": "Event to show ownership has been transferred",
        "params": {
          "newOwner": "representing the address of the new owner",
          "previousOwner": "representing the address of the previous owner"
        }
      },
      "Transfer(address,address,uint256)": {
        "details": "Emitted when `value` tokens are moved from one account (`from`) to another (`to`). Note that `value` may be zero."
      }
    },
    "kind": "dev",
    "methods": {
      "DOMAIN_SEPARATOR()": {
        "returns": {
          "_0": "The bytes32 EIP712 domain separator."
        }
      },
      "allowance(address,address)": {
        "params": {
          "owner": "The token owner's address.",
          "spender": "The spender's address."
        },
        "returns": {
          "_0": "The remaining allowance."
        }
      },
      "approve(address,uint256)": {
        "params": {
          "spender": "The spender's address.",
          "value": "The allowance amount."
        },
        "returns": {
          "_0": "True if the operation was successful."
        }
      },
      "authorizationState(address,bytes32)": {
        "details": "Nonces are randomly generated 32-byte data unique to the authorizer's address",
        "params": {
          "authorizer": "Authorizer's address",
          "nonce": "Nonce of the authorization"
        },
        "returns": {
          "_0": "True if the nonce is used"
        }
      },
      "balanceOf(address)": {
        "params": {
          "account": "The address to check."
        },
        "returns": {
          "_0": "balance The fiat token balance of the account."
        }
      },
      "blacklist(address)": {
        "params": {
          "_account": "The address to blacklist."
        }
      },
      "burn(uint256)": {
        "details": "The caller must be a minter, must not be blacklisted, and the amount to burn should be less than or equal to the account's balance.",
        "params": {
          "_amount": "the amount of tokens to be burned."
        }
      },
      "cancelAuthorization(address,bytes32,bytes)": {
        "details": "Works only if the authorization is not yet used. EOA wallet signatures should be packed in the order of r, s, v.",
        "params": {
          "authorizer": "Authorizer's address",
          "nonce": "Nonce of the authorization",
          "signature": "Signature bytes signed by an EOA wallet or a contract wallet"
        }
      },
      "cancelAuthorization(address,bytes32,uint8,bytes32,bytes32)": {
        "details": "Works only if the authorization is not yet used.",
        "params": {
          "authorizer": "Authorizer's address",
          "nonce": "Nonce of the authorization",
          "r": "r of the signature",
          "s": "s of the signature",
          "v": "v of the signature"
        }
      },
      "configureMinter(address,uint256)": {
        "params": {
          "minter": "The address of the minter.",
          "minterAllowedAmount": "The minting amount allowed for the minter."
        },
        "returns": {
          "_0": "True if the operation was successful."
        }
      },
      "decreaseAllowance(address,uint256)": {
        "params": {
          "decrement": "Amount of decrease in allowance",
          "spender": "Spender's address"
        },
        "returns": {
          "_0": "True if successful"
        }
      },
      "increaseAllowance(address,uint256)": {
        "params": {
          "increment": "Amount of increase in allowance",
          "spender": "Spender's address"
        },
        "returns": {
          "_0": "True if successful"
        }
      },
      "initialize(string,string,string,uint8,address,address,address,address)": {
        "params": {
          "newBlacklister": "The blacklister address for the fiat token.",
          "newMasterMinter": "The masterMinter address for the fiat token.",
          "newOwner": "The owner of the fiat token.",
          "newPauser": "The pauser address for the fiat token.",
          "tokenCurrency": "The fiat currency that the token represents.",
          "tokenDecimals": "The number of decimals that the token uses.",
          "tokenName": "The name of the fiat token.",
          "tokenSymbol": "The symbol of the fiat token."
        }
      },
      "initializeV2(string)": {
        "params": {
          "newName": "New token name"
        }
      },
      "initializeV2_1(address)": {
        "params": {
          "lostAndFound": "The address to which the locked funds are sent"
        }
      },
      "initializeV2_2(address[],string)": {
        "params": {
          "accountsToBlacklist": "A list of accounts to migrate from the old blacklist",
          "newSymbol": "New token symbol data structure to the new blacklist data structure."
        }
      },
      "isBlacklisted(address)": {
        "params": {
          "_account": "The address to check."
        },
        "returns": {
          "_0": "True if the account is blacklisted, false if the account is not blacklisted."
        }
      },
      "isMinter(address)": {
        "params": {
          "account": "The address to check."
        },
        "returns": {
          "_0": "True if the account is a minter, false if the account is not a minter."
        }
      },
      "mint(address,uint256)": {
        "params": {
          "_amount": "The amount of tokens to mint. Must be less than or equal to the minterAllowance of the caller.",
          "_to": "The address that will receive the minted tokens."
        },
        "returns": {
          "_0": "True if the operation was successful."
        }
      },
      "minterAllowance(address)": {
        "params": {
          "minter": "The address to check."
        },
        "returns": {
          "_0": "The remaining minter allowance for the account."
        }
      },
      "nonces(address)": {
        "params": {
          "owner": "Token owner's address (Authorizer)"
        },
        "returns": {
          "_0": "Next nonce"
        }
      },
      "owner()": {
        "details": "Tells the address of the owner",
        "returns": {
          "_0": "the address of the owner"
        }
      },
      "pause()": {
        "details": "called by the owner to pause, triggers stopped state"
      },
      "permit(address,address,uint256,uint256,bytes)": {
        "details": "EOA wallet signatures should be packed in the order of r, s, v.",
        "params": {
          "deadline": "The time at which the signature expires (unix time), or max uint256 value to signal no expiration",
          "owner": "Token owner's address (Authorizer)",
          "signature": "Signature bytes signed by an EOA wallet or a contract wallet",
          "spender": "Spender's address",
          "value": "Amount of allowance"
        }
      },
      "permit(address,address,uint256,uint256,uint8,bytes32,bytes32)": {
        "params": {
          "deadline": "The time at which the signature expires (unix time), or max uint256 value to signal no expiration",
          "owner": "Token owner's address (Authorizer)",
          "r": "r of the signature",
          "s": "s of the signature",
          "spender": "Spender's address",
          "v": "v of the signature",
          "value": "Amount of allowance"
        }
      },
      "receiveWithAuthorization(address,address,uint256,uint256,uint256,bytes32,bytes)": {
        "details": "This has an additional check to ensure that the payee's address matches the caller of this function to prevent front-running attacks. EOA wallet signatures should be packed in the order of r, s, v.",
        "params": {
          "from": "Payer's address (Authorizer)",
          "nonce": "Unique nonce",
          "signature": "Signature bytes signed by an EOA wallet or a contract wallet",
          "to": "Payee's address",
          "validAfter": "The time after which this is valid (unix time)",
          "validBefore": "The time before which this is valid (unix time)",
          "value": "Amount to be transferred"
        }
      },
      "receiveWithAuthorization(address,address,uint256,uint256,uint256,bytes32,uint8,bytes32,bytes32)": {
        "details": "This has an additional check to ensure that the payee's address matches the caller of this function to prevent front-running attacks.",
        "params": {
          "from": "Payer's address (Authorizer)",
          "nonce": "Unique nonce",
          "r": "r of the signature",
          "s": "s of the signature",
          "to": "Payee's address",
          "v": "v of the signature",
          "validAfter": "The time after which this is valid (unix time)",
          "validBefore": "The time before which this is valid (unix time)",
          "value": "Amount to be transferred"
        }
      },
      "removeMinter(address)": {
        "params": {
          "minter": "The address of the minter to remove."
        },
        "returns": {
          "_0": "True if the operation was successful."
        }
      },
      "rescueERC20(address,address,uint256)": {
        "params": {
          "amount": "Amount to withdraw",
          "to": "Recipient address",
          "tokenContract": "ERC20 token contract address"
        }
      },
      "rescuer()": {
        "returns": {
          "_0": "Rescuer's address"
        }
      },
      "totalSupply()": {
        "returns": {
          "_0": "The totalSupply of the fiat token."
        }
      },
      "transfer(address,uint256)": {
        "params": {
          "to": "Payee's address.",
          "value": "Transfer amount."
        },
        "returns": {
          "_0": "True if the operation was successful."
        }
      },
      "transferFrom(address,address,uint256)": {
        "details": "The caller must have some fiat token allowance on the payer's tokens.",
        "params": {
          "from": "Payer's address.",
          "to": "Payee's address.",
          "value": "Transfer amount."
        },
        "returns": {
          "_0": "True if the operation was successful."
        }
      },
      "transferOwnership(address)": {
        "details": "Allows the current owner to transfer control of the contract to a newOwner.",
        "params": {
          "newOwner": "The address to transfer ownership to."
        }
      },
      "transferWithAuthorization(address,address,uint256,uint256,uint256,bytes32,bytes)": {
        "details": "EOA wallet signatures should be packed in the order of r, s, v.",
        "params": {
          "from": "Payer's address (Authorizer)",
          "nonce": "Unique nonce",
          "signature": "Signature bytes signed by an EOA wallet or a contract wallet",
          "to": "Payee's address",
          "validAfter": "The time after which this is valid (unix time)",
          "validBefore": "The time before which this is valid (unix time)",
          "value": "Amount to be transferred"
        }
      },
      "transferWithAuthorization(address,address,uint256,uint256,uint256,bytes32,uint8,bytes32,bytes32)": {
        "params": {
          "from": "Payer's address (Authorizer)",
          "nonce": "Unique nonce",
          "r": "r of the signature",
          "s": "s of the signature",
          "to": "Payee's address",
          "v": "v of the signature",
          "validAfter": "The time after which this is valid (unix time)",
          "validBefore": "The time before which this is valid (unix time)",
          "value": "Amount to be transferred"
        }
      },
      "unBlacklist(address)": {
        "params": {
          "_account": "The address to remove from the blacklist."
        }
      },
      "unpause()": {
        "details": "called by the owner to unpause, returns to normal state"
      },
      "updateBlacklister(address)": {
        "params": {
          "_newBlacklister": "The address of the new blacklister."
        }
      },
      "updateMasterMinter(address)": {
        "params": {
          "_newMasterMinter": "The address of the new master minter."
        }
      },
      "updatePauser(address)": {
        "params": {
          "_newPauser": "The address of the new pauser."
        }
      },
      "updateRescuer(address)": {
        "params": {
          "newRescuer": "The address of the new rescuer."
        }
      },
      "version()": {
        "returns": {
          "_0": "Version string"
        }
      }
    },
    "title": "FiatToken V2.2",
    "version": 1
  },
  "userdoc": {
    "kind": "user",
    "methods": {
      "DOMAIN_SEPARATOR()": {
        "notice": "Get the EIP712 Domain Separator."
      },
      "allowance(address,address)": {
        "notice": "Gets the remaining amount of fiat tokens a spender is allowed to transfer on behalf of the token owner."
      },
      "approve(address,uint256)": {
        "notice": "Sets a fiat token allowance for a spender to spend on behalf of the caller."
      },
      "authorizationState(address,bytes32)": {
        "notice": "Returns the state of an authorization"
      },
      "balanceOf(address)": {
        "notice": "Gets the fiat token balance of an account."
      },
      "blacklist(address)": {
        "notice": "Adds account to blacklist."
      },
      "burn(uint256)": {
        "notice": "Allows a minter to burn some of its own tokens."
      },
      "cancelAuthorization(address,bytes32,bytes)": {
        "notice": "Attempt to cancel an authorization"
      },
      "cancelAuthorization(address,bytes32,uint8,bytes32,bytes32)": {
        "notice": "Attempt to cancel an authorization"
      },
      "configureMinter(address,uint256)": {
        "notice": "Adds or updates a new minter with a mint allowance."
      },
      "decreaseAllowance(address,uint256)": {
        "notice": "Decrease the allowance by a given decrement"
      },
      "increaseAllowance(address,uint256)": {
        "notice": "Increase the allowance by a given increment"
      },
      "initialize(string,string,string,uint8,address,address,address,address)": {
        "notice": "Initializes the fiat token contract."
      },
      "initializeV2(string)": {
        "notice": "Initialize v2"
      },
      "initializeV2_1(address)": {
        "notice": "Initialize v2.1"
      },
      "initializeV2_2(address[],string)": {
        "notice": "Initialize v2.2"
      },
      "isBlacklisted(address)": {
        "notice": "Checks if account is blacklisted."
      },
      "isMinter(address)": {
        "notice": "Checks if an account is a minter."
      },
      "mint(address,uint256)": {
        "notice": "Mints fiat tokens to an address."
      },
      "minterAllowance(address)": {
        "notice": "Gets the minter allowance for an account."
      },
      "nonces(address)": {
        "notice": "Nonces for permit"
      },
      "permit(address,address,uint256,uint256,bytes)": {
        "notice": "Update allowance with a signed permit"
      },
      "permit(address,address,uint256,uint256,uint8,bytes32,bytes32)": {
        "notice": "Update allowance with a signed permit"
      },
      "receiveWithAuthorization(address,address,uint256,uint256,uint256,bytes32,bytes)": {
        "notice": "Receive a transfer with a signed authorization from the payer"
      },
      "receiveWithAuthorization(address,address,uint256,uint256,uint256,bytes32,uint8,bytes32,bytes32)": {
        "notice": "Receive a transfer with a signed authorization from the payer"
      },
      "removeMinter(address)": {
        "notice": "Removes a minter."
      },
      "rescueERC20(address,address,uint256)": {
        "notice": "Rescue ERC20 tokens locked up in this contract."
      },
      "rescuer()": {
        "notice": "Returns current rescuer"
      },
      "totalSupply()": {
        "notice": "Gets the totalSupply of the fiat token."
      },
      "transfer(address,uint256)": {
        "notice": "Transfers tokens from the caller."
      },
      "transferFrom(address,address,uint256)": {
        "notice": "Transfers tokens from an address to another by spending the caller's allowance."
      },
      "transferWithAuthorization(address,address,uint256,uint256,uint256,bytes32,bytes)": {
        "notice": "Execute a transfer with a signed authorization"
      },
      "transferWithAuthorization(address,address,uint256,uint256,uint256,bytes32,uint8,bytes32,bytes32)": {
        "notice": "Execute a transfer with a signed authorization"
      },
      "unBlacklist(address)": {
        "notice": "Removes account from blacklist."
      },
      "updateBlacklister(address)": {
        "notice": "Updates the blacklister address."
      },
      "updateMasterMinter(address)": {
        "notice": "Updates the master minter address."
      },
      "updatePauser(address)": {
        "notice": "Updates the pauser address."
      },
      "updateRescuer(address)": {
        "notice": "Updates the rescuer address."
      },
      "version()": {
        "notice": "Version string for the EIP712 domain separator"
      }
    },
    "notice": "ERC20 Token backed by fiat reserves, version 2.2",
    "version": 1
  },
  "storageLayout": {
    "storage": [
      {
        "astId": 27909,
        "contract": "src/usdc/impl/v2/FiatTokenV2_2.sol:FiatTokenV2_2",
        "label": "_owner",
        "offset": 0,
        "slot": "0",
        "type": "t_address"
      },
      {
        "astId": 28005,
        "contract": "src/usdc/impl/v2/FiatTokenV2_2.sol:FiatTokenV2_2",
        "label": "pauser",
        "offset": 0,
        "slot": "1",
        "type": "t_address"
      },
      {
        "astId": 28008,
        "contract": "src/usdc/impl/v2/FiatTokenV2_2.sol:FiatTokenV2_2",
        "label": "paused",
        "offset": 20,
        "slot": "1",
        "type": "t_bool"
      },
      {
        "astId": 26902,
        "contract": "src/usdc/impl/v2/FiatTokenV2_2.sol:FiatTokenV2_2",
        "label": "blacklister",
        "offset": 0,
        "slot": "2",
        "type": "t_address"
      },
      {
        "astId": 26906,
        "contract": "src/usdc/impl/v2/FiatTokenV2_2.sol:FiatTokenV2_2",
        "label": "_deprecatedBlacklisted",
        "offset": 0,
        "slot": "3",
        "type": "t_mapping(t_address,t_bool)"
      },
      {
        "astId": 27079,
        "contract": "src/usdc/impl/v2/FiatTokenV2_2.sol:FiatTokenV2_2",
        "label": "name",
        "offset": 0,
        "slot": "4",
        "type": "t_string_storage"
      },
      {
        "astId": 27081,
        "contract": "src/usdc/impl/v2/FiatTokenV2_2.sol:FiatTokenV2_2",
        "label": "symbol",
        "offset": 0,
        "slot": "5",
        "type": "t_string_storage"
      },
      {
        "astId": 27083,
        "contract": "src/usdc/impl/v2/FiatTokenV2_2.sol:FiatTokenV2_2",
        "label": "decimals",
        "offset": 0,
        "slot": "6",
        "type": "t_uint8"
      },
      {
        "astId": 27085,
        "contract": "src/usdc/impl/v2/FiatTokenV2_2.sol:FiatTokenV2_2",
        "label": "currency",
        "offset": 0,
        "slot": "7",
        "type": "t_string_storage"
      },
      {
        "astId": 27087,
        "contract": "src/usdc/impl/v2/FiatTokenV2_2.sol:FiatTokenV2_2",
        "label": "masterMinter",
        "offset": 0,
        "slot": "8",
        "type": "t_address"
      },
      {
        "astId": 27089,
        "contract": "src/usdc/impl/v2/FiatTokenV2_2.sol:FiatTokenV2_2",
        "label": "initialized",
        "offset": 20,
        "slot": "8",
        "type": "t_bool"
      },
      {
        "astId": 27094,
        "contract": "src/usdc/impl/v2/FiatTokenV2_2.sol:FiatTokenV2_2",
        "label": "balanceAndBlacklistStates",
        "offset": 0,
        "slot": "9",
        "type": "t_mapping(t_address,t_uint256)"
      },
      {
        "astId": 27100,
        "contract": "src/usdc/impl/v2/FiatTokenV2_2.sol:FiatTokenV2_2",
        "label": "allowed",
        "offset": 0,
        "slot": "10",
        "type": "t_mapping(t_address,t_mapping(t_address,t_uint256))"
      },
      {
        "astId": 27103,
        "contract": "src/usdc/impl/v2/FiatTokenV2_2.sol:FiatTokenV2_2",
        "label": "totalSupply_",
        "offset": 0,
        "slot": "11",
        "type": "t_uint256"
      },
      {
        "astId": 27107,
        "contract": "src/usdc/impl/v2/FiatTokenV2_2.sol:FiatTokenV2_2",
        "label": "minters",
        "offset": 0,
        "slot": "12",
        "type": "t_mapping(t_address,t_bool)"
      },
      {
        "astId": 27111,
        "contract": "src/usdc/impl/v2/FiatTokenV2_2.sol:FiatTokenV2_2",
        "label": "minterAllowed",
        "offset": 0,
        "slot": "13",
        "type": "t_mapping(t_address,t_uint256)"
      },
      {
        "astId": 26793,
        "contract": "src/usdc/impl/v2/FiatTokenV2_2.sol:FiatTokenV2_2",
        "label": "_rescuer",
        "offset": 0,
        "slot": "14",
        "type": "t_address"
      },
      {
        "astId": 28677,
        "contract": "src/usdc/impl/v2/FiatTokenV2_2.sol:FiatTokenV2_2",
        "label": "_DEPRECATED_CACHED_DOMAIN_SEPARATOR",
        "offset": 0,
        "slot": "15",
        "type": "t_bytes32"
      },
      {
        "astId": 28281,
        "contract": "src/usdc/impl/v2/FiatTokenV2_2.sol:FiatTokenV2_2",
        "label": "_authorizationStates",
        "offset": 0,
        "slot": "16",
        "type": "t_mapping(t_address,t_mapping(t_bytes32,t_bool))"
      },
      {
        "astId": 28135,
        "contract": "src/usdc/impl/v2/FiatTokenV2_2.sol:FiatTokenV2_2",
        "label": "_permitNonces",
        "offset": 0,
        "slot": "17",
        "type": "t_mapping(t_address,t_uint256)"
      },
      {
        "astId": 29000,
        "contract": "src/usdc/impl/v2/FiatTokenV2_2.sol:FiatTokenV2_2",
        "label": "_initializedVersion",
        "offset": 0,
        "slot": "18",
        "type": "t_uint8"
      }
    ],
    "types": {
      "t_address": {
        "encoding": "inplace",
        "label": "address",
        "numberOfBytes": "20"
      },
      "t_bool": {
        "encoding": "inplace",
        "label": "bool",
        "numberOfBytes": "1"
      },
      "t_bytes32": {
        "encoding": "inplace",
        "label": "bytes32",
        "numberOfBytes": "32"
      },
      "t_mapping(t_address,t_bool)": {
        "encoding": "mapping",
        "key": "t_address",
        "label": "mapping(address => bool)",
        "numberOfBytes": "32",
        "value": "t_bool"
      },
      "t_mapping(t_address,t_mapping(t_address,t_uint256))": {
        "encoding": "mapping",
        "key": "t_address",
        "label": "mapping(address => mapping(address => uint256))",
        "numberOfBytes": "32",
        "value": "t_mapping(t_address,t_uint256)"
      },
      "t_mapping(t_address,t_mapping(t_bytes32,t_bool))": {
        "encoding": "mapping",
        "key": "t_address",
        "label": "mapping(address => mapping(bytes32 => bool))",
        "numberOfBytes": "32",
        "value": "t_mapping(t_bytes32,t_bool)"
      },
      "t_mapping(t_address,t_uint256)": {
        "encoding": "mapping",
        "key": "t_address",
        "label": "mapping(address => uint256)",
        "numberOfBytes": "32",
        "value": "t_uint256"
      },
      "t_mapping(t_bytes32,t_bool)": {
        "encoding": "mapping",
        "key": "t_bytes32",
        "label": "mapping(bytes32 => bool)",
        "numberOfBytes": "32",
        "value": "t_bool"
      },
      "t_string_storage": {
        "encoding": "bytes",
        "label": "string",
        "numberOfBytes": "32"
      },
      "t_uint256": {
        "encoding": "inplace",
        "label": "uint256",
        "numberOfBytes": "32"
      },
      "t_uint8": {
        "encoding": "inplace",
        "label": "uint8",
        "numberOfBytes": "1"
      }
    }
  }
}