{
  "address": "0x0a6A15964fEe494A881338D65940430797F0d97C",
  "abi": [
    {
      "inputs": [
        {
          "internalType": "address",
          "name": "_owner",
          "type": "address"
        },
        {
          "internalType": "address",
          "name": "_admin",
          "type": "address"
        }
      ],
      "stateMutability": "nonpayable",
      "type": "constructor"
    },
    {
      "inputs": [],
      "name": "Transfer_ApproveFailed",
      "type": "error"
    },
    {
      "inputs": [],
      "name": "Transfer_TransferFailed",
      "type": "error"
    },
    {
      "inputs": [],
      "name": "Unauthorized",
      "type": "error"
    },
    {
      "anonymous": false,
      "inputs": [
        {
          "indexed": true,
          "internalType": "address",
          "name": "previousOwner",
          "type": "address"
        },
        {
          "indexed": true,
          "internalType": "address",
          "name": "newOwner",
          "type": "address"
        }
      ],
      "name": "OwnershipTransferred",
      "type": "event"
    },
    {
      "inputs": [
        {
          "internalType": "address",
          "name": "_stargate",
          "type": "address"
        },
        {
          "internalType": "uint256",
          "name": "_amountLD",
          "type": "uint256"
        }
      ],
      "name": "addTreasuryFee",
      "outputs": [],
      "stateMutability": "nonpayable",
      "type": "function"
    },
    {
      "inputs": [],
      "name": "admin",
      "outputs": [
        {
          "internalType": "address",
          "name": "",
          "type": "address"
        }
      ],
      "stateMutability": "view",
      "type": "function"
    },
    {
      "inputs": [],
      "name": "getTransferGasLimit",
      "outputs": [
        {
          "internalType": "uint256",
          "name": "",
          "type": "uint256"
        }
      ],
      "stateMutability": "view",
      "type": "function"
    },
    {
      "inputs": [],
      "name": "owner",
      "outputs": [
        {
          "internalType": "address",
          "name": "",
          "type": "address"
        }
      ],
      "stateMutability": "view",
      "type": "function"
    },
    {
      "inputs": [
        {
          "internalType": "address",
          "name": "_stargate",
          "type": "address"
        },
        {
          "internalType": "address",
          "name": "_token",
          "type": "address"
        },
        {
          "internalType": "uint256",
          "name": "_amount",
          "type": "uint256"
        }
      ],
      "name": "recoverToken",
      "outputs": [],
      "stateMutability": "nonpayable",
      "type": "function"
    },
    {
      "inputs": [],
      "name": "renounceOwnership",
      "outputs": [],
      "stateMutability": "nonpayable",
      "type": "function"
    },
    {
      "inputs": [
        {
          "internalType": "address",
          "name": "_admin",
          "type": "address"
        }
      ],
      "name": "setAdmin",
      "outputs": [],
      "stateMutability": "nonpayable",
      "type": "function"
    },
    {
      "inputs": [
        {
          "internalType": "address",
          "name": "_stargate",
          "type": "address"
        },
        {
          "internalType": "bool",
          "name": "_value",
          "type": "bool"
        }
      ],
      "name": "setStargate",
      "outputs": [],
      "stateMutability": "nonpayable",
      "type": "function"
    },
    {
      "inputs": [
        {
          "internalType": "uint256",
          "name": "_gasLimit",
          "type": "uint256"
        }
      ],
      "name": "setTransferGasLimit",
      "outputs": [],
      "stateMutability": "nonpayable",
      "type": "function"
    },
    {
      "inputs": [
        {
          "internalType": "address",
          "name": "",
          "type": "address"
        }
      ],
      "name": "stargates",
      "outputs": [
        {
          "internalType": "bool",
          "name": "",
          "type": "bool"
        }
      ],
      "stateMutability": "view",
      "type": "function"
    },
    {
      "inputs": [
        {
          "internalType": "address",
          "name": "_token",
          "type": "address"
        },
        {
          "internalType": "address",
          "name": "_to",
          "type": "address"
        },
        {
          "internalType": "uint256",
          "name": "_amount",
          "type": "uint256"
        }
      ],
      "name": "transfer",
      "outputs": [],
      "stateMutability": "nonpayable",
      "type": "function"
    },
    {
      "inputs": [
        {
          "internalType": "address",
          "name": "newOwner",
          "type": "address"
        }
      ],
      "name": "transferOwnership",
      "outputs": [],
      "stateMutability": "nonpayable",
      "type": "function"
    },
    {
      "inputs": [
        {
          "internalType": "address",
          "name": "_stargate",
          "type": "address"
        },
        {
          "internalType": "uint64",
          "name": "_amountSD",
          "type": "uint64"
        }
      ],
      "name": "withdrawTreasuryFee",
      "outputs": [],
      "stateMutability": "nonpayable",
      "type": "function"
    },
    {
      "stateMutability": "payable",
      "type": "receive"
    }
  ],
  "transactionHash": "0xac53ae73c5d7030bcb661daa169d2006e101466ce4c76dd31d616ab0a5268bb5",
  "args": [
    "0x4A79AdC4539905376D339C69b6a7092D0598cc24",
    "0x4A79AdC4539905376D339C69b6a7092D0598cc24"
  ],
  "numDeployments": 1,
  "solcInputHash": "d3c0a7dfb839a7f4b7e4c9f781b450f3",
  "bytecode": "0x60806040526108fc60015534801561001657600080fd5b50604051610e2a380380610e2a833981016040819052610035916100d9565b61003e3361006d565b6100478261006d565b600280546001600160a01b0319166001600160a01b03929092169190911790555061010c565b600080546001600160a01b038381166001600160a01b0319831681178455604051919092169283917f8be0079c531659141344cd1fd0a4f28419497f9722a3daafe3b4186f6b6457e09190a35050565b80516001600160a01b03811681146100d457600080fd5b919050565b600080604083850312156100ec57600080fd5b6100f5836100bd565b9150610103602084016100bd565b90509250929050565b610d0f8061011b6000396000f3fe6080604052600436106100d65760003560e01c80638c70830b1161007f578063beabacc811610059578063beabacc81461022e578063c859c4831461024e578063f2fde38b1461026e578063f851a4401461028e57600080fd5b80638c70830b146101bc5780638da5cb5b146101dc578063a7229fd91461020e57600080fd5b8063704b6c02116100b0578063704b6c0214610169578063715018a61461018957806388543f0e1461019e57600080fd5b806308c4b31f146100e25780630b7cc33a146101045780636ca4d5a41461014957600080fd5b366100dd57005b600080fd5b3480156100ee57600080fd5b506101026100fd366004610b39565b6102ae565b005b34801561011057600080fd5b5061013461011f366004610b72565b60036020526000908152604090205460ff1681565b60405190151581526020015b60405180910390f35b34801561015557600080fd5b50610102610164366004610b96565b6102ff565b34801561017557600080fd5b50610102610184366004610b72565b61046f565b34801561019557600080fd5b506101026104b1565b3480156101aa57600080fd5b50600154604051908152602001610140565b3480156101c857600080fd5b506101026101d7366004610bc2565b6104c5565b3480156101e857600080fd5b506000546001600160a01b03165b6040516001600160a01b039091168152602001610140565b34801561021a57600080fd5b50610102610229366004610bdb565b6104d2565b34801561023a57600080fd5b50610102610249366004610bdb565b6105cf565b34801561025a57600080fd5b50610102610269366004610c1c565b6105e9565b34801561027a57600080fd5b50610102610289366004610b72565b6106d4565b34801561029a57600080fd5b506002546101f6906001600160a01b031681565b6102b6610783565b6001600160a01b0391909116600090815260036020526040902080547fffffffffffffffffffffffffffffffffffffffffffffffffffffffffffffff0016911515919091179055565b6002546001600160a01b03163314610329576040516282b42960e81b815260040160405180910390fd5b6001600160a01b038216600090815260036020526040902054829060ff16610363576040516282b42960e81b815260040160405180910390fd5b60008390506000816001600160a01b031663fc0c546a6040518163ffffffff1660e01b8152600401602060405180830381865afa1580156103a8573d6000803e3d6000fd5b505050506040513d601f19601f820116820180604052508101906103cc9190610c57565b905060006001600160a01b038216156103ef576103ea8287876107f7565b6103f2565b50835b6040517f341a4648000000000000000000000000000000000000000000000000000000008152600481018690526001600160a01b0384169063341a46489083906024016000604051808303818588803b15801561044e57600080fd5b505af1158015610462573d6000803e3d6000fd5b5050505050505050505050565b610477610783565b600280547fffffffffffffffffffffffff0000000000000000000000000000000000000000166001600160a01b0392909216919091179055565b6104b9610783565b6104c3600061081d565b565b6104cd610783565b600155565b6002546001600160a01b031633146104fc576040516282b42960e81b815260040160405180910390fd5b6001600160a01b038316600090815260036020526040902054839060ff16610536576040516282b42960e81b815260040160405180910390fd5b6040517fa7229fd90000000000000000000000000000000000000000000000000000000081526001600160a01b0384811660048301523060248301526044820184905285169063a7229fd9906064016020604051808303816000875af11580156105a4573d6000803e3d6000fd5b505050506040513d601f19601f820116820180604052508101906105c89190610c74565b5050505050565b6105d7610783565b6105e48383836000610885565b505050565b6002546001600160a01b03163314610613576040516282b42960e81b815260040160405180910390fd5b6001600160a01b038216600090815260036020526040902054829060ff1661064d576040516282b42960e81b815260040160405180910390fd5b6040517fc859c48300000000000000000000000000000000000000000000000000000000815230600482015267ffffffffffffffff831660248201526001600160a01b0384169063c859c48390604401600060405180830381600087803b1580156106b757600080fd5b505af11580156106cb573d6000803e3d6000fd5b50505050505050565b6106dc610783565b6001600160a01b038116610777576040517f08c379a000000000000000000000000000000000000000000000000000000000815260206004820152602660248201527f4f776e61626c653a206e6577206f776e657220697320746865207a65726f206160448201527f646472657373000000000000000000000000000000000000000000000000000060648201526084015b60405180910390fd5b6107808161081d565b50565b6000546001600160a01b031633146104c3576040517f08c379a000000000000000000000000000000000000000000000000000000000815260206004820181905260248201527f4f776e61626c653a2063616c6c6572206973206e6f7420746865206f776e6572604482015260640161076e565b6108028383836108cd565b6105e4576108128383600061099f565b6105e483838361099f565b600080546001600160a01b038381167fffffffffffffffffffffffff0000000000000000000000000000000000000000831681178455604051919092169283917f8be0079c531659141344cd1fd0a4f28419497f9722a3daafe3b4186f6b6457e09190a35050565b610891848484846109e0565b6108c7576040517f7c75c3d200000000000000000000000000000000000000000000000000000000815260040160405180910390fd5b50505050565b6040516001600160a01b0383166024820152604481018290526000906109979085907f095ea7b300000000000000000000000000000000000000000000000000000000906064015b604080517fffffffffffffffffffffffffffffffffffffffffffffffffffffffffffffffe08184030181529190526020810180517bffffffffffffffffffffffffffffffffffffffffffffffffffffffff167fffffffff0000000000000000000000000000000000000000000000000000000090931692909217909152610a16565b949350505050565b6109aa8383836108cd565b6105e4576040517f73c4154f00000000000000000000000000000000000000000000000000000000815260040160405180910390fd5b60006001600160a01b038516610a02576109fb848484610aa3565b9050610997565b610a0d858585610aca565b95945050505050565b6000806000846001600160a01b031684604051610a339190610c8d565b6000604051808303816000865af19150503d8060008114610a70576040519150601f19603f3d011682016040523d82523d6000602084013e610a75565b606091505b509150915081610a86576000610a0d565b80511580610a0d575080806020019051810190610a0d9190610cbc565b60008082610ab1575a610ab5565b6001545b9050600080600080878986f195945050505050565b6040516001600160a01b0383166024820152604481018290526000906109979085907fa9059cbb0000000000000000000000000000000000000000000000000000000090606401610915565b6001600160a01b038116811461078057600080fd5b801515811461078057600080fd5b60008060408385031215610b4c57600080fd5b8235610b5781610b16565b91506020830135610b6781610b2b565b809150509250929050565b600060208284031215610b8457600080fd5b8135610b8f81610b16565b9392505050565b60008060408385031215610ba957600080fd5b8235610bb481610b16565b946020939093013593505050565b600060208284031215610bd457600080fd5b5035919050565b600080600060608486031215610bf057600080fd5b8335610bfb81610b16565b92506020840135610c0b81610b16565b929592945050506040919091013590565b60008060408385031215610c2f57600080fd5b8235610c3a81610b16565b9150602083013567ffffffffffffffff81168114610b6757600080fd5b600060208284031215610c6957600080fd5b8151610b8f81610b16565b600060208284031215610c8657600080fd5b5051919050565b6000825160005b81811015610cae5760208186018101518583015201610c94565b506000920191825250919050565b600060208284031215610cce57600080fd5b8151610b8f81610b2b56fea264697066735822122039f470894f79e484bc3a2a83beb65c947685dc23112033720998665c0c77d3c464736f6c63430008160033",
  "devdoc": {
    "details": "Only the Treasurer admin can add or withdraw from the Stargate treasuries. Only the Treasurer owner can      withdraw from the Treasurer account. The main use-case for this role is to provide an initial treasury to      pay rewards and to claim the unallocated rewards.",
    "kind": "dev",
    "methods": {
      "addTreasuryFee(address,uint256)": {
        "details": "can only withdraw from the balance of this contractif the balance is not enough, just deposit directly to address(this)",
        "params": {
          "_amountLD": "How much value to add to the Stargate contract"
        }
      },
      "constructor": {
        "details": "Ownership of the Treasurer is transferred to the Owner of the Stargate contract."
      },
      "owner()": {
        "details": "Returns the address of the current owner."
      },
      "renounceOwnership()": {
        "details": "Leaves the contract without owner. It will not be possible to call `onlyOwner` functions. Can only be called by the current owner. NOTE: Renouncing ownership will leave the contract without an owner, thereby disabling any functionality that is only available to the owner."
      },
      "setAdmin(address)": {
        "details": "Emits SetAdmin with the new Admin role",
        "params": {
          "_admin": "The address of the new Admin role"
        }
      },
      "transfer(address,address,uint256)": {
        "params": {
          "_amount": "How many tokens to transfer",
          "_to": "The destination account",
          "_token": "The token to transfer"
        }
      },
      "transferOwnership(address)": {
        "details": "Transfers ownership of the contract to a new account (`newOwner`). Can only be called by the current owner."
      },
      "withdrawTreasuryFee(address,uint64)": {
        "params": {
          "_amountSD": "The amount to withdraw, in SD"
        }
      }
    },
    "stateVariables": {
      "admin": {
        "details": "admin only has the power to withdraw treasury fee to address(this) or recycle the balance into the treasury"
      }
    },
    "title": "The treasurer is a role that administers the Stargate treasuries. Treasuries refer to the value that        contracts hold and accrue as they collect fees from transactions and pay rewards.",
    "version": 1
  },
  "userdoc": {
    "kind": "user",
    "methods": {
      "addTreasuryFee(address,uint256)": {
        "notice": "Return value to the Stargate contract."
      },
      "constructor": {
        "notice": "Create a new Treasurer"
      },
      "setAdmin(address)": {
        "notice": "Set the Admin role to an account."
      },
      "setStargate(address,bool)": {
        "notice": "Set the Stargate contract to be managed by the Treasurer."
      },
      "transfer(address,address,uint256)": {
        "notice": "Transfer tokens from the Treasurer account to another account"
      },
      "withdrawTreasuryFee(address,uint64)": {
        "notice": "Transfer treasury fee from a Stargate contract into the Treasurer (this) contract."
      }
    },
    "version": 1
  },
  "storageLayout": {
    "storage": [
      {
        "astId": 2988,
        "contract": "src/peripheral/Treasurer.sol:Treasurer",
        "label": "_owner",
        "offset": 0,
        "slot": "0",
        "type": "t_address"
      },
      {
        "astId": 13687,
        "contract": "src/peripheral/Treasurer.sol:Treasurer",
        "label": "transferGasLimit",
        "offset": 0,
        "slot": "1",
        "type": "t_uint256"
      },
      {
        "astId": 15792,
        "contract": "src/peripheral/Treasurer.sol:Treasurer",
        "label": "admin",
        "offset": 0,
        "slot": "2",
        "type": "t_address"
      },
      {
        "astId": 15796,
        "contract": "src/peripheral/Treasurer.sol:Treasurer",
        "label": "stargates",
        "offset": 0,
        "slot": "3",
        "type": "t_mapping(t_address,t_bool)"
      }
    ],
    "types": {
      "t_address": {
        "encoding": "inplace",
        "label": "address",
        "numberOfBytes": "20"
      },
      "t_bool": {
        "encoding": "inplace",
        "label": "bool",
        "numberOfBytes": "1"
      },
      "t_mapping(t_address,t_bool)": {
        "encoding": "mapping",
        "key": "t_address",
        "label": "mapping(address => bool)",
        "numberOfBytes": "32",
        "value": "t_bool"
      },
      "t_uint256": {
        "encoding": "inplace",
        "label": "uint256",
        "numberOfBytes": "32"
      }
    }
  }
}